:100000000C9485160C94C5160C94C5160C94C51644
:100010000C94C5160C94C5160C94C5160C94C516F4
:100020000C94C5160C94C5160C94C5160C94C516E4
:100030000C94C5160C94AECF0C94C5160C94C51632
:100040000C94C5160C942D220C94C5160C94C51650
:100050000C94C5160C94E8200C94C5160C9464CF2F
:100060000C94C5160C94128D0C94088D0C94C51626
:100070000C94C5160C94C5160C94C5160C94C51694
:100080000C94C5160C94C5160C94C5160C94C51684
:100090000C94C5160C94C5160C94C5160C94C51674
:1000A0000C94C5160C94C5160C94C5160C94C51664
:1000B0000C94C5160C94C5160C94C5160C94C51654
:1000C0000C94C5160C94C5160C94C5160C94C51644
:1000D0000C94C5160C94C5160C9451710C941B719C
:1000E0000C94C5164E414E494E495459494E46CD81
:1000F000CCCC3D0AD7233C17B7D13877CC2B3295DF
:1001000095E6241FB14F0A000020410000C84200BC
:10011000401C4620BCBE4CCA1B0E5AAEC59D740086
:10012000407A10F35A00A0724E18090010A5D4E8C6
:100130000000E87648170000E40B54020000CA9A59
:100140003B000000E1F505000080969800000040AB
:10015000420F000000A086010000001027000000F0
:1001600000E803000000006400000000000A000036
:100170000000000100000000002C76D888DC674FEA
:100180000823DFC1DFAE59E1B1B796E5E3E453C61A
:100190003AE651997696E8E6C28426EB898C9B6212
:1001A000ED407C6FFCEFBC9C9F40F2BAA56FA5F4BC
:1001B00090055A2AF75C936B6CF9676DC11BFCE0E4
:1001C000E40D47FEF520E6B500D0ED902E03009437
:1001D0003577050080841E080000204E0A000000CC
:1001E000C80C333333330F986E12831141EF8D21D6
:1001F00014893BE65516CFFEE6DB18D1844B381B3D
:10020000F77C1D901DA4BBE424203284725E228101
:1002100000C9F124ECA1E53D2720204D32303620E5
:100220005800486F6D65206F6666736574004F6691
:100230006673657473204170706C69656400457203
:10024000723A20546F6F206661722100546F6F20E4
:100250006661722066726F6D207265666572656E8A
:10026000636520706F696E740A004361703A002004
:100270003B0020204D3835312058005A2D50726FE8
:100280006265204F666673657400526573756D69AB
:100290006E67205344002569730025696D20256928
:1002A00073002569682025696D202569730025691B
:1002B00064202569682025696D20256973002569FA
:1002C0007920256964202569682025696D202569C4
:1002D00073000A53746174733A2046696C616D65EA
:1002E0006E7420757365643A20002C204C6F6E6725
:1002F000657374206A6F623A2000546F74616C20D9
:1003000074696D653A200053746174733A20002C4F
:10031000204661696C65643A20002C2046696E694C
:10032000736865643A20005072696E74733A2000F5
:1003300053746174733A2000436F6F6C696E672E5B
:100340002E2E0045312025530020573A0042656487
:1003500020436F6F6C696E672E2E2E0042656420FD
:1003600048656174696E672E2E2E00236465666988
:100370006E652044454641554C545F0000626564FB
:10038000004B6420004B6920004B70200050494412
:100390002074756E696E6720646F6E6500206669F3
:1003A0006E697368656421205075742074686520D7
:1003B0006C617374204B702C204B6920616E64203B
:1003C0004B6420636F6E7374616E74732066726F1A
:1003D0006D2062656C6F7720696E746F20436F6E5D
:1003E00066696775726174696F6E2E680A0050499C
:1003F00044204175746F74756E6500206661696C88
:100400006564212074696D656F75740A00504944F4
:10041000204175746F74756E65004175746F7475E5
:100420006E65206661696C6564212054696D656F35
:1004300075742E00206661696C6564212054656DB9
:10044000706572617475726520746F6F206869677A
:10045000680A00504944204175746F74756E6500D8
:10046000504944204379636C657300255320256906
:100470002F256900204B643A2000204B693A200068
:10048000204B703A200020436C61737369632050E5
:100490004944200A00204E6F206F76657273686FA2
:1004A0006F740A002054753A2000204B753A2000E2
:1004B000206D61783A2000206D696E3A200020643A
:1004C0003A200020626961733A20004865617469CE
:1004D0006E672E2E2E002073746172740A005049CC
:1004E00044204175746F74756E65004175746F7446
:1004F000756E65206661696C6564212054656D7058
:100500006572617475726520746F6F2068696768C1
:100510002E00206661696C6564212054656D7065EC
:1005200072617475726520746F6F20686967680AFC
:1005300000504944204175746F74756E65005049D0
:1005400044204175746F74756E6500206661696C36
:100550006564212042616420686561746572206968
:10056000640A00504944204175746F74756E6500CB
:1005700046696C616D656E745F72756E6F7574003F
:10058000454550524F4D5F7665725F77726F6E676B
:1005900000506F7765725F6661696C7572650053B4
:1005A000445F636172645F6572726F720041626E74
:1005B0006F726D616C5F686F74656E645F74656D9A
:1005C000700041626E6F726D616C5F6265645F7432
:1005D000656D7000322E312E322E31004A333320B9
:1005E000004A303200204D0020482000413756207C
:1005F00000413656202D2D2D004136562000205A20
:100600003A200020593A200041355620583A20001F
:1006100041345620004133562000413256200041DB
:100620003156200041305620004D323520500A4DC1
:10063000323400526573756D6500554920506175FF
:10064000736500726573756D65004D3234006361CA
:100650006E63656C005072696E742041626F7274D3
:100660006564004469736D69737300554920416284
:100670006F727465640043616E6E6F7420656E7492
:100680006572207375626469723A20004A323100E3
:100690004A3231004A3230004A3132004739310A99
:1006A000473025730A473930004732385A004732FD
:1006B00038590047323858004132305620004A310C
:1006C00032004D31303030004A3034004D3130305E
:1006D000302043004A3136004D3130303020430065
:1006E0004A3136004A3035004A3236004D35303115
:1006F0000A4D34323020533100413331562000410D
:1007000033315620004133315620004D6573682047
:100710006368616E6765732073617665642E004D52
:10072000353030004D657368206368616E676573AE
:10073000206162616E646F6E65642C2070726576F4
:10074000696F7573206D65736820726573746F725D
:1007500065642E004D3530310A4D3432302053312E
:10076000004A3236004732380A473239004A3236B8
:10077000004A323400473238004132395620004EA8
:100780006577205446542070616E656C20646574F2
:10079000656374656421005374616E6461726420E2
:1007A0005446542070616E656C2064657465637492
:1007B000656421004A3039004A30370042656420C0
:1007C00074656D702061626E6F726D616C21203A8C
:1007D00020004A3130004578747275646572207467
:1007E000656D702061626E6F726D616C21203A20C0
:1007F000004A3130004A31380046696C616D656EDF
:10080000742050757267696E672E2E2E004A31383B
:10081000005265686561742066696E697368656415
:100820002E004A3138004865617465722054696D44
:10083000656F7574004A3138004E6F7A7A6C6520A6
:100840005061726B6564005072696E7420506175FE
:10085000736564002E2E20202020202020202020C0
:1008600020202020202020202E67636F6465004513
:100870004E4400464E20004A313400486F6D696E88
:1008800067204661696C6564006F70656E00545244
:1008900049474745524544003A200066696C616DFE
:1008A000656E74007A5F70726F6265007A325F6D98
:1008B000696E007A5F6D696E00795F6D696E0078B0
:1008C0005F6D696E005265706F7274696E67206546
:1008D0006E6473746F70207374617475730A002092
:1008E000746F6F206C6F6E672065787472757369B2
:1008F0006F6E2070726576656E7465640A002063A1
:100900006F6C6420657874727573696F6E20707295
:100910006576656E7465640A00000084C10000900D
:10092000C0000000005761726E696E673A20486F20
:100930006D696E672042756D702044697669736FCA
:1009400072203C20310A000404040000D24300005D
:10095000CD430080E3430000A0400000A040000021
:1009600000404A3138004A3034000000CD430000D6
:10097000CD430080E343000020C1000000000000E0
:10098000000053657474696E67732053746F7265E9
:100990006400290A002062797465733B20637263E6
:1009A000200053657474696E67732053746F7265A9
:1009B00064202800454550524F4D20496E697469A6
:1009C000616C697A65640A0048617264636F64658A
:1009D000642044656661756C742053657474696E37
:1009E0006773204C6F616465640020286D6D290079
:1009F000203B204C6576656C696E67200020204D99
:100A00003432302053004175746F20426564204CAD
:100A10006576656C696E670020204D393030204B5B
:100A2000004C696E65617220416476616E63650099
:100A3000203B2053656E736F7220002044002020FD
:100A40004D34313220530046696C616D656E7420FF
:100A500072756E6F75742073656E736F7200204AC5
:100A6000002020473239205720490020204D3134C2
:100A7000392043203B20556E69747320696E2043F2
:100A8000656C736975730A0054656D706572617485
:100A900075726520556E69747300202047323120CD
:100AA0003B004C696E65617220556E697473004538
:100AB0004550524F4D206461746173697A652065B9
:100AC00072726F722E0A004572723A20454550527A
:100AD0004F4D2043524300202863616C63756C6165
:100AE00074656429210A0020213D200045455052AB
:100AF0004F4D20435243206D69736D6174636820CC
:100B00002D202873746F726564292000454550526A
:100B10004F4D20436F72727570740A002053697ACA
:100B2000653A2000496E6465783A200053746F720C
:100B300065642073657474696E677320726574727E
:100B4000696576656400290A002062797465733BE3
:100B50002063726320002073746F72656420736574
:100B60007474696E67732072657472696576656402
:100B700020280000006143000034430000C8410009
:100B80000034420000A0420000C8420000C8439A5E
:100B9000D9CF43DC050000DC05000064000000B88C
:100BA0000B0000204D61726C696E3D563838290A81
:100BB00000454550524F4D2076657273696F6E2027
:100BC0006D69736D617463682028454550524F4DBF
:100BD0003D0024F404D9201BC40C5C0E9804C40905
:100BE0005F0265077101F405F900FB04B3004804D6
:100BF0008700C10369005803550003034500BE0286
:100C00003A008402310053022A002902250004021E
:100C10002000E4011C00C8011900AF011700980171
:100C200014008401130071011000610110005101D2
:100C30000E0043010D0036010B002B010B002001BB
:100C40000B00150109000C01090003010800FB005D
:100C50000800F3000800EB000700E4000600DE00D7
:100C60000600D8000600D2000600CC000500C70030
:100C70000500C2000500BD000400B9000400B50075
:100C80000400B1000400AD000400A9000400A500A8
:100C90000300A20003009F0004009B0003009800D3
:100CA00003009500020093000300900003008D00F4
:100CB00002008B000300880002008600020084000E
:100CC0000300810002007F0002007D0002007B0023
:100CD0000200790002007700010076000200740033
:100CE000020072000100710002006F0002006D003E
:100CF00001006C0002006A00010069000200670048
:100D0000010066000100650001006400020062004D
:100D1000010061000100600001005F0002005D0051
:100D200001005C0001005B0001005A000100590055
:100D30000100580001005700010056000100550055
:100D40000100540001005300000053000100520054
:100D5000010051000100500001004F0001004E0051
:100D600000004E0001004D0001004C0001004B004E
:100D700000004B0001004A0001004900010048004A
:100D80000000480001004700010046000000460046
:100D9000010045000000450001004400010043003F
:100DA0000000430001004200000042000100410039
:100DB000000041000100400001003F0000003F0032
:100DC00001003E0000003E0001003D0000003D002B
:100DD00001003C0000003C0000003C0001003B0022
:100DE00000003B0001003A0000003A000100390019
:100DF0000000390001003800000038000000380011
:100E00000100370000003700010036000000360006
:100E100000003600010035000000350000003500FC
:100E200001003400000034000000340001003300F1
:100E300000003300000033000100320000003200E7
:100E400000003200010031000000310000003100DC
:100E500001003000000030000000300001002F00D1
:100E600000002F0000002F0000002F0001002E00C6
:100E700000002E0000002E0001002D0000002D00BB
:100E800000002D0000002D0001002C0000002C00AF
:100E900000002C0000002C0001002B0000002B00A3
:100EA00000002B0000002B0001002A0000002A0097
:100EB00000002A0000002A0001002900000029008B
:100EC000000029000000290000002900010028007E
:100ED0000000280000002800000028000000280072
:100EE0000100270000002700000027000000270065
:100EF0000000270001002600000026000000260058
:100F0000000026000000260001002500000025004A
:100F1000000025000000250000002500000025003D
:100F20000100240000002400000024000000240030
:100F30000000240001002300000023000000230023
:100F40000000230000002300000023000000230015
:100F50000100220000002200000022000000220008
:100F600000002200000022000100210000002100FA
:100F700000002100000021000000210000002100ED
:100F800000002100010020000000200000002000DF
:100F900000002000000020000000200000002000D1
:100FA0000000200001001F0000001F0000001F00C3
:100FB00000001F0000001F0000001F0000001F00B5
:100FC00001001E0000001E0000001E0000001E00A8
:100FD000000024F4D43050C38E20C2A24017828B6C
:100FE0007011127A910D816CD90AA861E108C75875
:100FF0006607615143061E4B5D05C145A7041A41B2
:101000001104093D9803713931034036DB02653321
:101010009102D4305402802E1D02632CEE01752AF9
:10102000C501B028A001102781018F2564012B2460
:101030004B01E0223401AC211F018D200D01801FE6
:10104000FC00841EED00971DDF00B81CD200E61BDB
:10105000C600201BBC00641AB200B219A8000A190D
:10106000A0006A189900D117910040178B00B5169F
:10107000840031167E00B31579003A157300C71449
:101080006F0058146A00EE1366008813630025137E
:101090005E00C7125B006C12570015125400C1119C
:1010A000510070114F0021114B00D61049008D10D6
:1010B00047004610440002104200C00F4000800F5D
:1010C0003E00420F3C00060F3B00CB0E3800930E53
:1010D00037005C0E3500270E3400F30D3200C10DD1
:1010E0003100900D3000600D2E00320D2D00050DE9
:1010F0002C00D90C2B00AE0C2900850C29005C0CAF
:101100002700350C27000E0C2600E80B2400C40B2A
:101110002400A00B23007D0B23005A0B2100390B68
:101120002100180B2000F80A1F00D90A1E00BB0A74
:101130001E009D0A1D00800A1D00630A1C00470A4C
:101140001B002C0A1B00110A1A00F7091A00DD09FE
:101150001900C4091900AB091900920917007B098D
:101160001800630917004C091600360916002009FB
:1011700016000A091500F5081500E0081400CC084F
:101180001400B8081400A4081400900813007D0887
:1011900012006B08130058081200460812003408A9
:1011A0001100230811001208110001081100F007B6
:1011B0001000E0071000D0071000C0071000B007B3
:1011C0000F00A107100091070E0083070F0074079E
:1011D0000F0065070E0057070E0049070E003B077A
:1011E0000D002E070E0020070D0013070D00060747
:1011F0000D00F9060C00ED060D00E0060C00D4060B
:101200000C00C8060C00BC060C00B0060C00A406BE
:101210000B0099060C008D060B0082060B0077066A
:101220000B006C060B0061060A0057060B004C060B
:101230000A0042060A0038060A002E060A002406A2
:101240000A001A060A001006090007060A00FD0532
:101250000900F4050900EB050900E2050900D905BC
:101260000900D0050900C7050900BE050900B5053C
:101270000800AD050800A50509009C0508009405B7
:1012800008008C050800840508007C05080074052A
:1012900008006C050700650508005D050700560598
:1012A00008004E05070047050700400508003805FF
:1012B0000700310507002A050700230507001C0564
:1012C0000600160507000F050700080506000205C1
:1012D0000700FB040600F5040700EE040600E8041E
:1012E0000600E2040700DB040600D5040600CF0474
:1012F0000600C9040600C3040600BD040600B704C6
:101300000600B1040500AC040600A6040600A00413
:1013100005009B04060095040500900406008A045D
:10132000050085040500800406007A0405007504A4
:101330000500700405006B040500660405006104E7
:1013400005005C04050057040500520405004D0427
:10135000050048040500430405003E0404003A0467
:10136000050035040500300404002C0405002704A2
:101370000400230405001E0404001A0404001604DB
:101380000500110404000D04040009040500040410
:10139000040000040400FC030400F8030400F40348
:1013A0000400F0030400EC030400E8030400E40379
:1013B0000400E0030400DC030400D8030400D403A9
:1013C0000400D0030400CC030400C8030300C503D9
:1013D000030020436F756E7420583A000042656424
:1013E000004531004500626564002C2073797374F8
:1013F000656D2073746F7070656421204865617439
:1014000065725F49443A20004572723A204D415856
:1014100054454D50004D415854454D50207472690B
:101420006767657265640048656174696E67204628
:1014300061696C65640048656174696E6720666106
:10144000696C6564004D353234004D3131322053C2
:10145000687574646F776E0070012C01900127012C
:10146000B0012201C0011D01F00118011002130199
:1014700030020E016002090190020401C002FF0067
:101480000003FA004003F5008003F000D003EB00F6
:101490002004E6007004E100E004DC004005D70011
:1014A000C005D2004006CD00D006C8008007C300AA
:1014B0003008BE00F008B900C009B400B00AAF009F
:1014C000B00BAA00D00CA500000EA000500F9B008E
:1014D000C01096005012910000148C00C0158700B7
:1014E000B0178200B0197D00D01B7800001E730079
:1014F00040206E0090226900F024640040275F00C5
:1015000090295A00E02B5500102E500020304B003F
:1015100010324600E033410090353C001037370070
:1015200070383200A0392D00B03A2800A03B2300CB
:10153000603C1E00103D1900903D1400103E0F004D
:10154000703E0A00C03E0500003F0000403FFBFF28
:10155000803FF6FFC03FF1FF4572723A204D494E81
:1015600054454D50004D494E54454D5020747269BC
:1015700067676572656400202F002042403A0020B2
:10158000403A0020573A007C3C3E5E2B3D3F2F5BAB
:101590005D3B2C2A225C00434F4D4D554E49434143
:1015A00054494F4E0044525952554E004552524FE5
:1015B000525300494E464F004543484F0045727212
:1015C0006F722077726974696E6720746F20454569
:1015D00050524F4D210A0053544F505045442E2035
:1015E000005072696E7465722073746F70706564F8
:1015F0002064756520746F206572726F72732E207F
:1016000046697820746865206572726F7220616E19
:101610006420757365204D39393920746F207265E7
:1016200073746172742E202854656D7065726174D4
:101630007572652069732072657365742E20536519
:1016400074206974206166746572207265737461B8
:101650007274696E67290A004E6F20436865636B78
:1016600073756D2077697468206C696E65206E757E
:101670006D6265722C204C617374204C696E653A02
:1016800020004E6F20436865636B73756D2077692A
:101690007468206C696E65206E756D6265722C20B1
:1016A0004C617374204C696E653A20006368656311
:1016B0006B73756D206D69736D617463682C204C5C
:1016C000617374204C696E653A20004C696E652028
:1016D0004E756D626572206973206E6F74204C6167
:1016E0007374204C696E65204E756D6265722B3186
:1016F0002C204C617374204C696E653A20004D318A
:1017000031300053657269616C2073746174757354
:10171000206D69736D617463680A005344207265BB
:101720006164206572726F720A00746F6F206D754C
:10173000636820696E6163746976652074696D659C
:10174000202D2063757272656E7420636F6D6D61FC
:101750006E643A20002121204B494C4C2063617576
:101760007365642062792000486F74656E64204957
:10177000646C652054696D656F757400486F74659D
:101780006E642049646C652054696D656F75740AD8
:1017900000627573793A2070617573656420666FB5
:1017A0007220696E7075740A00627573793A2070E0
:1017B000617573656420666F7220757365720A00C7
:1017C000627573793A2070726F63657373696E67BF
:1017D0000A004A3032004A3031004A3030004D3180
:1017E0003030305300506F776572204F75746167E9
:1017F00065004A3233004A31350070617573650007
:101800004D363030002066696C616D656E745F72B4
:10181000756E6F7574200066696C616D656E745FBE
:1018200072756E6F757420540046696C616D656EDB
:101830007452756E6F75742054004A313100706FA8
:101840007765726F6666005072696E7465722068A3
:10185000616C7465642E206B696C6C28292063614F
:101860006C6C6564210A006563686F3A00457272AA
:101870006F723A0042696C696E656172204C6576E0
:10188000656C696E6720477269643A0A002F2F61A0
:101890006374696F6E3A006E6F7469666963617430
:1018A000696F6E2000626567696E00656E64007323
:1018B000686F7700627574746F6E00486F74656E40
:1018C0006420746F6F20636F6C640A0053656E64EC
:1018D000204D31303820746F20726573756D650A44
:1018E00000496E736572742066696C616D656E7413
:1018F00020616E642073656E64204D3130380A00BB
:1019000052656865617420446F6E65005265686554
:101910006174696E672E2E2E0052656865617400D1
:101920004865617465722054696D656F7574005304
:10193000656E64204D31303820746F2068656174A5
:10194000206E6F7A7A6C650A004E6F7A7A6C652029
:101950005061726B65640070617573656400486501
:1019600061642063616E6E6F7420626520706172C5
:101970006B656400506175736500726573756D65A4
:101980006400526573756D696E6700426564204C32
:101990006576656C696E6720004661696C656420D8
:1019A000746F20656E61626C6520426564204C65D1
:1019B00076656C696E670A00496E76616C696420B1
:1019C0006D6573682E0A004732370050726F626986
:1019D0006E6720506F696E740025532025692F258E
:1019E00069002E0A002F0050726F62696E67206DC9
:1019F00065736820706F696E742000202844525906
:101A000052554E2900473239204175746F20426586
:101A100064204C6576656C696E67003F20284C2C0D
:101A2000522C462C4229206F7574206F6620626FFD
:101A3000756E64732E0A003F2856296572626F73B3
:101A400065206C6576656C20696D706C6175736975
:101A5000626C652028302D34292E0A0042616420F2
:101A60005A2076616C75650A004E6F2062696C6958
:101A70006E65617220677269640A00416363757202
:101A80006163792044656372656173696E672100E3
:101A900044656372656173696E6720416363757243
:101AA0006163792044657465637465642E0A004738
:101AB00032385A0041636375726163793A200020BD
:101AC0006F66200044696420004733342061626FF0
:101AD000727465642E0A00416363757261637920D4
:101AE0004163686965766564005461726765742056
:101AF00061636375726163792061636869657665A6
:101B0000642E0A00313A323D2573000A5A322D5AAA
:101B1000313D0050726F62696E67204661696C6585
:101B2000640050726F62696E67206661696C6564FB
:101B30000A0047333420497465726174696F6E3AE4
:101B4000202569000A47333420497465726174693D
:101B50006F6E3A20003F2841296D706C6966696399
:101B60006174696F6E206F7574206F6620626F7587
:101B70006E64732028302E352D322E30292E0A0027
:101B80003F285429617267657420616363757261CF
:101B90006379206F7574206F6620626F756E647351
:101BA0002028302E30312D312E30292E0A003F28AA
:101BB00049297465726174696F6E206F7574206F46
:101BC0006620626F756E64732028312D3330292EA4
:101BD0000A0020204D3432322053005A20417574BF
:101BE0006F2D416C69676E0020204D3636360045FA
:101BF0006E6473746F702061646A7573746D656E62
:101C0000740020440020204D323030205300202822
:101C100044697361626C6564293A0046696C616D60
:101C2000656E742073657474696E67730020204D4F
:101C30003230312058004D617820416363656C6516
:101C4000726174696F6E2028756E6974732F7332B8
:101C5000290020204D3230332058004D6178206615
:101C600065656472617465732028756E6974732F7D
:101C700073290020520020204D3230342050004182
:101C80006363656C65726174696F6E2028756E6937
:101C900074732F7332292028503C7072696E742D32
:101CA000616363656C3E20523C726574726163745B
:101CB0002D616363656C3E20543C74726176656C83
:101CC0002D616363656C3E2900204A00205400208A
:101CD000530020204D323035204200416476616E41
:101CE0006365642028423C6D696E5F7365676D654E
:101CF0006E745F74696D655F75733E20533C6D69EA
:101D00006E5F66656564726174653E20543C6D6902
:101D10006E5F74726176656C5F666565647261742E
:101D2000653E204A3C6A756E635F6465763E2900B5
:101D300020440020490020204D33303120500048FD
:101D40006F74656E642050494400204400204900AF
:101D500020204D33303420500042656420504944E7
:101D600000203B0020550020204D363033204C0011
:101D700046696C616D656E74206C6F61642F756E61
:101D80006C6F6164004D323453256C6454256C646F
:101D9000004739322E394525730047314625640006
:101DA00047315A257346363030004731582573592C
:101DB00025734633303030004731463330303045BC
:101DC0002564004D313036502569532569004D3169
:101DD0003039532569004D32303044257300473186
:101DE0005A257346363030004D3432305325635A0D
:101DF00025730047315825735925734631303030EB
:101E00000A473238485A004732385230585900474A
:101E1000315A257346363030004739322E39453035
:101E2000004D313039532569004D31393053256922
:101E3000004D343230533000526573756D696E67F2
:101E40002066726F6D20706F776572206F75746198
:101E50006765212073656C65637420746865207301
:101E6000616D652053442066696C65207468656EF9
:101E700020707265737320726573756D6500203B09
:101E8000200020204D343133205300506F7765728D
:101E90002D6C6F7373207265636F76657279003B8A
:101EA000200020496E76616C6964206578747275D3
:101EB0006465722000536C6565702E2E2E004732CB
:101EC000384C30005A2050726F6265205061737434
:101ED0002042656400205A3A200020593A200042EE
:101EE000656420583A20004D65736820706F696EF4
:101EF00074206F7574206F662072616E67650A00CA
:101F000070726F6D70745F00626567696E004D304E
:101F10002053746F70004D312053746F7000436C08
:101F200069636B20746F20526573756D652E2E2E5C
:101F3000004E6F204D6F76652E00456E64206669F9
:101F40006C65206C6973740A00426567696E20666F
:101F5000696C65206C6973740A004E6F206D65644E
:101F600069610A00286E6F2066696C6529004375F7
:101F70007272656E742066696C653A20004E6F74EB
:101F8000205344207072696E74696E670A0053446E
:101F9000207072696E74696E6720627974652000C2
:101FA0005072696E742074696D653A20006F6B0021
:101FB0006F666600B815B315AC15A51597154445A1
:101FC0004255473A004D313133205300416E796319
:101FD0007562696320436869726F6E204F46462EB2
:101FE00000434F4E4649475F4558504F5254004DAD
:101FF0004541545041434B00434F4F4C45525F5471
:10200000454D5045524154555245004348414D427B
:1020100045525F54454D504552415455524500423A
:102020004142595354455050494E47004152435341
:10203000004D4F54494F4E5F4D4F44455300544857
:1020400045524D414C5F50524F54454354494F4EB9
:1020500000455854454E4445445F4D323000435589
:1020600053544F4D5F4649524D574152455F55506D
:102070004C4F4144004C464E5F5752495445004C2A
:102080004F4E475F46494C454E414D4500415554E2
:102090004F5245504F52545F53445F53544154552F
:1020A000530053445F5752495445005245504541EF
:1020B00054004D554C54495F564F4C554D450053B7
:1020C00044434152440050524F4D50545F53555079
:1020D000504F525400484F53545F414354494F4E60
:1020E0005F434F4D4D414E445300454D455247458A
:1020F0004E43595F50415253455200434153455F4F
:102100004C494748545F4252494748544E455353FF
:1021100000544F47474C455F4C4947485453005380
:102120004F4654574152455F504F57455200425514
:10213000494C445F50455243454E54004C4556452A
:102140004C494E475F44415441005A5F50524F4200
:10215000450052554E4F5554004155544F4C45562D
:10216000454C005052494E545F4A4F420050524F26
:102170004752455353004155544F5245504F5254C6
:102180005F54454D50004155544F5245504F5254A5
:102190005F504F5300564F4C554D455452494300E4
:1021A000454550524F4D0042494E4152595F4649B4
:1021B0004C455F5452414E53464552005345524997
:1021C000414C5F584F4E5F584F4646004649524D6E
:1021D000574152455F4E414D453A4D61726C696EB3
:1021E00020322E312E322E3120284E6F762032337F
:1021F00020323032332032303A30353A32302920F2
:10220000534F555243455F434F44455F55524C3AF7
:102210006769746875622E636F6D2F4D61726C69AA
:102220006E4669726D776172652F4D61726C696E71
:102230002050524F544F434F4C5F56455253494FD5
:102240004E3A312E30204D414348494E455F545956
:1022500050453A416E7963756269632043686972DB
:102260006F6E2045585452554445525F434F554E6A
:10227000543A3120555549443A63656465326132B8
:10228000662D343161322D343734382D3962313294
:102290002D633535633632663336376666002F2F49
:1022A000003F4A206F7574206F662072616E67650B
:1022B0002028302E303120746F20302E33290A0030
:1022C00020580020204D61783A2000200020204D29
:1022D000696E3A2000203B200020204D3231312011
:1022E0005300536F667420656E6473746F7073006F
:1022F000250A0046523A0020466C6F773A20006467
:10230000697300656E0043290A0061626C65642090
:10231000286D696E2074656D702000436F6C6420B9
:1023200065787472756465732061726520004F462C
:1023300046004F4E00203B20486F73742068616E4A
:10234000646C696E6720006D6D00203B20446973EA
:1023500074616E6365200046696C616D656E742002
:1023600072756E6F757420004D34323120696E6362
:102370006F727265637420706172616D65746572ED
:102380002075736167650A004D65736820706F6919
:102390006E74206F7574206F662072616E67650AB7
:1023A00000454550524F4D204F4B0A00290A00204E
:1023B000746F20003F5A206F7574206F6620726121
:1023C0006E6765202800290A0020746F20003F599D
:1023D000206F7574206F662072616E676520282DEE
:1023E00000290A0020746F20003F58206F75742068
:1023F0006F662072616E676520282D002E0A00200E
:1024000028302D313029002076616C7565206F757C
:1024100074206F662072616E676500416476616E3C
:102420006365204B3D003F285929206F7574206F4C
:102430006620626F756E64732E0A003F285829204B
:102440006F7574206F6620626F756E64732E0A005C
:1024500020696E64657820696E76616C69642028F5
:10246000312E2E32292E0A003F2853292050726F18
:1024700062652D706F736974696F6E003F28532910
:102480002069732072657175697265642E0A004D4A
:10249000383458594500446F6E65207072696E7407
:1024A000696E672066696C650A004D3737004D33E9
:1024B0003100496E76616C69642065787472756468
:1024C00065720A004D6564696120496E6974204631
:1024D00061696C0053442063617264206F6B0A0071
:1024E0006F70656E526F6F74206661696C65640A07
:1024F00000766F6C756D652E696E69742066616912
:102500006C65640A004E6F20534420636172640A54
:1025100000534420636172642072656C6561736569
:10252000640A000A4D3234004D3233202573002EE8
:102530000A006F70656E206661696C65642C2046C8
:10254000696C653A200046696C652073656C65634B
:102550007465640A002053697A653A200046696C04
:1025600065206F70656E65643A2000454E442053C7
:102570005542524F5554494E450A002220706F7300
:10258000002220706172656E743A220053554252E7
:102590004F5554494E452043414C4C20746172675D
:1025A00065743A220053756263616C6C204F7665E6
:1025B00072666C6F77004578636565646564206D4D
:1025C000617820535542524F5554494E4520646519
:1025D0007074683A002E0A0044656C6574696F6E09
:1025E000206661696C65642C2046696C653A200040
:1025F00046696C652064656C657465643A00577261
:102600006974696E6720746F2066696C653A200092
:10261000667265736800646F696E67002066696C36
:10262000653A20004E6F7720002F6175746F256327
:102630002E67004A3230300053495A45004A313241
:10264000004D3432305356004A3137004175746FB3
:10265000206465746563742070616E656C207479A4
:1026600070652028617373756D696E67206E65777C
:102670002070616E656C290053657420666F72204E
:102680007374616E64617264205446542070616E8C
:10269000656C2E0053657420666F72206E6577201E
:1026A0005446542070616E656C2E001000C90210F3
:1026B000012C014001220170011801B0010E01F04E
:1026C0000104015002FA00B002F0003003E600D02D
:1026D00003DC009004D2007005C800A006BE000014
:1026E00008B400B009AA00D00BA000600E960060EC
:1026F000118C000015820020197800C01D6E00A00A
:10270000226400B0275A00902C500000314600E0AF
:10271000343C0010383200903A2800603C1E00A083
:102720003D1400803E0A00203F00002020506C61D4
:102730006E6E657242756666657242797465733A4B
:1027400020002046726565204D656D6F72793A20D4
:102750000020436F6D70696C65643A204E6F76207F
:10276000323320323032330A00204C6173742055EA
:102770007064617465643A20323032332D30352D07
:102780003136207C20417574686F723A2028526F70
:102790006D6D756C616E65722C20416E796375622A
:1027A000696320436869726F6E20322E312E322E9B
:1027B00031290A004D61726C696E20322E312E3241
:1027C0002E310A0020536F6674776172652052655E
:1027D0007365740A00205761746368646F672052E0
:1027E000657365740A002042726F776E206F75748E
:1027F0002052657365740A002045787465726E61B5
:102800006C2052657365740A00506F77657255705D
:102810000A0073746172740A00473237004D313018
:102820003031006F6B006572726F7220777269745D
:10283000696E6720746F2066696C650A00446F6E6C
:102840006520736176696E672066696C652E0A0083
:102850004D323900456E6473746F707300255320D8
:1028600025632025632025632025630020503A003E
:10287000205A3A0020593A0020583A00656E647395
:10288000746F7073206869743A200000000A0B02AC
:10289000090C0D0E080703040100000000000000F1
:1028A0000000000000000000000000000000000028
:1028B00000000000000000121110000000000000E5
:1028C0000000000000000000000000000000000008
:1028D00000A22A0000352100000B170000480E005E
:1028E000001F0800005C04000042020000260100F6
:1028F00000454550524F4D2056657273696F6E20EA
:102900004572726F72004A30380042656420486533
:102910006174696E672E2E2E004A303600452048BD
:10292000656174696E672E2E2E004A313600507232
:10293000696E742041626F72746564004A313800B8
:102940005072696E7420506175736564004A313845
:1029500000526568656174696E672E2E2E004A32DA
:1029600035004731205A353020463530300050721E
:102970006F62696E67204661696C6564004A323532
:10298000004D3530300A4732370020526561647996
:102990002E00DB0FC93F45BCDA3F8FB30240FCF08D
:1029A000274056946140FE4B9B4084A5D840E023CD
:1029B0001841346A5641E859974164DBD5416E2786
:1029C0001742B4B75542CE1A9742C8AED542B58821
:1029D0005A43D40684BFA65FA7BF7443E0BF10B1BB
:1029E0001AC01C2C58C0E8F697C0B849D6C04E4E45
:1029F00017C124D355C1802497C1A0B5D5C1121ADF
:102A000017C244AE55C2781797C26CACD5C267885E
:102A10005AC320746F6F206C6F6E67206578747274
:102A20007573696F6E2070726576656E7465640A81
:102A30000020636F6C6420657874727573696F6EC3
:102A40002070726576656E7465640A00416E796304
:102A50007562696320436869726F6E2052656164B4
:102A6000792E005072696E74696E672E2E2E00509A
:102A700072696E742050617573656400486F6D658E
:102A800020257320466972737400544845524D41A5
:102A90004C2052554E4157415900546865726D6142
:102AA0006C2052756E6177617900524553554D45E2
:102AB000204F5054494F4E533A0048656174696E37
:102AC000672E2E2E000000436C69636B20746F200C
:102AD00068656174000000526573756D696E672EDC
:102AE0002E2E000000436C69636B20746F206669B2
:102AF0006E6973680000004C6F6164696E672E2E0A
:102B00002E000000496E7365727420616E6420436C
:102B10006C69636B000000436C69636B20746F2009
:102B2000636F6E74696E7565000000456A65637455
:102B3000696E672E2E2E000000506C656173652053
:102B4000776169742E2E2E0000005061726B696EE1
:102B5000672E2E2E00000050757267696E672E2E4C
:102B60002E000000436F6E74696E7565004C6F61D6
:102B7000642046696C616D656E742054004C6F6111
:102B8000642046696C616D656E7400496E73657290
:102B9000742066696C616D656E7420616E6420736B
:102BA000656E64204D3130380A0050726F62696E74
:102BB00067204661696C65640A0050726F62696ED5
:102BC00067204661696C656400205A3A20002059EC
:102BD0003A200042656420583A2000FFFFFF43611D
:102BE0006E6E6F74206F70656E20737562646972AB
:102BF0002000204500205A0020590020204D393265
:102C000020580053746570732070657220756E696A
:102C10007400220A00556E6B6E6F776E20636F6DC5
:102C20006D616E643A20220020453A00205A3A0035
:102C300020593A00583A006F6B0A00526573656E6E
:102C4000643A20000200002200250028002B002EFC
:102C5000003100340002010000050108010B0100F1
:102C6000002100240027002A002D0030003300013D
:102C7000010000040107010A010505050507050813
:102C8000080808020202020A0A08080404040401EF
:102C90000101010101010103030303030303030411
:102CA0000707070C0C0C0C0C0C0C0C0202020206A1
:102CB000060606060606060B0B0B0B0B0B0B0B0191
:102CC000021020200808102040102040800201023D
:102CD0000108040201010204081020408080402005
:102CE0001008040201800402018040201008040240
:102CF00001080402010102040810204080010204BE
:102D000008102040800014DEF6DD11241FBECFEF36
:102D1000D1E2DEBFCDBF00E00CBF84B7809387183F
:102D200014BE0FB6F894A8958091600088618093D6
:102D30006000109260000FBE14E0A0E0B2E0E6E98F
:102D4000FAEE01E00BBF02C007900D92A430B1076C
:102D5000D9F728E1A4E0B4E001C01D92A738B2077A
:102D6000E1F716E1C4E8D6E100E006C021970109C9
:102D7000802FFE010E94C4F2C338D10780E008070B
:102D8000A9F70E9487DF0C943AF50C9400000F938A
:102D90001F93CF93DF93CDB7DEB760970FB6F8944C
:102DA000DEBF0FBECDBF8C01DC01ED91FC91028036
:102DB000F381E02DBE016F5F7F4F1995882309F4E1
:102DC00064C08981807CC9F56F81637070E0762F63
:102DD0006627770F770F8885B4E08B9FC001112499
:102DE000682B792B89858295869586958370682BCB
:102DF0006F5F7F4F90E080E02A852370220F3B8534
:102E000037FB332730F9232B3E813F70230F3327C5
:102E1000331F2750310904C0660F771F881F991F81
:102E20002A95D2F760960FB6F894DEBF0FBECDBFDD
:102E3000DF91CF911F910F910895803419F5688526
:102E40006695669570E090E080E0CB017727662775
:102E50002A85622B098510E0102F0027012E000C17
:102E6000220B330B602B712B822B932B6F5F7F4FC9
:102E70008F4F9F4F4AE0660F771F881F991F4A9513
:102E8000D1F7D0CF8BE0F801848360E070E0CB0114
:102E9000C9CF0895FC01828108952F923F924F92ED
:102EA0005F926F927F928F929F92AF92BF92CF92DA
:102EB000DF92EF92FF920F931F93CF93DF9300D097
:102EC00000D0CDB7DEB7DC010D90BC91A02DBE8344
:102ED000AD8318966D917C91072E000C880B990B91
:102EE0000E9416EC6B017C0120E030E0A9010E94F9
:102EF00010EC8823E1F0AD81BE8114968D919D91F7
:102F00000D90BC91A02D89839A83AB83BC839C01D7
:102F1000AD01C701B6010E94DEF24B015C0120E069
:102F200030E040E251EC0E9410EC87FF08C081E0E5
:102F3000ED81FE818387C12CD12C7601DCC020E09D
:102F400030E040E251E4C501B4010E9442F4181699
:102F500064F481E0AD81BE811B968C93C12CD12C91
:102F60008FE7E82E83E4F82EC6C0ED81FE818385CD
:102F7000882349F013861486158616861786148EC4
:102F8000158E168E178EAD81BE8194964D905D90F4
:102F90006D907C9097971C962D913D914D915C91F1
:102FA0001F97C501B4010E94DFF2F62EE72ED82E3E
:102FB000C92E20E030E0A9010E9410EC87FDB6C0C8
:102FC000A301920160E070E08FE793E40E9456F362
:102FD000162F072F382E292E2F2D3E2D4D2D5C2DEF
:102FE0000E9410EC87FF02C0780161018F2D9E2D99
:102FF000AD2DBC2DED81FE8184879587A687B7878F
:1030000020A131A142A153A1C501B4010E9475ECD8
:103010004B015C01AD81BE8154968D929D92AD9223
:10302000BC9257972F2D3E2D4D2D5C2DC301B20123
:103030000E9475EC2B013C01ED81FE81408E518E8A
:10304000628E738EC48CD58CE68CF78C29813A8184
:103050004B815C8160897189828993890E94DEF24B
:10306000AD81BE8198962D913D914D915C919B973C
:103070000E9475ECA70196010E94DEF220ED3CEC67
:103080004CE45DE30E9475ECA70196010E94DFF21B
:103090006B017C01ED81FE81C48ED58EE68EF78EAC
:1030A00089819A81AB81BC81808B918BA28BB38B00
:1030B000A3019201C501B4010E94DFF2A7019601AC
:1030C0000E94DFF220E030E0A9010E94DFF26B01F4
:1030D0007C0120E030E0A9010E9410EC87FD2BCF9D
:1030E00020E030E04FE753E4C701B6010E9442F40C
:1030F00018160CF433CFC701B60126960FB6F89414
:10310000DEBF0FBECDBFDF91CF911F910F91FF901A
:10311000EF90DF90CF90BF90AF909F908F907F9077
:103120006F905F904F903F902F900895F12CE12C7D
:10313000D12CC12C5BCFCF93DF93C091C515D0911B
:10314000C61581E0CE31D105E4F020E030E040E06A
:103150005FE36091C1157091C2158091C315909184
:10316000C4150E94DFF20E94BEF36C1B7D0B77FF3B
:1031700003C071956195710981E0633071050CF0B0
:1031800080E0DF91CF910895CF93DF93CCEDD3E131
:1031900020E030E040EA52E46091C1157091C21520
:1031A0008091C3159091C4150E9442F487FF13C00B
:1031B00080E0FE01C49120910B0190E002C0959542
:1031C0008795CA95E2F780FD0EC020722093090111
:1031D000DF91CF910895FE01949181E001C0880FA5
:1031E0009A95EAF7E6CF2095F0CFFC0190E1A3EEA7
:1031F000B6E001900D929A95E1F708958091FA1545
:103200009091FB15891B8F7019F490E080E0089570
:103210009091F715992351F0833030F48FEF890F97
:1032200019F08093F715F1CF1092F7158091FB15E7
:1032300024E6829FC00111248151964FFC01208118
:1032400020FDE3CF2091FB152F5F2F702093F81501
:103250003091FB152091F915321304C02091F81517
:103260002093F915089590916F0081E091FD02C0BF
:1032700080E0089590916F009D7F90936F00089576
:10328000FC017081472F50E0062E02C055954795EE
:103290000A94E2F740FF14C040916E0450E0062EFD
:1032A00002C0559547950A94E2F740FF09C021E016
:1032B00030E001C0220F6A95EAF72095272320838A
:1032C0000895ECE4F6E03AE0632F0E9491F2292F92
:1032D0000E9491F2905D9683205D278382E596E0BF
:1032E0000895982F4091CB0850E080E0282F082EB9
:1032F000000C330B2417350744F42453374FF901DE
:103300002081291719F08F5FF1CF8FEF0895CF93A8
:10331000DF93C0919915D0919A1581E0CE31D105F6
:10332000E4F020E030E040E05FE3609195157091BB
:10333000961580919715909198150E94DFF20E9442
:10334000BEF36C1B7D0B77FF03C07195619571090E
:1033500081E0633071050CF080E0DF91CF9108953A
:10336000CF93DF93EC018D810E941E8E60E08B81F4
:10337000DF91CF910C94B6CDDF92EF92FF920F9335
:103380001F93CF93DF938C01C62FD22FF32EE42E01
:10339000D52EE6DF0E9444CF8C2F80640E94128ECF
:1033A0008D2D0E94128E8E2D0E94128E8F2D0E94C6
:1033B000128E8D2F0E94128E87E8C11101C085E9FF
:1033C0000E94128ECC3011F40E94178EC0E00E9431
:1033D000178EF801868387FF04C0CF3F11F0CF5FBF
:1033E000F6CFDF91CF911F910F91FF90EF90DF907B
:1033F000089561E0FC0183810E94B6CD8FEF0C94AB
:10340000128E0F931F93CF938C01AADF0E9444CF9B
:10341000C82F882369F08DEF0E94128E0E9444CF3E
:10342000C82FC801E6DF8C2FCF911F910F9108950F
:1034300082E1F8018483F5CF8F929F92AF92BF9281
:10344000CF92DF92EF92FF920F931F93CF93DF9370
:10345000EC016A017B01590120E030E0A90167E33A
:103460008BDFA501980167E1CE0186DF811125C0C0
:103470008F81833039F089E0CC0CDD1CEE1CFF1C01
:103480008A95D1F7A701960169E1CE0175DF11E0B8
:10349000882319F010E087E08C83CE01AADF812F0A
:1034A000DF91CF911F910F91FF90EF90DF90CF9020
:1034B000BF90AF909F908F90089589E08C8310E02B
:1034C000ECCFCF93DF93EC016EBDFA01CA019E5F92
:1034D0000DB407FEFDCF20812EBD0DB407FEFDCF3C
:1034E00021812EBD3296E817F90791F70DB407FE3A
:1034F000FDCF8FEF0E94128E8FEF0E94128E0E94DE
:10350000178E8E838F71853041F083E18C83CE01DD
:1035100070DF80E0DF91CF91089581E0FBCF0F93C2
:103520001F93CF93DF93EC018B011ADF0E9444CFEE
:1035300081110BC085E18C8310E0CE015ADF812F11
:10354000DF91CF911F910F910895A8016CEFCE01EB
:10355000B8DF182F882371F3F0CF0F931F93CF9309
:10356000DF93EC0189018F81833039F089E0440FCA
:10357000551F661F771F8A95D1F79A01AB0168E145
:10358000CE01FADE811127C0A8016EEFCE0199DFCE
:10359000182F8823A9F00E9444CF182F8823C1F048
:1035A00020E030E0A9016DE0CE01E6DE882321F0C5
:1035B00086E18C8310E004C00E94178E8111F8CF41
:1035C000CE0117DF812FDF91CF911F910F910895C9
:1035D00087E18C83F5CF86E0ECCF1F93CF93DF9309
:1035E000EC01BEDE20E030E0A9016CE0CE01C4DEDB
:1035F00011E0882319F010E083E08C83CE01F9DE1E
:10360000812FDF91CF911F9108951F93CF93DF9367
:10361000EC018F81833039F089E0440F551F661F1C
:10362000771F8A95D1F79A01AB0162E1CE01A4DE42
:1036300011E0882319F010E085E08C83CE01D9DEFB
:10364000812FDF91CF911F9108958F929F92AF921A
:10365000BF92EF92FF920F931F93CF93DF938C0152
:10366000EB017A010E9475CE4B015C012CE2820EC7
:1036700021E0921EA11CB11C0E94178EF8018683C6
:103680008F3F69F40E9475CE681979098A099B09F0
:1036900097FDF2CF81E1F8018483C0E021C08E3F25
:1036A00069F5F1E0EF1AF1088FEF8EBDFE012FEF03
:1036B0000DB407FEFDCF8EB581932EBDCF018C1BBF
:1036C0009D0B8E159F05A0F30DB407FEFDCF8EB5A3
:1036D000CE0DDF1D88830E94178E0E94178EC1E0D9
:1036E000C80187DE8C2FDF91CF911F910F91FF9042
:1036F000EF90BF90AF909F908F9008958FE0CBCFC9
:103700000F931F93CF93DF93EC018B0129DE40E0F1
:1037100052E0B801CE01DF91CF911F910F9195CF6B
:103720000F931F93CF93DF93EC0189018F81833037
:1037300039F089E0440F551F661F771F8A95D1F72E
:103740009A01AB0161E1CE0117DE811109C040E0B1
:1037500052E0B801CE01DF91CF911F910F9175CF4B
:1037600084E08C83CE0145DE80E0DF91CF911F9114
:103770000F9108958F929F92AF92BF92CF92DF9256
:10378000EF92FF920F931F93CF93DF93EC01162FCD
:103790001F821C824B830E9475CE6B017C0120ED41
:1037A000C20E27E0D21EE11CF11CA89561E08B81BE
:1037B0000E94B6CD8B810E9420BF209A289A219A20
:1037C0002398229A81E00E941E8E85E08D830E94BC
:1037D0001E8E0AE08FEF0E94128E0150D9F7A89535
:1037E00020E030E0A90160E0CE01C6DD8E838130AB
:1037F00079F00E9475CE6C197D098E099F0997FD9D
:10380000EFCF81E08C83CE01F4DD1A8280E065C0C9
:10381000A8952AEA31E040E050E068E0CE01ACDD56
:10382000853031F581E08F83A8958F81812C912C93
:103830005401823029F4812C912CA12C80E4B82EE3
:1038400020E030E0A90167E3CE0196DDA5019401F7
:1038500069E2CE0191DD8E838823F1F00E9475CE5E
:103860006C197D098E099F0997FDEACF8AE0CACFBE
:1038700004E00E94178E8E830150D9F78A3A11F422
:1038800082E0D1CF0E9475CE6C197D098E099F0907
:1038900097FDBFCF82E0B6CF8F818230B9F420E0B0
:1038A00030E0A9016AE3CE0167DD882311F088E0EA
:1038B000A9CF0E94178E807C803C11F483E08F8317
:1038C0000E94178E0E94178E0E94178ECE0191DDE6
:1038D00081E08A83173070F41D83DF91CF911F91AF
:1038E0000F91FF90EF90DF90CF90BF90AF909F909F
:1038F0008F90089588E18C8389CF0F931F93CF9386
:10390000DF93EC018B0120E030E0A90169E034DDB8
:10391000811109C040E150E0B801CE01DF91CF91A3
:103920001F910F9192CE80E18C83CE0162DD80E009
:10393000DF91CF911F910F910895CF93DF93EDEB1E
:10394000F5E1C085D18564817581868197810E946A
:10395000BEF3AE0186EF95E0DF91CF910C94B16C90
:10396000EF92FF920F931F93CF937B018A01C2E4E2
:103970008F3F09F0C4E580E20E9450728C2F0E94B4
:1039800050728AE30E945072F701608171818281D6
:10399000938142E00E94DFC287E795E10E9457725F
:1039A000F801608171818281938142E00E94DFC2CF
:1039B00062E070E080E090E0CF911F910F91FF9066
:1039C000EF900C9442CE0F9300912B0521E002273B
:1039D00021E836E04CE050E0BC018FE796E00E9421
:1039E0008C700F9108950F9300912B0521E0022711
:1039F00021E836E044E050E0BC018FE796E00E9409
:103A00008C700F9108950F9300912B0521E00227F0
:103A100021E836E041E050E0BC018FE796E00E94EB
:103A20008C700F9108950F9300912B0521E00227D0
:103A300021E836E041E050E0BC018FE796E00E94CB
:103A40008C700F9108950F9300912B0521E00227B0
:103A500021E836E048E050E0BC018FE796E00E94A4
:103A60008C700F9108950F9300912B0521E0022790
:103A700021E836E04CE050E0BC018FE796E00E9480
:103A80008C700F9108950F9301E021E836E041E03A
:103A900050E0BC018FE796E00E948C700F91089572
:103AA0000F9301E021E836E042E050E0BC018FE7EF
:103AB00096E00E948C700F9108950F93AB010091D6
:103AC0002B0521E0022721E836E0BC018FE796E0D4
:103AD0000E948C700F91089521E836E04CE050E090
:103AE000BC018FE796E00C94C67921E836E044E00B
:103AF00050E0BC018FE796E00C94C67921E836E0EF
:103B000042E050E0BC018FE796E00C94C67921E8D2
:103B100036E041E050E0BC018FE796E00C94C679B6
:103B200021E836E041E050E0BC018FE796E00C94DC
:103B3000C67921E836E04CE050E0BC018FE796E022
:103B40000C94C679CF93C82FCB010E94577288E995
:103B500098E00E94577289E898E0CC2311F08EE833
:103B600098E0CF910C94347ACF93DF93EC01899154
:103B7000882319F00E94CA70FACFDF91CF9108957F
:103B8000CF93DF93EC01FE0184912196882319F0F5
:103B90000E94CA70F8CFDF91CF9108952F923F9283
:103BA0004F925F926F927F928F929F92AF92BF924D
:103BB000CF92DF92EF92FF920F931F93CF93DF93F9
:103BC000EC014B017A018B81811115C08FEF9FEFC2
:103BD000DF91CF911F910F91FF90EF90DF90CF90E9
:103BE000BF90AF909F908F907F906F905F904F901D
:103BF0003F902F900895898180FFE8CF89899A8925
:103C0000AB89BC89488559856A857B85841B950B62
:103C1000A60BB70BA70170E060E084179507A60715
:103C2000B70708F47C0167011E0124E0220E311C55
:103C3000C114D10409F4A9C0488559856A857B85DA
:103C40005A0181E0B822898D9A8D2A013B0129E031
:103C500076946794579447942A95D1F72B81FC0169
:103C6000223081F5628D738D848D958D640D751D67
:103C7000861D971D00E012E00A191B09C016D10627
:103C800008F486010115E2E01E0771F440905D150D
:103C900050905E1560905F15709060156415750505
:103CA0008605970509F04EC040E00E94D4D18823D4
:103CB00009F48CCFB501635A7C4EA801C4010E945F
:103CC000D9F452C0148111501421A114B10471F41B
:103CD00011110CC0452B462B472B51F58D899E8920
:103CE000AF89B88D8C839D83AE83BF83E98DFA8DB8
:103CF0004C805D806E807F8022E0421A510861080E
:103D00007108858504C0440C551C661C771C8A9577
:103D1000D2F786859785A089B189480E591E6A1EFB
:103D20007B1EC301B201610F711D811D911DA2CFC8
:103D30004C815D816E817F8191010E94F0D3811160
:103D4000D5CF44CFA0916215B0916315ED91FC9150
:103D500011970088F189E02D9401AB01BC01CD01E0
:103D60001995882309F432CF800E911E8885998594
:103D7000AA85BB85800F911FA11DB11D88879987DA
:103D8000AA87BB87C01AD10A53CFC70121CF0F938F
:103D90001F93CF93DF93FC012381222331F080E036
:103DA000DF91CF911F910F9108958B01EC01FB01E1
:103DB0008789803139F582E08B831D8A1E8A1F8AAC
:103DC000188E808D918DB0E0A0E025E0880F991FBE
:103DD000AA1FBB1F2A95D1F7898B9A8BAB8BBC8B03
:103DE0001A8F098F81E08983188619861A861B86A7
:103DF0001C821D821E821F82188A1C861D861E86BA
:103E00001F86CECF803259F683E08B83428D538D4F
:103E1000648D758D4D8B5E8B6F8B788F9E012F5EC1
:103E20003F4FC8010E9472D48111DACFB8CFCF932F
:103E3000DF93EC010E94DBD41B82DF91CF910895C8
:103E4000CF93DF93EC01462F41706C857D858E8585
:103E50009F850E94D4D1882351F0888920E2829FD7
:103E6000C0011124835A9C4EDF91CF91089590E0B8
:103E700080E0FACFCF93DF93EB01FC012381211186
:103E800004C080E0DF91CF9108952250223028F4C1
:103E90008FE28883198281E0F5CF60E0D1DF00975F
:103EA00081F3DC0160E080E09EE22D91203299F008
:103EB000883031F49E01260F311DF90190836F5F28
:103EC0009E01260F311DAD0141505109FA0140817B
:103ED000F90140836F5F8F5F8B3039F7FE01E60F8A
:103EE000F11D1082D8CF3F924F925F926F927F92D6
:103EF0008F929F92AF92BF92CF92DF92EF92FF92FA
:103F00000F931F93CF93DF93CDB7DEB72C970FB6E8
:103F1000F894DEBF0FBECDBF5C01DC0159968D90D9
:103F20009C90F40181859285A385B4859C01AD01A7
:103F30002F5F3F4F4F4F5F4F29873A874B875C87F3
:103F4000D50114964D905D906D907C90179741141B
:103F500051046104710409F459C0BFEF4B1A5B0AA4
:103F60006B0A7B0A312C730162011D821E821F8243
:103F70001886F40181859285A385B4852D813E81C3
:103F80004F815885281739074A075B0708F056C044
:103F900089859A85AB85BC858C159D05AE05BF05C9
:103FA00050F482E0C82ED12CE12CF12C92E0492E65
:103FB000512C612C712C9E012F5F3F4FB701A60140
:103FC000C4010E94F0D38823C9F189819A81AB8111
:103FD000BC81892B8A2B8B2B01F1260137019FEFA6
:103FE000491A590A690A790A2D813E814F815885FB
:103FF0002F5F3F4F4F4F5F4F2D833E834F83588737
:104000003FEFC31AD30AE30AF30AB3CF40805180CB
:104010006280738033243394A6CFC414D504E6049D
:10402000F70411F70FEF1FEF2FEF3FE0B701A601E5
:10403000C4010E945FD3782E81111AC0712C872D84
:104040002C960FB6F894DEBF0FBECDBFDF91CF9197
:104050001F910F91FF90EF90DF90CF90BF90AF90A6
:104060009F908F907F906F905F904F903F900895BA
:10407000F5014481558166817781411551056105BE
:10408000710539F097018601C4010E945FD388232E
:10409000A9F2D5011496CD92DD92ED92FC9217977C
:1040A000332051F0D701C6010196A11DB11DF401C5
:1040B00080839183A283B383F50185899689A7893B
:1040C000B08D892B8A2B8B2B09F0B9CFC58AD68A64
:1040D000E78AF08E818180688183B1CF40E050E033
:1040E000BA010C9428D5682F70E090E080E00C9421
:1040F00075C21F93CF93DF9300D000D01F921F9201
:10410000CDB7DEB7182F6091C5157091C615072E73
:10411000000C880B990B0E9416EC6D837E838F83B5
:1041200098878091C1159091C215A091C315B09147
:10413000C41589839A83AB83BC83AE014B5F5F4F09
:10414000BE016F5F7F4F80E80BDC60919915709125
:104150009A15072E000C880B990B0E9416EC6D83A4
:104160007E838F8398878091951590919615A09165
:104170009715B091981589839A83AB83BC83AE0160
:104180004B5F5F4FBE016F5F7F4F8FEFE9DB609149
:104190009B151F3F39F08CE21802F0011124E35403
:1041A000FA4E628570E08FE795E10E94BC746091E1
:1041B0009B1570E08AE795E10E94BC7428960FB6C3
:1041C000F894DEBF0FBECDBFDF91CF911F91089550
:1041D0000F930FB70F9300916E000D7F00936E0049
:1041E00078940F930BB70F930CB70F921F922F93E6
:1041F0003F934F935F936F937F938F939F93AF936F
:10420000BF93EF93FF93112463D6FF91EF91BF917A
:10421000AF919F918F917F916F915F914F913F915E
:104220002F911F900F900CBF0F910BBF0F91026049
:10423000F89400936E000F910FBF0F911895CF93D4
:10424000DF931092F505CDEBD5E11986188675DB65
:104250001A862C98C1E9D5E1198618860E94E56C6A
:104260001A8680910B01807180930901DF91CF91B3
:1042700008958F929F92AF92BF92CF92DF92EF926A
:10428000FF920F931F93CF93DF93B0E4A0E06A2FC8
:1042900070E0AB014B0F511D55954795411119C069
:1042A000EAE5F4E165917491072E000C880B990BF7
:1042B0000E9416ECDF91CF911F910F91FF90EF902C
:1042C000DF90CF90BF90AF909F908F900895B42FC4
:1042D000E0CFA41711F0B41303C0E6E5F5E1E2CF97
:1042E0009A0121503109220F331F220F331FF90188
:1042F000E85AFB4EE590F490F901E45AFB4EC59163
:10430000D4918E159F0518F3A42FC817D90708F468
:10431000BECFF901E65AFB4E05911491F901E25A1C
:10432000FB4EC590D4908E199F09BC0190E080E0AF
:104330000E9414EC4B015C01B601601B710B072E4F
:10434000000C880B990B0E9416EC9B01AC01C50177
:10435000B4010E9475EC4B015C01CE19DF09BE016E
:1043600090E080E00E9414EC9B01AC01C501B40117
:104370000E9456F36B017C01B801110F880B990B59
:104380000E9416EC9B01AC01C701B6010E94DFF24E
:1043900091CFBC012091D4063091D5064091D4062E
:1043A0005091D5062417350731F481E026173707D9
:1043B00009F080E008959A01F1CF6132710581051D
:1043C000910538F4E2EDFFE06591749190E080E0B2
:1043D0000895AB01BC0140525109610971094115B1
:1043E00028E0520761057105C8F024E0529FC00122
:1043F00011248E52944FFC01329625913491FC0188
:1044000085919491AA27439FF001429F000CE11DE2
:10441000FA1F11248E1B9F0BBC01D8CFDB01CA01F0
:10442000B695A795979587958C7F9C012E52304F16
:10443000F90185919491F9013296A591B491477053
:104440004A9F90014B9F300D112443E036952795EC
:104450004A95E1F7821B930BDFCF0F930FB70F93B2
:1044600000916E000F930D7F00936E0000916F001E
:104470000D7F00936F000F930BB70F930CB70F9244
:104480001F922F933F934F935F936F937F938F93DD
:104490009F93AF93BF93EF93FF931124A8D6FF91FF
:1044A000EF91BF91AF919F918F917F916F915F91AC
:1044B0004F913F912F911F900F900CBF0F910BBF09
:1044C0000F910260F89400936F000F9100936E00BB
:1044D0000F910FBF0F91189500008091630980FF25
:1044E00024C0899A8FEF80930E078091630981FF22
:1044F0001FC08F9A8FEF80930F078091630982FF0F
:104500001AC0439A80910B018095827080930901B3
:104510008FEF809310078091630983FF14C0169872
:104520008FEF8093110700000895899881E0DBCF19
:104530008F9881E0E0CF439880910B018270809347
:10454000090181E0E6CF169A81E0EBCF80912C053E
:10455000877F80932C05129A81E0089512988091AC
:104560002C05886080932C05089521E030E0082E0A
:1045700002C0220F331F0A94E2F7209530959091E4
:104580002C05292320932C05813061F020F0823006
:1045900071F081E008955F9A809176108E7F80930C
:1045A0007610F7CF8A9A809176108D7FF8CF479A50
:1045B000809108018095817080930601809176102A
:1045C0008B7FEDCF80E0D1DF81E0CFDF82E0CDDFF8
:1045D000BDCF813089F070F0823081F021E030E091
:1045E00001C0220F8A95EAF780912C05822B8093D7
:1045F0002C0508955F98F2CF8A98F0CF4798909154
:104600000801917090930601E9CFCF93DF9300D01A
:104610001F92CDB7DEB780915009882389F083E3DC
:1046200090E09C838B831A8219829E012F5F3F4FFB
:1046300040E150E061E579E0CE0103960E94C67941
:104640000F900F900F900F90DF91CF910895CF931F
:10465000DF9300D01F921F92CDB7DEB781E0809329
:10466000500980E1E1E5F9E0DF011D928A95E9F763
:10467000CCDF86E18D8382E390E09C838B831A827A
:1046800019829E012F5F3F4F41E050E0BE016B5FFA
:104690007F4FCE0103960E94C6790F900F900F9026
:1046A0000F900F90DF91CF910895843021E0920711
:1046B00014F084E091E09093C6158093C5150C9496
:1046C000D36CCF93DF9380918F04811119C0C09177
:1046D0001002D0911102219720E030E040E05FE32A
:1046E0006091C1157091C2158091C3159091C41548
:1046F0000E94DFF20E94BEF321E06C177D070CF0F0
:1047000020E0822FDF91CF910895AF92BF92CF9298
:10471000DF92EF92FF920F931F93CF93DF93C7E83F
:10472000D0E100EC19E087E9A82E80E1B82EC12C79
:10473000D12C7601C39469917991899199910E94C4
:1047400014EC288939894A895B890E9475EC0E949A
:10475000C3F3F80161937193819391938F01C6160E
:10476000D706E806F90610F46B017C01AC16BD060D
:1047700011F76FEF7FEFCB01A70196010E943AF28C
:104780002093D0093093D1094093D2095093D30993
:1047900023EF34E045E35FE36091BC097091BD090C
:1047A0008091BE099091BF090E9475EC2AE136EF15
:1047B00045E95EE30E9456F36B017C016091931022
:1047C0007091941080919510909196100E9414EC25
:1047D0009B01AC01C701B6010E9475EC0E947AF4FE
:1047E0006093D4097093D5098093D6099093D70923
:1047F000DF91CF911F910F91FF90EF90DF90CF90BD
:10480000BF90AF9008950F931F93CF93DF930BE961
:1048100010E1CDEDD9E0F801219131914191519113
:104820008F0160E070E080E89FE30E9456F3699397
:10483000799389939993F9E0CD3EDF0761F70E9460
:1048400063CADF91CF911F910F915FCF9091FA15BD
:104850008091FB15981306C0809178109091791083
:10486000892B21F080E00E94DC7DF0CF08959091AB
:10487000FA158091FB15981307C0809178109091DC
:104880007910892B09F49ECE80E00E94DC7DEFCF69
:10489000CF93DF9320919C04222379F0EC010E94B6
:1048A000F76C9B01AC01688579858A859B850E94A0
:1048B000DFF2688779878A879B87DF91CF91089598
:1048C000CF92DF92EF92FF928091B104882309F496
:1048D00057C0C090AD04D090AE04E090AF04F0900B
:1048E000B00420E030E0A901C701B6010E9410EC3D
:1048F000882309F445C020E030E040E05FE3C701D1
:10490000B6010E9475EC9B01AC010E9475EC2BED89
:104910003FE049E450E40E9475EC9B01AC0160E08B
:1049200070E080E89FE30E9456F36B017C01C09227
:104930008B04D0928C04E0928D04F0928E046091EE
:104940000E0270910F02072E000C880B990B0E942B
:1049500016EC2AE037ED43E25CE30E9475ECA70118
:1049600096010E9475EC60935402709355028093F7
:10497000560290935702FF90EF90DF90CF900895EA
:10498000C12CD12C80E8E82E8FE3F82ED0CF4F92A7
:104990005F926F927F928F929F92AF92BF92CF92CF
:1049A000DF92EF92FF920F931F93CF93DF93CDB7D8
:1049B000DEB76E970FB6F894DEBF0FBECDBF9E8FE9
:1049C0008D8F5B018A01FC01FF962081318142813C
:1049D00053812D833E834F835887CA01B9010E94BA
:1049E00014EC6B017C01D5012D913D914D915C91B1
:1049F0000E9475EC0E9443F32B013C01F8012081D9
:104A0000318142815381C701B6010E9475EC0E9439
:104A100043F34B015C01C301B2010E94C3F36987F8
:104A20007A878B879C87683771058105910540F4EB
:104A300028E730E040E050E029873A874B875C87E1
:104A4000C501B4010E94C3F369837A838B839C837D
:104A5000683771058105910540F488E790E0A0E092
:104A6000B0E089839A83AB83BC83AD8DBE8D959670
:104A70004D905D906D907C909897FD01E55BFF4FA8
:104A80006081718182819381611571058105910534
:104A900009F45BC10E9416EC6D877E878F87988B27
:104AA0009B01AC0160E070E080E89FE30E9456F358
:104AB00020E030E040E05FE30E9475EC4B015C01D8
:104AC000A7019601C701B6010E9475EC6B017C013C
:104AD00069817A818B819C810E9414EC9B01AC01DD
:104AE0000E9475EC9B01AC01C701B6010E94DEF289
:104AF000A50194010E9475EC6D8B7E8B8F8B988F36
:104B000069857A858B859C850E9414EC9B01AC019C
:104B10000E9475EC698B7A8B8B8B9C8B9B01AC0113
:104B2000C701B6010E94DEF2A50194010E9475EC56
:104B3000698F7A8F8B8F9C8F0E9443F30E94C3F3FF
:104B40006B017C016D897E898F89988D0E94EFF3BE
:104B50000E94C3F34B015C01D701C601880D991D6A
:104B6000AA1DBB1DA3019201281B390B4A0B5B0B2D
:104B7000DA01C901B7FF5DC0C301B2010E9414ECA4
:104B8000298D3A8D4B8D5C8D0E94DFF22D893E89F7
:104B90004F89588D0E94DEF220E030E040E05FE374
:104BA0000E9475EC0E9443F36B017C0120E030E031
:104BB000A9010E9442F418161CF0C12CD12C7601D8
:104BC000C701B6010E94C3F36B017C014C145D0464
:104BD0006E047F0410F473016201530142018C18CA
:104BE0009D08AE08BF08C701B6010E9414EC6D8392
:104BF0007E838F8398872D853E854F855889CA018E
:104C0000B9010E94DFF29B01AC016D817E818F8131
:104C100098850E9475EC29893A894B895C890E94A4
:104C2000DFF20E947AF40E94C3F36D837E838F8348
:104C30009887AD8DBE8D9996CD92DD92ED92FC92C6
:104C40009C97D301C20188199909AA09BB09ED8D66
:104C5000FE8D85A796A7A7A7B0ABED5BFF4F298573
:104C60003A854B855C852083318342835383ED8D68
:104C7000FE8DE95BFF4F89819A81AB81BC81808386
:104C80009183A283B383ED8DFE8D86A997A9A0ADF4
:104C9000B1AD892B8A2B8B2B09F440C061A172A185
:104CA00083A194A10E9414EC2091D8093091D909D4
:104CB0004091DA095091DB090E9475EC6B017C018F
:104CC000C301B2010E9414EC9B01AC01C701B60103
:104CD0000E9456F36B017C016D817E818F819885E6
:104CE0000E9414ECA70196010E9475EC0E94C3F388
:104CF000AD8DBE8DDC967C936E93DB9769817A8156
:104D00008B819C810E9414ECA70196010E9475EC96
:104D10000E94C3F3ED8DFE8D76AF65AF6E960FB634
:104D2000F894DEBF0FBECDBFDF91CF911F910F91E1
:104D3000FF90EF90DF90CF90BF90AF909F908F90BB
:104D40007F906F905F904F900895812C912C54012B
:104D5000C12CD12C76016DCFEFE6F0E0808182602E
:104D600080830895CF93C82F0E94331994E0C99F80
:104D700090011124F901E952F94F2D51394FD90110
:104D80004D915D916D917C914083518362837383DA
:104D900091E09093D606882311F0CF91DDCFCF918B
:104DA0000895CF93DF9380916209811105C08091AE
:104DB0006409882309F489C080911207659979C034
:104DC000816080931207909109018091120797FDED
:104DD00072C082608093120790910901809112073E
:104DE00096FF6BC0846080931207809112074B9BE3
:104DF00066C088608093120780911207649B61C02F
:104E0000806180931207C091C706C0FF0FC08091D8
:104E1000630980FF0BC08091120780FF07C080915B
:104E2000771081608093771080E09CDFC1FF0FC016
:104E30008091630981FF0BC08091120781FF07C039
:104E40008091771082608093771081E08BDFC2FFC2
:104E50003CC08091630982FF38C080916409811150
:104E600017C09091120792FB882780F993FF2BC0FF
:104E700092E0892B69F0909177109460909377106D
:104E80009091EC05992311F0833011F482E06ADFF0
:104E9000809164098823C9F08091120784FF15C0AE
:104EA0008091771080618093771082E0DF91CF91BD
:104EB00059CF8E7F86CF8D7F8DCF8B7F94CF877F8D
:104EC00099CF8F7E9ECF90E0D4CFDF91CF91089580
:104ED0001F93CF93DF93809125028F3708F4E0C0B2
:104EE0008F579091C71590931807992309F4D6C04E
:104EF0002C9A20919B152093170790910B0121115B
:104F00009095907190930901909102012091F00584
:104F10002093160721119095907190930001209194
:104F2000EF0530E035952795209315079091020104
:104F3000232B09F090959074909300018F5F8093DC
:104F400025028091140791E08927809314078091AE
:104F50002402980F85300CF090E0823009F40EC1E5
:104F60000CF0BEC0882309F4D3C0813009F4FAC024
:104F700090932402C091ED05D091EE05209709F49D
:104F80007DC0F89416B1187082E023DB00001C1677
:104F90001D060CF422C1439A80910B011C161D06BC
:104FA0000CF0809582708093090100008091EC05DF
:104FB000882309F414C18091120782FF04C08091F4
:104FC000100787FD05C08091EB05811101C0419A52
:104FD0008091120783FF04C08091100787FD0AC0EB
:104FE0008091EA05811106C080910B01809588703F
:104FF0008093090100C000008EE090E00197F0F777
:105000008091EC05882309F4ECC08091120782FF9F
:1050100004C08091100787FD05C08091EB058111C8
:1050200001C041988091120783FF04C0809110074E
:1050300087FD09C08091EA05811105C080910B01AF
:105040008870809309010000112309F4CCC0439AB1
:1050500080910B01111180958270809309010000ED
:1050600078948091ED059091EE051C161D060CF0CC
:10507000BCC001979093EE058093ED0592DE809180
:10508000781090917910009729F0019790937910FA
:1050900080937810DF91CF911F9108952C9829CF9C
:1050A00090911807891708F02C9890911707891785
:1050B00028F090910B019071909309019091150740
:1050C000891728F0909102019074909300019091BB
:1050D0001607891708F432CF9091020190712CCFF6
:1050E000843009F463C00CF45CC0853009F040CF13
:1050F00020911307211102C0809313078091130799
:10510000815080931307882309F432CF95E030CF84
:10511000809123028F5F80311CF48093230228CF7B
:105120001092230280910D07811113C02091BD15AB
:105130003091BE153093C0152093BF152091911565
:1051400030919215309394152093931581E08093BC
:105150000D071092BE151092BD1510929215109267
:10516000911506CF88E080937B0085E480937C00D6
:1051700080917A00806480937A00FACE80917A00E0
:1051800086FD27C040917800509179002091BD158F
:105190003091BE15240F351F3093BE152093BD15D9
:1051A000E7CE88E080937B0086E4E0CF80917A00B0
:1051B00086FD11C0409178005091790020919115A1
:1051C00030919215240F351F30939215209391152D
:1051D000CFCE92E0CDCE94E0CBCE4398DDCE419AB7
:1051E00003CF41982BCF439833CF019643CF2F92D3
:1051F0003F924F925F926F927F928F929F92AF9267
:10520000BF92CF92DF92EF92FF920F931F93CF93B3
:10521000DF938FEF9FEF90938900809388000AE0DF
:10522000312C212C78948091D0069091D106A091B8
:10523000D206B091D306892B8A2B8B2B09F040C262
:105240008091D606882379F18091D4069091D50675
:105250001092D606892B09F433C21092D50610920B
:10526000D4061092C7069091FA158091FB159817F5
:1052700031F08091FB158F5F8F708093FB15442474
:105280004A94542C320140921F02509220026092A4
:1052900021027092220240921B0250921C026092E4
:1052A0001D0270921E028091D4069091D506892B22
:1052B00009F406C24091CC065091CD066091CE060D
:1052C0007091CF068091C8069091C906A091CA0638
:1052D000B091CB06481759076A077B0708F0F0C161
:1052E000C090B309D12CF12CE12C841B950BA60B9B
:1052F000B70BC816D906EA06FB0610F4D701C6019B
:10530000282F840F951FA61FB71F8093CC0690935C
:10531000CD06A093CE06B093CF06C1E0C0908B0619
:10532000D0908C06E0908D06F0908E0680919B06C2
:1053300090919C06A0919D06B0919E06C80ED91E24
:10534000EA1EFB1EC0929B06D0929C06E0929D0630
:10535000F0929E06F7FC18C080918706909188060F
:10536000A0918906B0918A0636014701681A790A28
:105370008A0A9B0AD401C30180939B0690939C06E2
:10538000A0939D06B0939E0640918F065091900683
:10539000609191067091920680919F069091A0066F
:1053A000A091A106B091A206480F591F6A1F7B1F4A
:1053B00040939F065093A0066093A1067093A206A7
:1053C00077FD18C08091870690918806A091890684
:1053D000B0918A064A015B01881A990AAA0ABB0A97
:1053E000D501C40180939F069093A006A093A106C7
:1053F000B093A2068090930690909406A090950694
:10540000B09096068091A3069091A406A091A5065F
:10541000B091A606880D991DAA1DBB1D8093A306F9
:105420009093A406A093A506B093A606B7FD18C056
:105430008090870690908806A0908906B0908A0692
:105440002C013D01481859086A087B0853014201A4
:105450008092A3069092A406A092A506B092A606FA
:1054600040909706509098066090990670909A0622
:105470008090A7069090A806A090A906B090AA06D2
:10548000840C951CA61CB71C8092A7069092A806B7
:10549000A092A906B092AA06B7FC36C04090870633
:1054A000509088066090890670908A068418950846
:1054B000A608B7088092A7069092A806A092A9060F
:1054C000B092AA06E091D406F091D50686A897A8D6
:1054D000A0ACB1AC31E089288A288B28B1F080904B
:1054E000B7069090B806A090B906B090BA0631E021
:1054F000831A9108A108B1088092B7069092B80665
:10550000A092B906B092BA0630E0C11104C0E09191
:105510008400F0918500F7FC1CC040900E07042C1D
:10552000000C5508660877088090E3069090E40622
:10553000A090E506B090E606840C951CA61CB71C4E
:105540008092E3069092E406A092E506B092E60609
:10555000889A77FD1CC040900F07042C000C55085A
:10556000660877088090E7069090E806A090E90624
:10557000B090EA06840C951CA61CB71C8092E70626
:105580009092E806A092E906B092EA068E9AB7FDDC
:105590003CC0E09110074E2E0E2E000C55086608F8
:1055A00077088090EB069090EC06A090ED06B09006
:1055B000EE06840C951CA61CB71C8092EB069092FC
:1055C000EC06A092ED06B092EE06F091EC05FF23FA
:1055D00009F4FFC0F0911207F2FF02C0E7FD05C019
:1055E000F091EB05F11101C0419AF0911207F3FF20
:1055F00002C0E7FD0AC0E091EA05E11106C0E091B2
:105600000B01E095E870E09309013323E1F040904D
:105610001107042C000C5508660877088090EF06E7
:105620009090F006A090F106B090F206840C951CC4
:10563000A61CB71C8092EF069092F006A092F1068D
:10564000B092F206149AE0918400F0918500E09106
:105650008400F0918500F7FE889877FF8E98B7FD5B
:1056600023C08091EC05882309F4B5C0809112070E
:1056700082FF04C08091100787FD05C08091EB0573
:10568000811101C041988091120783FF04C080916D
:10569000100787FD09C08091EA05811105C080913E
:1056A0000B0188708093090131111498222321F095
:1056B00080918400909185002150C0E009F02ECEA9
:1056C00080911F0290912002A0912102B0912202AC
:1056D0000097A105B10509F080C04091AB0650913B
:1056E000AC066091AD067091AE06809183069091F4
:1056F0008406A0918506B0918606840F951FA61F8B
:10570000B71F8093AB069093AC06A093AD06B09301
:10571000AE06B7FD4DC040911107042E000C550B8D
:10572000660B770BC090EF06D090F006E090F10684
:10573000F090F206C40ED51EE61EF71EC092EF06CC
:10574000D092F006E092F106F092F206C090B70611
:10575000D090B806E090B906F090BA064C0D5D1DE9
:105760006E1D7F1D4093B7065093B8066093B9062F
:105770007093BA0640918706509188066091890619
:1057800070918A06841B950BA60BB70B8093AB0612
:105790009093AC06A093AD06B093AE06149A809198
:1057A00084009091850080918400909185001498E8
:1057B00080911B0290911C02A0911D02B0911E02CB
:1057C00080931F0290932002A0932102B0932202A3
:1057D00009C0419A14CF419862CF8F3F9F4FAF4F7E
:1057E000BF4F31F38091D0069091D106A091D2069F
:1057F000B091D306892B8A2B8B2B09F0F5C2E0914F
:10580000D406F091D506309709F48CC08091CC066F
:105810009091CD06A091CE06B091CF064091C806DA
:105820005091C9066091CA067091CB0684179507FE
:10583000A607B70708F47DC080911602882309F4F3
:105840004CC085899689A789B08D892B8A2B8B2B93
:10585000A1F4818D928DA38DB48D892B8A2B8B2BF6
:1058600061F4858D968DA78DB0A1892B8A2B8B2B0A
:1058700021F480912608882381F161A172A183A17E
:1058800094A1C0902D05D0902E05E0902F05F090AA
:10589000300525A923FF07C09095809570956195E7
:1058A0007F4F8F4F9F4F0E9416EC2091E909309156
:1058B000EA094091EB095091EC090E9475EC9B01BB
:1058C000AC01C701B6010E94DEF260932D05709312
:1058D0002E0580932F05909330051092D5061092D7
:1058E000D4061092C7069091FA158091FB1598176F
:1058F00031F08091FB158F5F8F708093FB156FEFF8
:105900007FEFCB0160931F027093200280932102EE
:105910009093220260931B0270931C0280931D02DD
:1059200090931E0280EDC82E87E0D82EE12CF12C3A
:10593000C4C04091C3065091C4066091C5067091E1
:10594000C606481759076A077B0708F4B4C2809156
:10595000BF069091C006A091C106B091C20641A9B0
:1059600052A963A974A9CC27859FD12D969F900138
:10597000A69F300DA59F200D311D869FD00D211DA6
:105980003C1F959FD00D211D3C1FA49FD00D211DB4
:105990003C1F949FD10D2C1F3C1F789FDD0F201DB5
:1059A000311D799F300D1124DF01AD5BBF4F8D910B
:1059B0009D910D90BC91A02D820F931FA11DB11D33
:1059C0008093BB069093BC06A093BD06B093BE0621
:1059D000FF964081518162817381481759076A0798
:1059E0007B0740F44093BB065093BC066093BD0612
:1059F0007093BE066091BB067091BC068091BD0697
:105A00009091BE060E9492CD6B017C018091BF06F1
:105A10009091C006A091C106B091C2068C0D9D1D4B
:105A2000AE1DBF1D8093BF069093C006A093C10614
:105A3000B093C206C091D406D091D5064EA95FA9F5
:105A400068AD79AD4115510561057105B1F18BADB9
:105A50009CADB0E0A0E08090B7069090B806A09012
:105A6000B906B090BA0688169906AA06BB061CF0BD
:105A700040E050E0BA018091BB069091BC06A09135
:105A8000BD06B091BE062A013B01480E591E6A1E92
:105A90007B1EC301B2010E94DD212AAD04C0660F46
:105AA000771F881F991F2A95D2F760931B02709366
:105AB0001C0280931D0290931E028091D406909147
:105AC000D506892B09F088C10E94FE189093D5064F
:105AD0008093D406892B09F47FC1C091D406D0915C
