:100000000C949C170C94DC170C94DC170C94DC17E4
:100010000C94DC170C94DC170C94DC170C94DC1794
:100020000C94DC170C94DC170C94DC170C94DC1784
:100030000C94DC170C943CCC0C94DC170C94DC175F
:100040000C94DC170C94FA220C94DC170C94DC173B
:100050000C94DC170C9405220C94DC170C94F2CB56
:100060000C94DC170C94C9840C94BF840C94DC179A
:100070000C94DC170C94DC170C94DC170C94DC1734
:100080000C94DC170C94DC170C94DC170C94DC1724
:100090000C94DC170C94DC170C94DC170C94DC1714
:1000A0000C94DC170C94DC170C94DC170C94DC1704
:1000B0000C94DC170C94DC170C94DC170C94DC17F4
:1000C0000C94DC170C94DC170C94DC170C94DC17E4
:1000D0000C94DC170C94DC170C94E1700C94AB704E
:1000E0000C94DC174E414E494E495459494E46CD69
:1000F000CCCC3D0AD7233C17B7D13877CC2B3295DF
:1001000095E6241FB14F0A000020410000C84200BC
:10011000401C4620BCBE4CCA1B0E5AAEC59D740086
:10012000407A10F35A00A0724E18090010A5D4E8C6
:100130000000E87648170000E40B54020000CA9A59
:100140003B000000E1F505000080969800000040AB
:10015000420F000000A086010000001027000000F0
:1001600000E803000000006400000000000A000036
:100170000000000100000000002C76D888DC674FEA
:100180000823DFC1DFAE59E1B1B796E5E3E453C61A
:100190003AE651997696E8E6C28426EB898C9B6212
:1001A000ED407C6FFCEFBC9C9F40F2BAA56FA5F4BC
:1001B00090055A2AF75C936B6CF9676DC11BFCE0E4
:1001C000E40D47FEF520E6B500D0ED902E03009437
:1001D0003577050080841E080000204E0A000000CC
:1001E000C80C333333330F986E12831141EF8D21D6
:1001F00014893BE65516CFFEE6DB18D1844B381B3D
:10020000F77C1D901DA4BBE424203284725E228101
:1002100000C9F124ECA1E53D274361703A00203B81
:100220000020204D3835312058005A2D50726F6211
:1002300065204F666673657400526573756D696EEF
:1002400067205344002569730025696D2025697373
:10025000002569682025696D20256973002569647A
:10026000202569682025696D202569730025697935
:1002700020256964202569682025696D202569731A
:10028000000A53746174733A2046696C616D656E3F
:100290007420757365643A20002C204C6F6E67657E
:1002A0007374206A6F623A2000546F74616C20741A
:1002B000696D653A200053746174733A20002C20F4
:1002C0004661696C65643A20002C2046696E69734A
:1002D0006865643A20005072696E74733A20005366
:1002E000746174733A2000436F6F6C696E672E2ED1
:1002F0002E0045312025530020573A0042656420E6
:10030000436F6F6C696E672E2E2E00426564204825
:10031000656174696E672E2E2E0023646566696EB2
:10032000652044454641554C545F000062656400B9
:100330004B6420004B6920004B7020005049442042
:1003400074756E696E6720646F6E65002066696EF5
:100350006973686564212050757420746865206C29
:10036000617374204B702C204B6920616E64204BAC
:100370006420636F6E7374616E74732066726F6D48
:100380002062656C6F7720696E746F20436F6E66B4
:10039000696775726174696F6E2E680A005049440E
:1003A000204175746F74756E6500206661696C65B7
:1003B00064212074696D656F75740A00504944208A
:1003C0004175746F74756E65004175746F74756EE8
:1003D00065206661696C6564212054696D656F757F
:1003E000742E00206661696C6564212054656D700F
:1003F0006572617475726520746F6F2068696768D3
:100400000A00504944204175746F74756E65005040
:100410004944204379636C65730025532025692F77
:10042000256900204B643A2000204B693A200020C7
:100430004B703A200020436C61737369632050490C
:1004400044200A00204E6F206F76657273686F6FCC
:10045000740A002054753A2000204B753A20002081
:100460006D61783A2000206D696E3A200020643A70
:10047000200020626961733A200048656174696EEA
:10048000672E2E2E002073746172740A0050494446
:10049000204175746F74756E65004175746F747565
:1004A0006E65206661696C6564212054656D7065B8
:1004B00072617475726520746F6F20686967682E49
:1004C00000206661696C6564212054656D706572F9
:1004D000617475726520746F6F20686967680A00BF
:1004E000504944204175746F74756E6500504944DD
:1004F000204175746F74756E6500206661696C6566
:1005000064212042616420686561746572206964B9
:100510000A00504944204175746F74756E65004639
:10052000696C616D656E745F72756E6F7574004590
:100530004550524F4D5F7665725F77726F6E670000
:10054000506F7765725F6661696C757265005344C0
:100550005F636172645F6572726F720041626E6F99
:10056000726D616C5F686F74656E645F74656D70E9
:100570000041626E6F726D616C5F6265645F74658D
:100580006D7000322E312E322E31004A333320006E
:100590004A303200204D00204820004137562000CC
:1005A000413656202D2D2D004136562000205A3A36
:1005B000200020593A200041355620583A20004169
:1005C000345620004133562000413256200041313C
:1005D00056200041305620004D323520500A4D3211
:1005E0003400526573756D6500554920506175730F
:1005F0006500726573756D65004D32340063616E20
:1006000063656C005072696E742041626F7274652C
:1006100064004469736D6973730055492041626FCA
:10062000727465640043616E6E6F7420656E7465EC
:1006300072207375626469723A20004A3231004A4E
:100640003231004A3230004A3132004739310A47EC
:100650003025730A473930004732385A004732385C
:10066000590047323858004132305620004A313262
:10067000004D31303030004A3034004D31303030B0
:100680002043004A3136004D313030302043004A9B
:100690003136004A3035004A3236004D3530310AA5
:1006A0004D34323020533100413331562000413334
:1006B000315620004133315620004D657368206368
:1006C00068616E6765732073617665642E004D35D1
:1006D0003030004D657368206368616E6765732014
:1006E0006162616E646F6E65642C207072657669FC
:1006F0006F7573206D65736820726573746F7265B2
:10070000642E004D3530310A4D34323020533100E3
:100710004A3236004732380A473239004A32360008
:100720004A323400473238004132395620004E6593
:1007300077205446542070616E656C206465746542
:100740006374656421005374616E64617264205443
:1007500046542070616E656C2064657465637465D1
:100760006421004A3039004A303700426564207401
:10077000656D702061626E6F726D616C21203A2030
:10078000004A313000457874727564657220746572
:100790006D702061626E6F726D616C21203A200075
:1007A0004A3130004A31380046696C616D656E74BB
:1007B0002050757267696E672E2E2E004A31380000
:1007C0005265686561742066696E69736865642E38
:1007D000004A3138004865617465722054696D655E
:1007E0006F7574004A3138004E6F7A7A6C6520500C
:1007F00061726B6564005072696E7420506175732C
:100800006564002E2E202020202020202020202063
:10081000202020202020202E67636F646500454E35
:100820004400464E20004A313400486F6D696E67BF
:10083000204661696C6564006F70656E00545249B2
:10084000474745524544003A200066696C616D6532
:100850006E74007A5F70726F6265007A325F6D69E4
:100860006E007A5F6D696E00795F6D696E00785F0A
:100870006D696E005265706F7274696E6720656E87
:100880006473746F70207374617475730A002074DC
:100890006F6F206C6F6E6720657874727573696F07
:1008A0006E2070726576656E7465640A0020636FF1
:1008B0006C6420657874727573696F6E20707265F0
:1008C00076656E7465640A00000084C1000090C003
:1008D000000000005761726E696E673A20486F6DC4
:1008E000696E672042756D702044697669736F7216
:1008F000203C20310A000404040000D2430000CD53
:10090000430080E3430000A0400000A0400000003E
:100910004000000001000000010000800055555516
:10092000000000400033333300AAAA2A0049922471
:100930000000002000C7711C0099991900D14517CB
:1009400000555515003BB113002449120011111137
:1009500000000010000F0F0F00E3380E0043790D68
:1009600000CCCC0C00C3300C00E8A20B0064210BBF
:1009700000AAAA0A00703D0A009DD80900427B091E
:100980000092240900DCD30800888808001042087F
:100990000000000800F0C1070087870700755007B6
:1009A00000711C07003EEB0600A1BC060069900622
:1009B0000066660600703E06006118060017F40522
:1009C0000074D105005BB00500B2900500627205AD
:1009D000005555050078390500B81E0500050505C8
:1009E000004EEC040087D40400A1BD040090A704CD
:1009F0000049920400C17D0400EE690400C756045A
:100A000000444404005C3204000821040041100446
:100A100000000004003FF00300F8E0030026D203CA
:100A200000C3C30300CCB503003AA803000A9B032C
:100A300000388E0300C08103009F750300D0690356
:100A400000505E03001D53030034480300913D0332
:100A5000003333030016290300381F0300971503E2
:100A600000300C0300030303000BFA020049F102FB
:100A700000BAE802005CE002002DD802002DD0028E
:100A80000059C80200B0C0020031B90200DAB10258
:100A900000AAAA0200A0A30200BC9C0200FA9502D0
:100AA000005C8F0200DF88020082820200457C0227
:100AB000002776020027700200436A02007C64026D
:100AC00000D05E02003F590200C8530200FFFDFC47
:100AD000FAF8F6F4F2F0EEECEAE9E7E5E3E1E0DE5D
:100AE000DCDAD9D7D5D4D2D0CFCDCBCAC8C7C5C30D
:100AF000C2C0BFBDBCBAB9B7B6B4B3B2B0AFADAC8B
:100B0000AAA9A8A6A5A4A2A1A09E9D9C9A999897DF
:100B100095949392908F8E8D8B8A89888786848313
:100B20008281807F7E7D7B7A797877767574737227
:100B300071706F6E6D6C6B6A69686766656463621D
:100B400061605F5E5D5C5B5A595858575655545307
:100B5000525150504F4E4D4C4B4A4A4948474646D9
:100B6000454443424241403F3E3E3D3C3B3B3A3997
:100B7000383837363535343332323130302F2E2E47
:100B80002D2C2B2B2A2929282727262525242323EA
:100B900022212120201F1E1E1D1C1C1B1B1A19197F
:100BA0001818171616151514131312121111100F09
:100BB0000F0E0E0D0D0C0C0B0A0A09090808070789
:100BC000060605050404030302020100004A313849
:100BD000004A3034000000CD430000CD430080E3E4
:100BE00043000020C10000000000000000536574B5
:100BF00074696E67732053746F72656400290A000C
:100C00002062797465733B206372632000536574BE
:100C100074696E67732053746F7265642028004591
:100C20004550524F4D20496E697469616C697A650F
:100C3000640A0048617264636F6465642044656699
:100C400061756C742053657474696E6773204C6FA2
:100C5000616465640020286D6D2900203B204C658F
:100C600076656C696E67200020204D343230205349
:100C7000004175746F20426564204C6576656C692F
:100C80006E6700203B2053656E736F722000204416
:100C90000020204D34313220530046696C616D656F
:100CA0006E742072756E6F75742073656E736F72DB
:100CB00000204A00202047323920572049002020B8
:100CC0004D3134392043203B20556E6974732069BF
:100CD0006E2043656C736975730A0054656D7065A9
:100CE00072617475726520556E69747300202047B7
:100CF0003231203B004C696E65617220556E69741B
:100D00007300454550524F4D206461746173697A98
:100D100065206572726F722E0A004572723A204524
:100D20004550524F4D2043524300202863616C636D
:100D3000756C6174656429210A0020213D200045FD
:100D40004550524F4D20435243206D69736D61747D
:100D50006368202D202873746F7265642920004514
:100D60004550524F4D20436F72727570740A0020C7
:100D700053697A653A2000496E6465783A200053D9
:100D8000746F7265642073657474696E6773207222
:100D9000657472696576656400290A002062797459
:100DA00065733B2063726320002073746F72656407
:100DB0002073657474696E677320726574726965F7
:100DC0007665642028000000614300003443000081
:100DD000C841000034420000A0420000C8420000A8
:100DE000C8439AD9CF43DC050000DC05000064004D
:100DF0000000B80B0000204D61726C696E3D5638E2
:100E000038290A00454550524F4D20766572736966
:100E10006F6E206D69736D6174636820284545505D
:100E2000524F4D3D0020436F756E7420583A0000BC
:100E3000426564004531004500626564002C207302
:100E4000797374656D2073746F70706564212048C8
:100E500065617465725F49443A20004572723A20B8
:100E60004D415854454D50004D415854454D50202A
:100E70007472696767657265640048656174696E5C
:100E800067204661696C65640048656174696E67D6
:100E9000206661696C6564004D353234004D313136
:100EA000322053687574646F776E0070012C019066
:100EB000012701B0012201C0011D01F0011801103C
:100EC00002130130020E016002090190020401C008
:100ED00002FF000003FA004003F5008003F000D099
:100EE00003EB002004E6007004E100E004DC0040B5
:100EF00005D700C005D2004006CD00D006C800804E
:100F000007C3003008BE00F008B900C009B400B043
:100F10000AAF00B00BAA00D00CA500000EA0005034
:100F20000F9B00C01096005012910000148C00C05E
:100F3000158700B0178200B0197D00D01B78000023
:100F40001E730040206E0090226900F0246400406F
:100F5000275F0090295A00E02B5500102E500020EA
:100F6000304B0010324600E033410090353C001019
:100F700037370070383200A0392D00B03A2800A071
:100F80003B2300603C1E00103D1900903D140010F2
:100F90003E0F00703E0A00C03E0500003F000040CA
:100FA0003FFBFF803FF6FFC03FF1FF4572723A20E2
:100FB0004D494E54454D50004D494E54454D5020DD
:100FC00074726967676572656400202F0020424073
:100FD0003A0020403A0020573A007C3C3E5E2B3DD0
:100FE0003F2F5B5D3B2C2A225C00434F4D4D554EFD
:100FF00049434154494F4E0044525952554E0045C1
:1010000052524F525300494E464F004543484F00FD
:101010004572726F722077726974696E6720746F9F
:1010200020454550524F4D210A0053544F505045D2
:10103000442E20005072696E7465722073746F7054
:101040007065642064756520746F206572726F72BC
:10105000732E2046697820746865206572726F72FD
:1010600020616E6420757365204D39393920746FA5
:1010700020726573746172742E202854656D7065DA
:101080007261747572652069732072657365742E60
:1010900020536574206974206166746572207265DE
:1010A0007374617274696E67290A004E6F20436819
:1010B00065636B73756D2077697468206C696E6504
:1010C000206E756D6265722C204C617374204C69C2
:1010D0006E653A20004E6F20436865636B73756DD3
:1010E0002077697468206C696E65206E756D626525
:1010F000722C204C617374204C696E653A20006339
:101100006865636B73756D206D69736D6174636879
:101110002C204C617374204C696E653A20004C6938
:101120006E65204E756D626572206973206E6F74F6
:10113000204C617374204C696E65204E756D62653C
:10114000722B312C204C617374204C696E653A20EF
:10115000004D3131300053657269616C20737461E8
:10116000747573206D69736D617463680A0053440C
:101170002072656164206572726F720A00746F6F0D
:10118000206D75636820696E61637469766520748B
:10119000696D65202D2063757272656E7420636FB2
:1011A0006D6D616E643A20002121204B494C4C202A
:1011B0006361757365642062792000486F74656EA1
:1011C000642049646C652054696D656F75740048CE
:1011D0006F74656E642049646C652054696D656F39
:1011E00075740A00627573793A207061757365646D
:1011F00020666F7220696E7075740A00627573796B
:101200003A2070617573656420666F72207573652E
:10121000720A00627573793A2070726F6365737336
:10122000696E670A004A3032004A3031004A303075
:10123000004D313030305300506F776572204F755C
:1012400074616765004A3233004A31350070617558
:101250007365004D363030002066696C616D656ED7
:10126000745F72756E6F7574200066696C616D6570
:101270006E745F72756E6F757420540046696C6190
:101280006D656E7452756E6F75742054004A3131FD
:1012900000706F7765726F6666005072696E746574
:1012A000722068616C7465642E206B696C6C2829EF
:1012B0002063616C6C6564210A006563686F3A00A5
:1012C0004572726F723A0042696C696E6561722094
:1012D0004C6576656C696E6720477269643A0A00EE
:1012E0002F2F616374696F6E3A006E6F746966695F
:1012F000636174696F6E2000626567696E00656E78
:10130000640073686F7700627574746F6E00486F65
:1013100074656E6420746F6F20636F6C640A005391
:10132000656E64204D31303820746F20726573759E
:101330006D650A00496E736572742066696C616D33
:10134000656E7420616E642073656E64204D31306B
:10135000380A0052656865617420446F6E650052FA
:101360006568656174696E672E2E2E00526568652A
:101370006174004865617465722054696D656F75AC
:10138000740053656E64204D31303820746F2068CE
:10139000656174206E6F7A7A6C650A004E6F7A7A96
:1013A0006C65205061726B65640070617573656473
:1013B00000486561642063616E6E6F742062652011
:1013C0007061726B6564005061757365007265735E
:1013D000756D656400526573756D696E6700426571
:1013E00064204C6576656C696E6720004661696CA7
:1013F000656420746F20656E61626C65204265646F
:10140000204C6576656C696E670A00496E76616C82
:101410006964206D6573682E0A0047323700507288
:101420006F62696E6720506F696E740025532025C6
:10143000692F2569002E0A002F0050726F62696EB5
:1014400067206D65736820706F696E7420002028B6
:1014500044525952554E2900473239204175746F14
:1014600020426564204C6576656C696E67003F209C
:10147000284C2C522C462C4229206F7574206F6604
:1014800020626F756E64732E0A003F2856296572BC
:10149000626F7365206C6576656C20696D706C6138
:1014A000757369626C652028302D34292E0A00423C
:1014B0006164205A2076616C75650A004E6F206267
:1014C000696C696E65617220677269640A004163C4
:1014D0006375726163792044656372656173696ED7
:1014E00067210044656372656173696E67204163BB
:1014F0006375726163792044657465637465642EF5
:101500000A004732385A0041636375726163793A61
:101510002000206F66200044696420004733342097
:1015200061626F727465642E0A0041636375726153
:101530006379204163686965766564005461726708
:1015400065742061636375726163792061636869A2
:10155000657665642E0A00313A323D2573000A5AD9
:10156000322D5A313D0050726F62696E67204661BC
:10157000696C65640050726F62696E6720666169AC
:101580006C65640A0047333420497465726174697C
:101590006F6E3A202569000A47333420497465721A
:1015A0006174696F6E3A20003F2841296D706C6943
:1015B0006669636174696F6E206F7574206F662051
:1015C000626F756E64732028302E352D322E3029CF
:1015D0002E0A003F28542961726765742061636395
:1015E0007572616379206F7574206F6620626F7504
:1015F0006E64732028302E30312D312E30292E0A82
:10160000003F2849297465726174696F6E206F7597
:1016100074206F6620626F756E64732028312D33DD
:1016200030292E0A0020204D3432322053005A2017
:101630004175746F2D416C69676E0020204D363600
:101640003600456E6473746F702061646A757374DC
:101650006D656E740020440020204D3230302053E0
:1016600000202844697361626C6564293A00466908
:101670006C616D656E742073657474696E67730058
:1016800020204D3230312058004D61782041636375
:10169000656C65726174696F6E2028756E6974730C
:1016A0002F7332290020204D3230332058004D61F5
:1016B00078206665656472617465732028756E694B
:1016C00074732F73290020520020204D32303420B3
:1016D0005000416363656C65726174696F6E2028A8
:1016E000756E6974732F7332292028503C707269AB
:1016F0006E742D616363656C3E20523C726574723A
:101700006163742D616363656C3E20543C74726147
:1017100076656C2D616363656C3E29002054002062
:10172000530020204D323035204200416476616EF6
:101730006365642028423C6D696E5F7365676D6503
:101740006E745F74696D655F75733E20533C6D699F
:101750006E5F66656564726174653E20543C6D69B8
:101760006E5F74726176656C5F66656564726174E4
:10177000653E20583C6D61785F6A65726B3E20590A
:101780003C6D61785F6A65726B3E205A3C6D617892
:101790005F6A65726B3E20453C6D61785F6A657279
:1017A0006B3E290020440020490020204D33303179
:1017B000205000486F74656E6420504944002044F6
:1017C0000020490020204D33303420500042656411
:1017D0002050494400203B0020550020204D363049
:1017E00033204C0046696C616D656E74206C6F61CE
:1017F000642F756E6C6F6164004D323453256C64D8
:1018000054256C64004739322E3945257300473121
:101810004625640047315A2573463630300047313B
:1018200058257359257346333030300047314633DD
:10183000303030452564004D313036502569532510
:1018400069004D313039532569004D32303044251F
:10185000730047315A257346363030004D343230EC
:101860005325635A2573004731582573592573460C
:10187000313030300A473238485A00473238523017
:1018800058590047315A25734636303000473932AF
:101890002E394530004D313039532569004D3139ED
:1018A00030532569004D3432305330005265737522
:1018B0006D696E672066726F6D20706F776572203C
:1018C0006F7574616765212073656C65637420743E
:1018D00068652073616D652053442066696C6520DE
:1018E0007468656E20707265737320726573756DB0
:1018F0006500203B200020204D3431332053005020
:101900006F7765722D6C6F7373207265636F766588
:101910007279003B200020496E76616C6964206515
:10192000787472756465722000536C6565702E2E34
:101930002E004732384C30005A2050726F626520BA
:10194000506173742042656400205A3A2000205987
:101950003A200042656420583A20004D65736820A3
:10196000706F696E74206F7574206F662072616E7F
:1019700067650A0070726F6D70745F0062656769F9
:101980006E004D302053746F70004D312053746FD2
:101990007000436C69636B20746F20526573756DC2
:1019A000652E2E2E004E6F204D6F76652E00456EF3
:1019B000642066696C65206C6973740A004265670F
:1019C000696E2066696C65206C6973740A004E6FDD
:1019D000206D656469610A00286E6F2066696C6518
:1019E000290043757272656E742066696C653A20D1
:1019F000004E6F74205344207072696E74696E6774
:101A00000A005344207072696E74696E67206279AF
:101A1000746520005072696E742074696D653A2097
:101A2000006F6B006F6666000B100610FF0FF80F5B
:101A3000EA0F44454255473A004D313133205300B7
:101A4000416E79637562696320436869726F6E20C5
:101A50004F46462E00434F4E4649475F4558504F2C
:101A60005254004D4541545041434B00434F4F4C5D
:101A700045525F54454D50455241545552450043DF
:101A800048414D4245525F54454D50455241545591
:101A9000524500424142595354455050494E470027
:101AA00041524353004D4F54494F4E5F4D4F4445B3
:101AB0005300544845524D414C5F50524F5445439A
:101AC00054494F4E00455854454E4445445F4D32AD
:101AD0003000435553544F4D5F4649524D57415284
:101AE000455F55504C4F4144004C464E5F5752495C
:101AF0005445004C4F4E475F46494C454E414D457D
:101B0000004155544F5245504F52545F53445F5318
:101B100054415455530053445F5752495445005261
:101B20004550454154004D554C54495F564F4C5516
:101B30004D45005344434152440050524F4D505480
:101B40005F535550504F525400484F53545F4143D8
:101B500054494F4E5F434F4D4D414E445300454D08
:101B6000455247454E43595F5041525345520043F9
:101B70004153455F4C494748545F42524947485496
:101B80004E45535300544F47474C455F4C494748D7
:101B9000545300534F4654574152455F504F574599
:101BA00052004255494C445F50455243454E540003
:101BB0004C4556454C494E475F44415441005A5F9D
:101BC00050524F42450052554E4F555400415554C6
:101BD0004F4C4556454C005052494E545F4A4F4277
:101BE0000050524F4752455353004155544F5245B0
:101BF000504F52545F54454D50004155544F52453B
:101C0000504F52545F504F5300564F4C554D455412
:101C100052494300454550524F4D0042494E4152B2
:101C2000595F46494C455F5452414E534645520018
:101C300053455249414C5F584F4E5F584F464600FE
:101C40004649524D574152455F4E414D453A4D61CF
:101C5000726C696E20322E312E322E31202844656E
:101C60006320323320323032332032333A33323A47
:101C700035342920534F555243455F434F44455F08
:101C800055524C3A6769746875622E636F6D2F4DBB
:101C900061726C696E4669726D776172652F4D6114
:101CA000726C696E2050524F544F434F4C5F5645F3
:101CB0005253494F4E3A312E30204D414348494E00
:101CC000455F545950453A416E79637562696320A6
:101CD000436869726F6E2045585452554445525FAF
:101CE000434F554E543A3120555549443A63656443
:101CF00065326132662D343161322D343734382DFE
:101D0000396231322D6335356336326633363766A4
:101D100066002F2F005741524E494E4721204C6FED
:101D200077205A204A65726B206D6179206C65615D
:101D30006420746F20756E77616E746564207061C5
:101D4000757365732E0A0020580020204D61783A83
:101D50002000200020204D696E3A2000203B20000A
:101D600020204D323131205300536F667420656E50
:101D70006473746F707300250A0046523A0020465F
:101D80006C6F773A200064697300656E0043290A1E
:101D90000061626C656420286D696E2074656D70E9
:101DA0002000436F6C6420657874727564657320DD
:101DB00061726520004F4646004F4E00203B204890
:101DC0006F73742068616E646C696E6720006D6D5E
:101DD00000203B2044697374616E6365200046698E
:101DE0006C616D656E742072756E6F757420004D38
:101DF00034323120696E636F727265637420706172
:101E000072616D657465722075736167650A004D56
:101E100065736820706F696E74206F7574206F66CB
:101E20002072616E67650A00454550524F4D204F44
:101E30004B0A00290A0020746F20003F5A206F755A
:101E400074206F662072616E6765202800290A0081
:101E500020746F20003F59206F7574206F662072C8
:101E6000616E676520282D00290A0020746F20000C
:101E70003F58206F7574206F662072616E67652011
:101E8000282D003F285929206F7574206F66206225
:101E90006F756E64732E0A003F285829206F757481
:101EA000206F6620626F756E64732E0A0020696E63
:101EB00064657820696E76616C69642028312E2E05
:101EC00032292E0A003F2853292050726F62652D57
:101ED000706F736974696F6E003F285329206973AE
:101EE0002072657175697265642E0A004D38345828
:101EF000594500446F6E65207072696E74696E6733
:101F00002066696C650A004D3737004D3331004952
:101F10006E76616C69642065787472756465720AA6
:101F20000020204D323036205800486F6D65206FFC
:101F30006666736574004F666673657473204170DE
:101F4000706C696564004572723A20546F6F206648
:101F500061722100546F6F206661722066726F6D2E
:101F6000207265666572656E636520706F696E7458
:101F70000A004D6564696120496E69742046616993
:101F80006C0053442063617264206F6B0A006F70B1
:101F9000656E526F6F74206661696C65640A0076C5
:101FA0006F6C756D652E696E6974206661696C650C
:101FB000640A004E6F20534420636172640A005328
:101FC0004420636172642072656C65617365640AA4
:101FD000000A4D3234004D3233202573002E0A00A2
:101FE0006F70656E206661696C65642C2046696C53
:101FF000653A200046696C652073656C656374659D
:10200000640A002053697A653A200046696C6520AD
:102010006F70656E65643A2000454E44205355420A
:10202000524F5554494E450A002220706F730022CA
:1020300020706172656E743A2200535542524F55BA
:1020400054494E452043414C4C207461726765747D
:102050003A220053756263616C6C204F766572663C
:102060006C6F77004578636565646564206D6178A1
:1020700020535542524F5554494E45206465707463
:10208000683A002E0A0044656C6574696F6E2066BC
:1020900061696C65642C2046696C653A200046696C
:1020A0006C652064656C657465643A005772697488
:1020B000696E6720746F2066696C653A20006672ED
:1020C00065736800646F696E67002066696C653AC5
:1020D00020004E6F7720002F6175746F25632E6787
:1020E000004A3230300053495A45004A3132004DDF
:1020F0003432305356004A3137004175746F2064D2
:1021000065746563742070616E656C2074797065A8
:102110002028617373756D696E67206E6577207016
:10212000616E656C290053657420666F722073744C
:10213000616E64617264205446542070616E656CF7
:102140002E0053657420666F72206E6577205446AA
:10215000542070616E656C2E001000C90210012CB5
:10216000014001220170011801B0010E01F00104CB
:10217000015002FA00B002F0003003E600D003DCA8
:10218000009004D2007005C800A006BE000008B48C
:1021900000B009AA00D00BA000600E960060118C60
:1021A000000015820020197800C01D6E00A0226476
:1021B00000B0275A00902C500000314600E0343C1B
:1021C0000010383200903A2800603C1E00A03D14F8
:1021D00000803E0A00203F00002020506C616E6E9F
:1021E000657242756666657242797465733A20005D
:1021F0002046726565204D656D6F72793A2000202A
:10220000436F6D70696C65643A20446563203233B6
:1022100020323032330A00204C61737420557064D0
:10222000617465643A20323032332D30352D3136C9
:10223000207C20417574686F723A2028526F6D6D52
:10224000756C616E65722C20416E7963756269638D
:1022500020436869726F6E20322E312E322E312962
:102260000A004D61726C696E20322E312E322E3191
:102270000A0020536F66747761726520526573653A
:10228000740A00205761746368646F672052657335
:1022900065740A002042726F776E206F7574205249
:1022A000657365740A002045787465726E616C20F0
:1022B00052657365740A00506F77657255700A0035
:1022C00073746172740A00473237004D3130303117
:1022D000006F6B006572726F722077726974696E3D
:1022E0006720746F2066696C650A00446F6E652014
:1022F000736176696E672066696C652E0A004D32DF
:102300003900456E6473746F707300255320256324
:102310002025632025632025630020503A00205AA1
:102320003A0020593A0020583A00656E6473746F81
:102330007073206869743A200000000A0B02090CCF
:102340000D0E08070304010000000000000000005B
:10235000000000000000000000000000000000007D
:10236000000000000012111000000000000000003A
:102370000000000000000000000000000000002439
:10238000F404D9201BC40C5C0E9804C4095F0265D8
:10239000077101F405F900FB04B30048048700C18C
:1023A0000369005803550003034500BE023A008448
:1023B00002310053022A002902250004022000E411
:1023C000011C00C8011900AF011700980114008416
:1023D000011300710110006101100051010E004352
:1023E000010D0036010B002B010B0020010B001525
:1023F0000109000C01090003010800FB000800F3BB
:10240000000800EB000700E4000600DE000600D82C
:10241000000600D2000600CC000500C7000500C27F
:10242000000500BD000400B9000400B5000400B1BF
:10243000000400AD000400A9000400A5000300A2F0
:102440000003009F0004009B000300980003009518
:1024500000020093000300900003008D0002008B37
:10246000000300880002008600020084000300814F
:102470000002007F0002007D0002007B0002007964
:102480000002007700010076000200740002007272
:10249000000100710002006F0002006D0001006C7D
:1024A0000002006A00010069000200670001006686
:1024B000000100650001006400020062000100618B
:1024C000000100600001005F0002005D0001005C8F
:1024D0000001005B0001005A000100590001005892
:1024E0000001005700010056000100550001005492
:1024F0000001005300000053000100520001005190
:10250000000100500001004F0001004E0000004E8D
:102510000001004D0001004C0001004B0000004B89
:102520000001004A00010049000100480000004885
:102530000001004700010046000000460001004580
:10254000000000450001004400010043000000437A
:102550000001004200000042000100410000004173
:10256000000100400001003F0000003F0001003E6C
:102570000000003E0001003D0000003D0001003C65
:102580000000003C0000003C0001003B0000003B5C
:102590000001003A0000003A000100390000003953
:1025A000000100380000003800000038000100374A
:1025B0000000003700010036000000360000003641
:1025C0000001003500000035000000350001003436
:1025D000000000340000003400010033000000332C
:1025E0000000003300010032000000320000003221
:1025F0000001003100000031000000310001003016
:1026000000000030000000300001002F0000002F0B
:102610000000002F0000002F0001002E0000002EFF
:102620000000002E0001002D0000002D0000002DF4
:102630000000002D0001002C0000002C0000002CE8
:102640000000002C0001002B0000002B0000002BDC
:102650000000002B0001002A0000002A0000002AD0
:102660000000002A000100290000002900000029C4
:1026700000000029000000290001002800000028B7
:1026800000000028000000280000002800010027AA
:10269000000000270000002700000027000000279E
:1026A0000001002600000026000000260000002691
:1026B0000000002600010025000000250000002584
:1026C0000000002500000025000000250001002476
:1026D000000000240000002400000024000000246A
:1026E000000100230000002300000023000000235D
:1026F000000000230000002300000023000100224E
:102700000000002200000022000000220000002241
:102710000000002200010021000000210000002133
:102720000000002100000021000000210000002125
:102730000001002000000020000000200000002018
:102740000000002000000020000000200000002009
:102750000001001F0000001F0000001F0000001FFC
:102760000000001F0000001F0000001F0001001EED
:102770000000001E0000001E0000001E00000024DB
:10278000F4D43050C38E20C2A24017828B70111235
:102790007A910D816CD90AA861E108C75866076172
:1027A0005143061E4B5D05C145A7041A411104099A
:1027B0003D9803713931034036DB0265339102D411
:1027C000305402802E1D02632CEE01752AC501B023
:1027D00028A001102781018F2564012B244B01E0E3
:1027E000223401AC211F018D200D01801FFC0084CB
:1027F0001EED00971DDF00B81CD200E61BC60020AE
:102800001BBC00641AB200B219A8000A19A0006A21
:10281000189900D117910040178B00B5168400312C
:10282000167E00B31579003A157300C7146F00586F
:10283000146A00EE1366008813630025135E00C758
:10284000125B006C12570015125400C11151007038
:10285000114F0021114B00D61049008D1047004642
:1028600010440002104200C00F4000800F3E0042A2
:102870000F3C00060F3B00CB0E3800930E37005C78
:102880000E3500270E3400F30D3200C10D310090DB
:102890000D3000600D2E00320D2D00050D2C00D9DD
:1028A0000C2B00AE0C2900850C29005C0C27003590
:1028B0000C27000E0C2600E80B2400C40B2400A0FB
:1028C0000B23007D0B23005A0B2100390B2100182C
:1028D0000B2000F80A1F00D90A1E00BB0A1E009D2B
:1028E0000A1D00800A1D00630A1C00470A1B002CF9
:1028F0000A1B00110A1A00F7091A00DD091900C4A1
:10290000091900AB091900920917007B0918006327
:102910000917004C09160036091600200916000A8E
:10292000091500F5081500E0081400CC081400B8DB
:10293000081400A4081400900813007D0812006B0E
:10294000081300580812004608120034081100232A
:102950000811001208110001081100F0071000E032
:10296000071000D0071000C0071000B0070F00A12B
:1029700007100091070E0083070F0074070F006512
:10298000070E0057070E0049070E003B070D002EEB
:10299000070E0020070D0013070D0006070D00F9B4
:1029A000060C00ED060D00E0060C00D4060C00C875
:1029B000060C00BC060C00B0060C00A4060B009927
:1029C000060C008D060B0082060B0077060B006CD0
:1029D000060B0061060A0057060B004C060A00426F
:1029E000060A0038060A002E060A0024060A001A03
:1029F000060A001006090007060A00FD050900F492
:102A0000050900EB050900E2050900D9050900D018
:102A1000050900C7050900BE050900B5050800AD98
:102A2000050800A50509009C050800940508008C10
:102A3000050800840508007C050800740508006C82
:102A4000050700650508005D050700560508004EEE
:102A50000507004705070040050800380507003155
:102A60000507002A050700230507001C05060016B8
:102A70000507000F0507000805060002050700FB13
:102A8000040600F5040700EE040600E8040600E270
:102A9000040700DB040600D5040600CF040600C9C5
:102AA000040600C3040600BD040600B7040600B116
:102AB000040500AC040600A6040600A00405009B63
:102AC00004060095040500900406008A04050085AC
:102AD000040500800406007A0405007504050070F2
:102AE0000405006B04050066040500610405005C34
:102AF00004050057040500520405004D0405004874
:102B0000040500430405003E0404003A04050035B2
:102B1000040500300404002C0405002704040023ED
:102B20000405001E0404001A040400160405001124
:102B30000404000D0404000904050004040400005A
:102B4000040400FC030400F8030400F4030400F090
:102B5000030400EC030400E8030400E4030400E0C1
:102B6000030400DC030400D8030400D4030400D0F1
:102B7000030400CC030400C8030300C50303007270
:102B80002900007C200000AD160000270E00001276
:102B90000800005704000041020000260100004523
:102BA0004550524F4D2056657273696F6E204572C5
:102BB000726F72004A303800426564204865617463
:102BC000696E672E2E2E004A30360045204865611A
:102BD00074696E672E2E2E004A3136005072696E6F
:102BE000742041626F72746564004A31380050721B
:102BF000696E7420506175736564004A3138005203
:102C00006568656174696E672E2E2E004A32350044
:102C10004731205A353020463530300050726F62CF
:102C2000696E67204661696C6564004A3235004D03
:102C30003530300A473237002052656164792E0002
:102C400020746F6F206C6F6E672065787472757377
:102C5000696F6E2070726576656E7465640A002017
:102C6000636F6C6420657874727573696F6E207021
:102C7000726576656E7465640A00416E796375628B
:102C8000696320436869726F6E2052656164792EB2
:102C9000005072696E74696E672E2E2E0050726934
:102CA0006E742050617573656400486F6D652025F2
:102CB0007320466972737400544845524D414C204C
:102CC00052554E4157415900546865726D616C20F0
:102CD00052756E6177617900524553554D45204FCD
:102CE0005054494F4E533A0048656174696E672EDF
:102CF0002E2E000000436C69636B20746F206865A2
:102D00006174000000526573756D696E672E2E2E1A
:102D1000000000436C69636B20746F2066696E6904
:102D200073680000004C6F6164696E672E2E2E0080
:102D30000000496E7365727420616E6420436C6993
:102D4000636B000000436C69636B20746F20636FDA
:102D50006E74696E7565000000456A656374696E1E
:102D6000672E2E2E000000506C6561736520776120
:102D700069742E2E2E0000005061726B696E672EF2
:102D80002E2E00000050757267696E672E2E2E0081
:102D90000000436F6E74696E7565004C6F6164204E
:102DA00046696C616D656E742054004C6F616420DF
:102DB00046696C616D656E7400496E73657274204E
:102DC00066696C616D656E7420616E642073656EFA
:102DD00064204D3130380A0050726F62696E67208E
:102DE0004661696C65640A0050726F62696E6720A3
:102DF0004661696C656400205A3A200020593A20E7
:102E00000042656420583A2000FFFFFF43616E6E68
:102E10006F74206F70656E20737562646972200034
:102E2000204500205A0020590020204D39322058DA
:102E30000053746570732070657220756E6974003C
:102E4000220A00556E6B6E6F776E20636F6D6D6139
:102E50006E643A20220020453A00205A3A00205958
:102E60003A00583A006F6B0A00526573656E643A17
:102E700020000200002200250028002B002E003137
:102E800000340002010000050108010B01000021CF
:102E900000240027002A002D00300033000101002B
:102EA00000040107010A01050505050705080808D2
:102EB00008020202020A0A080804040404010101CB
:102EC00001010101010303030303030303040707D3
:102ED000070C0C0C0C0C0C0C0C0202020206060671
:102EE00006060606060B0B0B0B0B0B0B0B01021059
:102EF0002020080810204010204080020102010814
:102F000004020101020408102040808040201008C3
:102F1000040201800402018040201008040201081C
:102F2000040201010204081020408001020408107C
:102F30002040800093DC75DC11241FBECFEFD1E26E
:102F4000DEBFCDBF00E00CBF84B78093ED1814BE88
:102F50000FB6F894A8958091600088618093600016
:102F6000109260000FBE13E0A0E0B2E0E0EBF7EEDD
:102F700001E00BBF02C007900D92AC3EB107D9F73C
:102F800028E1ACEEB3E001C01D92AD3EB207E1F71F
:102F900017E1CBE9D7E100E006C021970109802FB6
:102FA000FE010E9463F1CA39D10780E00807A9F742
:102FB0000E9426DE0C94C7F30C9400000F931F931D
:102FC000CF93DF93CDB7DEB760970FB6F894DEBF2F
:102FD0000FBECDBF8C01DC01ED91FC910280F3812D
:102FE000E02DBE016F5F7F4F1995882309F464C0FF
:102FF0008981807CC9F56F81637070E0762F6627C8
:10300000770F770F8885B4E08B9FC0011124682B60
:10301000792B89858295869586958370682B6F5F5D
:103020007F4F90E080E02A852370220F3B8537FB9D
:10303000332730F9232B3E813F70230F3327331F73
:103040002750310904C0660F771F881F991F2A95E2
:10305000D2F760960FB6F894DEBF0FBECDBFDF91FA
:10306000CF911F910F910895803419F56885669569
:10307000669570E090E080E0CB01772766272A858F
:10308000622B098510E0102F0027012E000C220B67
:10309000330B602B712B822B932B6F5F7F4F8F4FE6
:1030A0009F4F4AE0660F771F881F991F4A95D1F7F7
:1030B000D0CF8BE0F801848360E070E0CB01C9CF12
:1030C0000895FC01828108952F923F924F925F9262
:1030D0006F927F928F929F92AF92BF92CF92DF9228
:1030E000EF92FF920F931F93CF93DF9300D000D006
:1030F000CDB7DEB7DC010D90BC91A02DBE83AD83B2
:1031000018966D917C91072E000C880B990B0E94EC
:10311000B5EA6B017C0120E030E0A9010E94AFEA32
:103120008823E1F0AD81BE8114968D919D910D9023
:10313000BC91A02D89839A83AB83BC839C01AD0194
:10314000C701B6010E946BF14B015C0120E030E049
:1031500040E251EC0E94AFEA87FF08C081E0ED81B8
:10316000FE818387C12CD12C7601DCC020E030E0C9
:1031700040E251E4C501B4010E94CFF2181664F494
:1031800081E0AD81BE811B968C93C12CD12C8FE741
:10319000E82E83E4F82EC6C0ED81FE818385882366
:1031A00049F013861486158616861786148E158E9A
:1031B000168E178EAD81BE8194964D905D906D9068
:1031C0007C9097971C962D913D914D915C911F9706
:1031D000C501B4010E946CF1F62EE72ED82EC92E3F
:1031E00020E030E0A9010E94AFEA87FDB6C0A3014C
:1031F000920160E070E08FE793E40E94E3F1162F04
:10320000072F382E292E2F2D3E2D4D2D5C2D0E945F
:10321000AFEA87FF02C0780161018F2D9E2DAD2D91
:10322000BC2DED81FE8184879587A687B78720A175
:1032300031A142A153A1C501B4010E9414EB4B017D
:103240005C01AD81BE8154968D929D92AD92BC92EF
:1032500057972F2D3E2D4D2D5C2DC301B2010E949D
:1032600014EB2B013C01ED81FE81408E518E628E6C
:10327000738EC48CD58CE68CF78C29813A814B8176
:103280005C8160897189828993890E946BF1AD812B
:10329000BE8198962D913D914D915C919B970E9496
:1032A00014EBA70196010E946BF120ED3CEC4CE47D
:1032B0005DE30E9414EBA70196010E946CF16B0183
:1032C0007C01ED81FE81C48ED58EE68EF78E8981DC
:1032D0009A81AB81BC81808B918BA28BB38BA30134
:1032E0009201C501B4010E946CF1A70196010E94F0
:1032F0006CF120E030E0A9010E946CF16B017C01CF
:1033000020E030E0A9010E94AFEA87FD2BCF20E04A
:1033100030E04FE753E4C701B6010E94CFF2181620
:103320000CF433CFC701B60126960FB6F894DEBF72
:103330000FBECDBFDF91CF911F910F91FF90EF9006
:10334000DF90CF90BF90AF909F908F907F906F90C5
:103350005F904F903F902F900895F12CE12CD12C4D
:10336000C12C5BCFCF93DF93C0912716D091281645
:1033700081E0CE31D105E4F020E030E040E05FE3D1
:10338000609123167091241680912516909126162F
:103390000E946CF10E944BF26C1B7D0B77FF03C007
:1033A00071956195710981E0633071050CF080E0E1
:1033B000DF91CF910895CF93DF93CFE2DEE020E05D
:1033C00030E040EA52E46091231670912416809117
:1033D0002516909126160E94CFF287FF13C080E039
:1033E000FE01C49120910B0190E002C09595879554
:1033F000CA95E2F780FD0EC0207220930901DF918B
:10340000CF910895FE01949181E001C0880F9A95B3
:10341000EAF7E6CF2095F0CFFC0190E1A4ECB6E00E
:1034200001900D929A95E1F70895EF92FF920F9314
:103430001F93E0921505F09216050093170510935F
:1034400018056093CD057093CE058093CF059FEF4F
:10345000FF27621B730B840B30F480957095619588
:10346000790B890B992790930607A6E06A9F009233
:10347000FA06512DEE277A9F500DE11D8A9FE00D2F
:103480005093FB06E093FC06AFE06A9F0092FE06B5
:10349000512DEE277A9F500DE11D8A9FE00D50932C
:1034A000FF06E0930007AAE06A9F00920207512DF1
:1034B000EE277A9F500DE11D8A9FE00D5093030780
:1034C000E09304071F910F91FF90EF9008959F9252
:1034D000AF92BF92CF92DF92EF92FF920F931F9322
:1034E000CF93DF9300D01F921F92CDB7DEB7EDECE4
:1034F000FAE00027BB27462F572FA82FAA2341F415
:10350000A52F542FB85FAA2319F4A52F5527B85F0C
:10351000A03138F45295A295452F4F70507FA42BBF
:10352000BC5FA03428F4550FAA1F550FAA1FBE5F19
:10353000A03818F4550FAA1FB395550FAA1FEA0F0C
:10354000F01F449151E0AA27B85079F1C0F0B0FFC4
:1035500002C0440F551FB1FF04C0440F551F440F54
:10356000551FB2FF06C052954295142F1F70407F21
:10357000512BB3FF1AC0A52F542F442716C0B19565
:10358000B0FF02C055954795B1FF04C055954795CA
:1035900055954795B2FF05C05295407F4295452B02
:1035A0005F70B3FF02C0452F5527DD24CC24BB2418
:1035B000B2E0649FD018C108B00AB00B749FC01865
:1035C000B108B00B849FB018B109659FC018B1084D
:1035D000B00B759FB018B109859FB0196A9FB018DC
:1035E000B1097A9FB0194D9DA12C992433279927B1
:1035F00022275D9DA00C911C301F901F201FAD9DA8
:10360000900C311D901F201F4C9DA00C911C301F51
:10361000901F201F5C9D900C311D901F201FAC9DA2
:10362000300D911D201F4B9D900C311D901F201FB0
:103630005B9D300D911D201FAB9D900D211D4B9F5B
:10364000300D911D201F5B9F900D211DAB9F200D04
:10365000B1E0BB24CC24DD24639FD018C108B00A9C
:10366000B00B739FC018B108B00B839FB018B1099D
:10367000699FC018B108B00B799FB018B109899F34
:10368000B019629FB018B109729FB019D61AC70A53
:10369000B80A20F0B1E03B0F901F201F1124792FB2
:1036A000632F90E0822F0F900F900F900F900F904C
:1036B000DF91CF911F910F91FF90EF90DF90CF900E
:1036C000BF90AF909F90089580915C1690915D1689
:1036D000891B8F7019F490E080E00895909159163D
:1036E000992351F0833030F48FEF890F19F08093D4
:1036F0005916F1CF1092591680915D162BE6829FD4
:10370000C00111248F51964FFC01208120FDE3CF91
:1037100020915D162F5F2F7020935A1630915D1601
:1037200020915B16321304C020915A1620935B1629
:10373000089590916F0081E091FD02C080E00895AE
:1037400090916F009D7F90936F000895FC017081B0
:10375000472F50E0062E02C0559547950A94E2F790
:1037600040FF14C04091560450E0062E02C055950B
:1037700047950A94E2F740FF09C021E030E001C01C
:10378000220F6A95EAF72095272320830895ECE31A
:10379000F6E03AE0632F0E9430F1292F0E9430F1C9
:1037A000905D9683205D278382E496E00895982FAC
:1037B0004091B90850E080E0282F082E000C330B10
:1037C0002417350744F42654374FF901208129176F
:1037D00019F08F5FF1CF8FEF0895CF93DF93C091F2
:1037E000FB15D091FC1581E0CE31D105E4F020E04D
:1037F00030E040E05FE36091F7157091F81580913B
:10380000F9159091FA150E946CF10E944BF26C1B15
:103810007D0B77FF03C071956195710981E063307D
:1038200071050CF080E0DF91CF910895CF93DF9385
:10383000EC018D810E94D58560E08B81DF91CF9175
:103840000C9444CADF92EF92FF920F931F93CF9391
:10385000DF938C01C62FD22FF32EE42ED52EE6DF78
:103860000E94D2CB8C2F80640E94C9858D2D0E942E
:10387000C9858E2D0E94C9858F2D0E94C9858D2FE7
:103880000E94C98587E8C11101C085E90E94C985E8
:10389000CC3011F40E94CE85C0E00E94CE85F801A4
:1038A000868387FF04C0CF3F11F0CF5FF6CFDF9153
:1038B000CF911F910F91FF90EF90DF90089561E0FD
:1038C000FC0183810E9444CA8FEF0C94C9850F9339
:1038D0001F93CF938C01AADF0E94D2CBC82F8823DD
:1038E00069F08DEF0E94C9850E94D2CBC82FC80114
:1038F000E6DF8C2FCF911F910F91089582E1F8019F
:103900008483F5CF8F929F92AF92BF92CF92DF9236
:10391000EF92FF920F931F93CF93DF93EC016A0115
:103920007B01590120E030E0A90167E38BDFA501AD
:10393000980167E1CE0186DF811125C08F81833038
:1039400039F089E0CC0CDD1CEE1CFF1C8A95D1F708
:10395000A701960169E1CE0175DF11E0882319F016
:1039600010E087E08C83CE01AADF812FDF91CF9119
:103970001F910F91FF90EF90DF90CF90BF90AF908D
:103980009F908F90089589E08C8310E0ECCFCF93C7
:10399000DF93EC016EBDFA01CA019E5F0DB407FE14
:1039A000FDCF20812EBD0DB407FEFDCF21812EBDA0
:1039B0003296E817F90791F70DB407FEFDCF8FEFA8
:1039C0000E94C9858FEF0E94C9850E94CE858E8393
:1039D0008F71853041F083E18C83CE0170DF80E010
:1039E000DF91CF91089581E0FBCF0F931F93CF9389
:1039F000DF93EC018B011ADF0E94D2CB81110BC047
:103A000085E18C8310E0CE015ADF812FDF91CF91C9
:103A10001F910F910895A8016CEFCE01B8DF182F08
:103A2000882371F3F0CF0F931F93CF93DF93EC01B3
:103A300089018F81833039F089E0440F551F661F5B
:103A4000771F8A95D1F79A01AB0168E1CE01FADEC2
:103A5000811127C0A8016EEFCE0199DF182F8823AE
:103A6000A9F00E94D2CB182F8823C1F020E030E0CB
:103A7000A9016DE0CE01E6DE882321F086E18C838A
:103A800010E004C00E94CE858111F8CFCE0117DF6F
:103A9000812FDF91CF911F910F91089587E18C8342
:103AA000F5CF86E0ECCF1F93CF93DF93EC01BEDE22
:103AB00020E030E0A9016CE0CE01C4DE11E08823F3
:103AC00019F010E083E08C83CE01F9DE812FDF91C5
:103AD000CF911F9108951F93CF93DF93EC018F81B6
:103AE000833039F089E0440F551F661F771F8A9590
:103AF000D1F79A01AB0162E1CE01A4DE11E0882387
:103B000019F010E085E08C83CE01D9DE812FDF91A2
:103B1000CF911F9108958F929F92AF92BF92EF9293
:103B2000FF920F931F93CF93DF938C01EB017A01E8
:103B30000E9403CB4B015C012CE2820E21E0921E1D
:103B4000A11CB11C0E94CE85F80186838F3F69F4C9
:103B50000E9403CB681979098A099B0997FDF2CF66
:103B600081E1F8018483C0E021C08E3F69F5F1E076
:103B7000EF1AF1088FEF8EBDFE012FEF0DB407FE97
:103B8000FDCF8EB581932EBDCF018C1B9D0B8E1565
:103B90009F05A0F30DB407FEFDCF8EB5CE0DDF1D42
:103BA00088830E94CE850E94CE85C1E0C80187DE51
:103BB0008C2FDF91CF911F910F91FF90EF90BF90CD
:103BC000AF909F908F9008958FE0CBCF0F931F936E
:103BD000CF93DF93EC018B0129DE40E052E0B80186
:103BE000CE01DF91CF911F910F9195CF0F931F932E
:103BF000CF93DF93EC0189018F81833039F089E025
:103C0000440F551F661F771F8A95D1F79A01AB01A4
:103C100061E1CE0117DE811109C040E052E0B80138
:103C2000CE01DF91CF911F910F9175CF84E08C83EE
:103C3000CE0145DE80E0DF91CF911F910F91089575
:103C40008F929F92AF92BF92CF92DF92EF92FF92AC
:103C50000F931F93CF93DF93EC01162F1F821C82CB
:103C60004B830E9403CB6B017C0120EDC20E27E049
:103C7000D21EE11CF11CA89561E08B810E9444CA10
:103C80008B810E945DBB209A289A219A2398229AC0
:103C900081E00E94D58585E08D830E94D5850AE06C
:103CA0008FEF0E94C9850150D9F7A89520E030E038
:103CB000A90160E0CE01C6DD8E83813079F00E94DB
:103CC00003CB6C197D098E099F0997FDEFCF81E029
:103CD0008C83CE01F4DD1A8280E065C0A8952AEAC3
:103CE00031E040E050E068E0CE01ACDD853031F5F8
:103CF00081E08F83A8958F81812C912C5401823093
:103D000029F4812C912CA12C80E4B82E20E030E005
:103D1000A90167E3CE0196DDA501940169E2CE0118
:103D200091DD8E838823F1F00E9403CB6C197D090D
:103D30008E099F0997FDEACF8AE0CACF04E00E946E
:103D4000CE858E830150D9F78A3A11F482E0D1CF23
:103D50000E9403CB6C197D098E099F0997FDBFCF87
:103D600082E0B6CF8F818230B9F420E030E0A90143
:103D70006AE3CE0167DD882311F088E0A9CF0E94B5
:103D8000CE85807C803C11F483E08F830E94CE85B9
:103D90000E94CE850E94CE85CE0191DD81E08A838E
:103DA000173070F41D83DF91CF911F910F91FF9019
:103DB000EF90DF90CF90BF90AF909F908F9008953D
:103DC00088E18C8389CF0F931F93CF93DF93EC010E
:103DD0008B0120E030E0A90169E034DD811109C0E8
:103DE00040E150E0B801CE01DF91CF911F910F91DA
:103DF00092CE80E18C83CE0162DD80E0DF91CF91B5
:103E00001F910F910895CF93DF93EFE1F6E1C08505
:103E1000D18564817581868197810E944BF2AE01C4
:103E200086EE95E0DF91CF910C94416CEF92FF927A
:103E30000F931F93CF937B018A01C2E48F3F09F058
:103E4000C4E580E20E94E0718C2F0E94E0718AE359
:103E50000E94E071F701608171818281938142E06B
:103E60000E941CBF8AEC9FE00E94E771F80160810C
:103E700071818281938142E00E941CBF62E070E008
:103E800080E090E0CF911F910F91FF90EF900C9404
:103E9000D0CA0F930091130521E0022721E736E0F5
:103EA0004CE050E0BC018FE696E00E941C700F9140
:103EB00008950F930091130521E0022721E736E0D2
:103EC00044E050E0BC018FE696E00E941C700F9128
:103ED00008950F930091130521E0022721E736E0B2
:103EE00041E050E0BC018FE696E00E941C700F910B
:103EF00008950F930091130521E0022721E736E092
:103F000041E050E0BC018FE696E00E941C700F91EA
:103F100008950F930091130521E0022721E736E071
:103F200048E050E0BC018FE696E00E941C700F91C3
:103F300008950F930091130521E0022721E736E051
:103F40004CE050E0BC018FE696E00E941C700F919F
:103F500008950F9301E021E736E041E050E0BC0115
:103F60008FE696E00E941C700F9108950F9301E078
:103F700021E736E042E050E0BC018FE696E00E9487
:103F80001C700F9108950F93AB010091130521E070
:103F9000022721E736E0BC018FE696E00E941C7004
:103FA0000F91089521E736E04CE050E0BC018FE628
:103FB00096E00C94BD7521E736E044E050E0BC018A
:103FC0008FE696E00C94BD7521E736E042E050E0C4
:103FD000BC018FE696E00C94BD7521E736E041E028
:103FE00050E0BC018FE696E00C94BD7521E736E009
:103FF00041E050E0BC018FE696E00C94BD7521E7EE
:1040000036E04CE050E0BC018FE696E00C94BD75C4
:10401000CF93C82FCB010E94E77187E498E00E94FC
:10402000E77188E398E0CC2311F08DE398E0CF911D
:104030000C942A76CF93DF93EC018991882319F0B1
:104040000E945A70FACFDF91CF910895CF93DF93FA
:10405000EC01FE0184912196882319F00E945A7088
:10406000F8CFDF91CF910895CF93DF93EC010E94B9
:1040700069D11B82DF91CF910895CF93DF93EC013B
:10408000462F41706C857D858E859F850E9462CE0E
:10409000882351F0888920E2829FC0011124815435
:1040A0009C4EDF91CF91089590E080E0FACFCF93BE
:1040B000DF93EB01FC012381211104C080E0DF913B
:1040C000CF9108952250223028F48FE288831982FC
:1040D00081E0F5CF60E0D1DF009781F3DC0160E0A3
:1040E00080E09EE22D91203299F0883031F49E01DB
:1040F000260F311DF90190836F5F9E01260F311D40
:10410000AD0141505109FA014081F90140836F5FCF
:104110008F5F8B3039F7FE01E60FF11D1082D8CF8B
:104120003F924F925F926F927F928F929F92AF9247
:10413000BF92CF92DF92EF92FF920F931F93CF9394
:10414000DF93CDB7DEB72C970FB6F894DEBF0FBE66
:10415000CDBF5C01DC0159968D909C90F401818566
:104160009285A385B4859C01AD012F5F3F4F4F4FD2
:104170005F4F29873A874B875C87D50114964D900E
:104180005D906D907C901797411451046104710407
:1041900009F459C0BFEF4B1A5B0A6B0A7B0A312C3A
:1041A000730162011D821E821F821886F4018185BF
:1041B0009285A385B4852D813E814F81588528172E
:1041C00039074A075B0708F056C089859A85AB8591
:1041D000BC858C159D05AE05BF0550F482E0C82E48
:1041E000D12CE12CF12C92E0492E512C612C712C18
:1041F0009E012F5F3F4FB701A601C4010E947ED0F0
:104200008823C9F189819A81AB81BC81892B8A2B52
:104210008B2B01F1260137019FEF491A590A690AD0
:10422000790A2D813E814F8158852F5F3F4F4F4F37
:104230005F4F2D833E834F8358873FEFC31AD30AC6
:10424000E30AF30AB3CF4080518062807380332445
:104250003394A6CFC414D504E604F70411F70FEF86
:104260001FEF2FEF3FE0B701A601C4010E94EDCF81
:10427000782E81111AC0712C872D2C960FB6F894C8
:10428000DEBF0FBECDBFDF91CF911F910F91FF9089
:10429000EF90DF90CF90BF90AF909F908F907F90E6
:1042A0006F905F904F903F900895F5014481558144
:1042B00066817781411551056105710539F09701D6
:1042C0008601C4010E94EDCF8823A9F2D50114967E
:1042D000CD92DD92ED92FC921797332051F0D701E9
:1042E000C6010196A11DB11DF40180839183A283B3
:1042F000B383F50185899689A789B08D892B8A2B8F
:104300008B2B09F0B9CFC58AD68AE78AF08E8181D6
:1043100080688183B1CF40E050E0BA010C94B6D1FF
:10432000682F70E090E080E00C94B2BE1F93CF93B2
:10433000DF9300D000D01F921F92CDB7DEB7182FA9
:104340006091271670912816072E000C880B990B88
:104350000E94B5EA6D837E838F83988780912316B0
:1043600090912416A0912516B091261689839A83E0
:10437000AB83BC83AE014B5F5F4FBE016F5F7F4F6E
:1043800080E854DD6091FB157091FC15072E000C40
:10439000880B990B0E94B5EA6D837E838F83988783
:1043A0008091F7159091F815A091F915B091FA1533
:1043B00089839A83AB83BC83AE014B5F5F4FBE01A1
:1043C0006F5F7F4F8FEF32DD6091FD151F3F39F03A
:1043D0008CE21802F0011124E15EF94E628570E072
:1043E00082ED9FE00E947A756091FD1570E08DEC82
:1043F0009FE00E947A7528960FB6F894DEBF0FBE34
:10440000CDBFDF91CF911F9108950F930FB70F93F9
:1044100000916E000D7F00936E0078940F930BB7A0
:104420000F930CB70F921F922F933F934F935F936D
:104430006F937F938F939F93AF93BF93EF93FF936C
:10444000112444D6FF91EF91BF91AF919F918F912D
:104450007F916F915F914F913F912F911F900F909E
:104460000CBF0F910BBF0F910260F89400936E0088
:104470000F910FBF0F911895CF93DF931092E50521
:10448000CFE1D6E119861886BEDC1A862C98C3EFD8
:10449000D5E1198618860E94756C1A8680910B01E9
:1044A000807180930901DF91CF9108958F929F923F
:1044B000AF92BF92CF92DF92EF92FF920F931F9332
:1044C000CF93DF93B0E4A0E06A2F70E0AB014B0F15
:1044D000511D55954795411119C0EDEAFEE06591D2
:1044E0007491072E000C880B990B0E94B5EADF919E
:1044F000CF911F910F91FF90EF90DF90CF90BF90E1
:10450000AF909F908F900895B42FE0CFA41711F033
:10451000B41303C0E9EAFFE0E2CF9A012150310968
:10452000220F331F220F331FF901E555F14FE5909C
:10453000F490F901E155F14FC591D4918E159F0585
:1045400018F3A42FC817D90708F4BECFF901E35513
:10455000F14F05911491F901EF54F14FC590D490AA
:104560008E199F09BC0190E080E00E94B3EA4B01E4
:104570005C01B601601B710B072E000C880B990BB8
:104580000E94B5EA9B01AC01C501B4010E9414EB85
:104590004B015C01CE19DF09BE0190E080E00E9472
:1045A000B3EA9B01AC01C501B4010E94E3F16B01C8
:1045B0007C01B801110F880B990B0E94B5EA9B0191
:1045C000AC01C701B6010E946CF191CFBC012091F2
:1045D000B5063091B6064091B5065091B60624173F
:1045E000350731F481E02617370709F080E0089598
:1045F0009A01F1CF0F930FB70F9300916E000F93B5
:104600000D7F00936E0000916F000D7F00936F008F
:104610000F930BB70F930CB70F921F922F933F93EB
:104620004F935F936F937F938F939F93AF93BF93BA
:10463000EF93FF931124DDD6FF91EF91BF91AF91DE
:104640009F918F917F916F915F914F913F912F91AA
:104650001F900F900CBF0F910BBF0F910260F89449
:1046600000936F000F9100936E000F910FBF0F9199
:10467000189500C000C08091510980FF25C0899A1B
:104680008FEF8093EF068091510981FF20C08F9AB0
:104690008FEF8093F0068091510982FF1BC0439AEF
:1046A00080910B0180958270809309018FEF809338
:1046B000F1068091510983FF15C016988FEF809302
:1046C000F20600C000C00895899881E0DACF8F9883
:1046D00081E0DFCF439880910B01827080930901C4
:1046E00081E0E5CF169A81E0EACF80911405877FBB
:1046F00080931405129A81E0089512988091140510
:10470000886080931405089521E030E0082E02C0EF
:10471000220F331F0A94E2F72095309590911405EB
:10472000292320931405813061F020F0823071F04C
:1047300081E008955F9A8091D8108E7F8093D81081
:10474000F7CF8A9A8091D8108D7FF8CF479A8091C1
:10475000080180958170809306018091D8108B7F2D
:10476000EDCF80E0D1DF81E0CFDF82E0CDDFBDCFD4
:10477000813089F070F0823081F021E030E001C0BA
:10478000220F8A95EAF780911405822B80931405F5
:1047900008955F98F2CF8A98F0CF479890910801DA
:1047A000917090930601E9CFCF93DF9300D01F92D1
:1047B000CDB7DEB780913E09882389F083E390E08E
:1047C0009C838B831A8219829E012F5F3F4F40E1A9
:1047D00050E06FE379E0CE0103960E94BD750F9023
:1047E0000F900F900F90DF91CF910895CF93DF93AB
:1047F00000D01F921F92CDB7DEB781E080933E09B3
:1048000080E1EFE3F9E0DF011D928A95E9F7CCDF63
:1048100086E18D8382E390E09C838B831A821982E8
:104820009E012F5F3F4F41E050E0BE016B5F7F4F25
:10483000CE0103960E94BD750F900F900F900F90C0
:104840000F90DF91CF910895843021E0920714F00A
:1048500084E091E090932816809327160C94636C63
:10486000CF93DF9380917704811119C0C09110021A
:10487000D0911102219720E030E040E05FE36091A9
:1048800023167091241680912516909126160E9469
:104890006CF10E944BF221E06C177D070CF020E0D8
:1048A000822FDF91CF910895AF92BF92CF92DF9286
:1048B000EF92FF920F931F93CF93DF93C9EED0E156
:1048C0000AEB19E089EFA82E80E1B82EC12CD12C7B
:1048D0007601C39469917991899199910E94B3EA83
:1048E000288939894A895B890E9414EB0E9450F219
:1048F000F80161937193819391938F01C616D70646
:10490000E806F90610F46B017C01AC16BD0611F740
:104910006FEF7FEFCB01A70196010E94D9F02093A2
:10492000CA093093CB094093CC095093CD09DF914C
:10493000CF911F910F91FF90EF90DF90CF90BF909C
:10494000AF9008950F931F93CF93DF930DEF10E176
:10495000CFECD9E0F80121913191419151918F0132
:1049600060E070E080E89FE30E94E3F1699379934F
:1049700089939993F9E0CF3DDF0761F70E94A0C6C4
:10498000DF91CF911F910F918FCF90915C16809105
:104990005D16981306C08091DA109091DB10892B78
:1049A00021F080E00E94AB76F0CF089590915C16E4
:1049B00080915D16981307C08091DA109091DB10FA
:1049C000892B09F4CECE80E00E94AB76EFCFCF9357
:1049D000DF9320918404222379F0EC010E94876CFC
:1049E0009B01AC01688579858A859B850E946CF165
:1049F000688779878A879B87DF91CF910895CF92C7
:104A0000DF92EF92FF9280919904882309F457C0B6
:104A1000C0909504D0909604E0909704F09098048C
:104A200020E030E0A901C701B6010E94AFEA882367
:104A300009F445C020E030E040E05FE3C701B60183
:104A40000E9414EB9B01AC010E9414EB2BED3FE0A4
:104A500049E450E40E9414EB9B01AC0160E070E07B
:104A600080E89FE30E94E3F16B017C01C092730434
:104A7000D0927404E0927504F092760460910E0274
:104A800070910F02072E000C880B990B0E94B5EA5B
:104A90002AE037ED43E25CE30E9414EBA7019601A4
:104AA0000E9414EB60934C0270934D0280934E026F
:104AB00090934F02FF90EF90DF90CF900895C12C1C
:104AC000D12C80E8E82E8FE3F82ED0CF2F923F92A2
:104AD0004F925F926F927F928F929F92AF92BF920E
:104AE000CF92DF92EF92FF920F931F93CF93DF93BA
:104AF000CDB7DEB7A0970FB6F894DEBF0FBECDBF1F
:104B00001C017B015E834D83FC01EA5BFF4F20812A
:104B100031814281538129833A834B835C83CA016B
:104B2000B9010E94B3EA4B015C01D7012D913D917F
:104B30004D915C910E9414EB0E94D0F12B013C013D
:104B4000ED81FE812081318142815381C501B40113
:104B50000E9414EB0E94D0F16B017C01C301B201F1
:104B60000E9450F269877A878B879C876837710526
:104B70008105910540F428E730E040E050E02987C6
:104B80003A874B875C87C701B6010E9450F26D8758
:104B90007E878F87988B683771058105910548F46A
:104BA00028E7C22ED12CE12CF12CCD86DE86EF86B3
:104BB000F88AD1019596CD90DD90ED90FC90989774
:104BC000CD82DE82EF82F886F101EE5AFF4F6081DE
:104BD000718182819381611571058105910509F4C7
:104BE0009FC10E94B5EA6D8B7E8B8F8B988F9B0146
:104BF000AC0160E070E080E89FE30E94E3F1698F20
:104C00007A8F8B8F9C8F20E030E040E05FE30E9442
:104C100014EB6B017C01A5019401C501B4010E9454
:104C200014EB2B013C016D857E858F8598890E9450
:104C3000B3EA9B01AC010E9414EB9B01AC01C301E0
:104C4000B2010E946BF1A70196010E9414EB4B0187
:104C50005C0169857A858B859C850E94B3EA9B01FE
:104C6000AC010E9414EB6D8F7E8F8F8F98A39B01F8
:104C7000AC01C301B2010E946BF1A70196010E9431
:104C800014EB2B013C010E94D0F10E9450F26B0109
:104C90007C01C501B4010E947CF20E9450F2698B34
:104CA0007A8B8B8B9C8BDC01CB018C0D9D1DAE1DFB
:104CB000BF1D2D813E814F815885281B390B4A0B22
:104CC0005B0BDA01C901B7FF61C06D817E818F8105
:104CD00098850E94B3EAA30192010E946CF1A5019C
:104CE00094010E946BF120E030E040E05FE30E941D
:104CF00014EB0E94D0F16B017C0120E030E0A901AF
:104D00000E94CFF218161CF0C12CD12C7601C701DD
:104D1000B6010E9450F26B017C014D815E816F8172
:104D200078854C155D056E057F0510F46A017B01E1
:104D30006D817E818F8198856C197D098E099F090F
:104D4000698B7A8B8B8B9C8BC701B6010E94B3EA6F
:104D50004B015C012D893E894F89588DCA01B901EB
:104D60000E946CF19B01AC01C501B4010E9414EBDF
:104D70002D8D3E8D4F8D58A10E946CF10E9407F33E
:104D80000E9450F269837A838B839C8320E034E213
:104D900044EF59E4698D7A8D8B8D9C8D0E9414EBC4
:104DA0004B015C0169817A818B819C8129853A85DF
:104DB0004B855C85621B730B840B950B0E94B3EAD9
:104DC000A50194010E9414EB0E9450F22B013C01BA
:104DD00069817A818B819C812D853E854F8558899B
:104DE000621B730B840B950B0E94B3EAA50194011F
:104DF0000E9414EB0E9450F24B015C013FE6431607
:104E000051046104710408F097C0F201EE0FFF1F16
:104E1000EE0FFF1FEF5EF64F85919591A591B4912E
:104E20008C01AD8BBD834FE684169104A104B104BF
:104E300008F08AC0F401EE0FFF1FEE0FFF1FEF5EB8
:104E4000F64F45915591659174919A01CB01D1012D
:104E50009996CD92DD92ED92FC929C9795964D910C
:104E60005D916D917C919897C988DA88EB88FC8870
:104E70004C195D096E097F099D964D935D936D9365
:104E80007C93D097F101E65BFF4FC984DA84EB8411
:104E9000FC84C082D182E282F382D5964D925D92EB
:104EA0006D927C92D897F10181AE92AEA3AEB4AE72
:104EB000FD9600831183CD88C282DD80D382349633
:104EC0002083318382839383C980DA80EB80FC80E6
:104ED000D196CD92DD92ED92FC92D4973D96CD8401
:104EE000DE84EF84F888C082D182E282F382A096C9
:104EF0000FB6F894DEBF0FBECDBFDF91CF911F91EB
:104F00000F91FF90EF90DF90CF90BF90AF909F9068
:104F10008F907F906F905F904F903F902F9008956B
:104F2000198E1A8E1B8E1C8E198A1A8A1B8A1C8A4D
:104F3000C12CD12C76012ACFC301B2010E94671A7D
:104F40008B018D8B9D836FCFC501B4010E94671AC1
:104F50009B017DCFEFE6F0E0808182608083089541
:104F6000CF93C82F0E94991B94E0C99F90011124F0
:104F7000F901E854F94F2C53394FD9014D915D9106
:104F80006D917C91408351836283738391E0909310
:104F9000B706882311F0CF91DDCFCF910895CF933D
:104FA000DF9380915009811105C0809152098823B7
:104FB00009F489C08091F306659979C08160809376
:104FC000F306909109018091F30697FD72C082600B
:104FD0008093F306909109018091F30696FF6BC0D0
:104FE00084608093F3068091F3064B9B66C08860D3
:104FF0008093F3068091F306649B61C08061809387
:10500000F306C091A806C0FF0FC08091510980FF30
:105010000BC08091F30680FF07C08091D91081609A
:105020008093D91080E09CDFC1FF0FC080915109AF
:1050300081FF0BC08091F30681FF07C08091D910DA
:1050400082608093D91081E08BDFC2FF3CC08091E9
:10505000510982FF38C080915209811117C0909187
:10506000F30692FB882780F993FF2BC092E0892BEF
:1050700069F09091D91094609093D9109091DC05CB
:10508000992311F0833011F482E06ADF8091520994
:105090008823C9F08091F30684FF15C08091D91050
:1050A00080618093D91082E0DF91CF9159CF8E7FBC
:1050B00086CF8D7F8DCF8B7F94CF877F99CF8F7E4B
:1050C0009ECF90E0D4CFDF91CF9108951F93CF93DF
:1050D000DF9380911D028F3708F4E4C08F579091C1
:1050E00029169093F906992309F4DAC02C9A209195
:1050F000FD152093F80690910B0121119095907168
:1051000090930901909102012091E0052093F70608
:10511000211190959071909300012091DF0530E06E
:10512000359527952093F60690910201232B09F0DF
:1051300090959074909300018F5F80931D028091F1
:10514000F50691E089278093F50680911C02980F5F
:1051500085300CF090E0823009F412C10CF0C2C02E
:10516000882309F4D7C0813009F4FEC090931C0253
:10517000C091DD05D091DE05209709F481C0F89437
:1051800016B1187082E0F4DA00C000C01C161D06CB
:105190000CF425C1439A80910B011C161D060CF0DE
:1051A000809582708093090100C000C08091DC0569
:1051B000882309F416C18091F30682FF04C0809110
:1051C000F10687FD05C08091DB05811101C0419A80
:1051D0008091F30683FF04C08091F10687FD0AC029
:1051E0008091DA05811106C080910B01809588704D
:1051F0008093090100C0000082E090E00197F0F781
:105200008091DC05882309F4EEC08091F30682FFCB
:1052100004C08091F10687FD05C08091DB058111F6
:1052200001C041988091F30683FF04C08091F1068C
:1052300087FD09C08091DA05811105C080910B01BD
:1052400088708093090100C000C0112309F4CDC00B
:10525000439A80910B01111180958270809309010E
:1052600000C000C078948091DD059091DE051C1689
:105270001D060CF0BCC001979093DE058093DD0500
:105280008EDE8091DA109091DB10009729F0019763
:105290009093DB108093DA10DF91CF911F910895E6
:1052A0002C9825CF9091F906891708F02C989091A9
:1052B000F806891728F090910B01907190930901DD
:1052C0009091F606891728F09091020190749093BE
:1052D00000019091F706891708F42ECF90910201F2
:1052E000907128CF843009F463C00CF45CC0853021
:1052F00009F03CCF2091F406211102C08093F406FE
:105300008091F40681508093F406882309F42ECF0F
:1053100095E02CCF80911B028F5F80311CF480932D
:105320001B0224CF10921B028091EE06811113C044
:1053300020911F16309120163093221620932116AB
:105340002091F3153091F4153093F6152093F5154F
:1053500081E08093EE061092201610921F16109294
:10536000F4151092F31502CF88E080937B0085E45A
:1053700080937C0080917A00806480937A00F6CEDE
:1053800080917A0086FD27C0409178005091790085
:1053900020911F1630912016240F351F30932016B0
:1053A00020931F16E3CE88E080937B0086E4E0CF55
:1053B00080917A0086FD11C040917800509179006B
:1053C0002091F3153091F415240F351F3093F41507
:1053D0002093F315CBCE92E0C9CE94E0C7CE43988C
:1053E000DACE419A01CF419829CF439832CF019626
:1053F00043CF2F923F924F925F926F927F928F9204
:105400009F92AF92BF92CF92DF92EF92FF920F9353
:105410001F93CF93DF93CDB7DEB763970FB6F894A2
:10542000DEBF0FBECDBF8FEF9FEF909389008093BB
:1054300088002AE02983312C212C78948091B106B0
:105440009091B206A091B306B091B406892B8A2B35
:105450008B2B09F011C28091B7068823D1F080917F
:10546000B5069091B6061092B706892B91F010926E
:10547000B6061092B5061092A80690915C1680911F
:105480005D16981731F080915D168F5F8F70809355
:105490005D168091B5069091B606892B09F4ECC192
:1054A0004091AD065091AE066091AF067091B00686
:1054B0008091A9069091AA06A091AB06B091AC0686
:1054C000481759076A077B0708F0D6C10091A10960
:1054D00010E030E020E0841B950BA60BB70B0817FB
:1054E00019072A073B0710F4D901C8018A8B840FDA
:1054F000951FA61FB71F8093AD069093AE06A0938D
:10550000AF06B093B006E1E0C0907706D090780681
:10551000E0907906F0907A0680918706909188064F
:10552000A0918906B0918A06C80ED91EEA1EFB1EFC
:10553000C0928706D0928806E0928906F0928A0689
:10554000F7FC18C08091730690917406A0917506BF
:10555000B0917606B701A601481B590B6A0B7B0B6D
:10556000DB01CA018093870690938806A093890681
:10557000B0938A0600917B0610917C0620917D06EF
:1055800030917E0680918B0690918C06A0918D06BD
:10559000B0918E06080F191F2A1F3B1F00938B0620
:1055A00010938C0620938D0630938E0637FD18C01D
:1055B0008091730690917406A0917506B09176065D
:1055C00028013901481A590A6A0A7B0AD301C20123
:1055D00080938B0690938C06A0938D06B0938E06D5
:1055E00040917F06509180066091810670918206FD
:1055F00080918F0690919006A0919106B0919206AD
:10560000480F591F6A1F7B1F40938F0650939006C7
:10561000609391067093920677FD18C0809173068F
:1056200090917406A0917506B09176063A014B01EF
:10563000681A790A8A0A9B0AD401C30180938F06EB
:1056400090939006A0939106B09392068090830663
:1056500090908406A0908506B0908606809193066F
:1056600090919406A0919506B0919606880D991D8B
:10567000AA1DBB1D8093930690939406A093950654
:10568000B0939606B7FD18C080907306909074068C
:10569000A0907506B09076062C013D014818590877
:1056A0006A087B0853014201809293069092940607
:1056B000A0929506B0929606E11104C0E091840094
:1056C000F0918500F7FC1CC04090EF06042C000C04
:1056D0005508660877088090C4069090C506A0908B
:1056E000C606B090C706840C951CA61CB71C8092F9
:1056F000C4069092C506A092C606B092C706889AC4
:1057000037FD1CC04090F006042C000C55086608BC
:1057100077088090C8069090C906A090CA06B090FD
:10572000CB06840C951CA61CB71C8092C8069092D0
:10573000C906A092CA06B092CB068E9A77FD3EC0EB
:10574000E091F1064E2E0E2E000C550866087708E3
:105750008090CC069090CD06A090CE06B090CF065B
:10576000840C951CA61CB71C8092CC069092CD068A
:10577000A092CE06B092CF06F091DC05FF2309F48B
:10578000BFC2F091F306F2FF02C0E7FD05C0E09151
:10579000DB05E11101C0419AE091F306E3FF04C08B
:1057A000E091F106E7FD0AC0E091DA05E11106C0DB
:1057B000E0910B01E095E870E0930901B7FD1CC092
:1057C0004090F206042C000C55086608770880907B
:1057D000D0069090D106A090D206B090D306840C4B
:1057E000951CA61CB71C8092D0069092D106A09260
:1057F000D206B092D306149AE0918400F09185000D
:10580000E0918400F0918500F7FE889837FF8E982C
:1058100077FD23C02091DC05222309F473C2209177
:10582000F30622FF04C02091F10627FD05C0209158
:10583000DB05211101C041982091F30623FF04C02C
:105840002091F10627FD09C02091DA05211105C03C
:1058500020910B01287020930901B7FF14985A88F2
:10586000552021F080918400909185002A89215053
:105870002A8BE0E0211148CE8091B1069091B206CA
:10588000A091B306B091B406892B8A2B8B2B09F01B
:10589000E9C14090B5065090B6065B8A4A8A411429
:1058A000510409F419C68091AD069091AE06A091FD
:1058B000AF06B091B0064091A9065091AA0660913A
:1058C000AB067091AC0684179507A607B70708F4D6
:1058D0001BC280911602882309F453C0F201858906
:1058E0009689A789B08D892B8A2B8B2BA1F4818D6A
:1058F000928DA38DB48D892B8A2B8B2B61F4858D92
:10590000968DA78DB0A1892B8A2B8B2B21F48091AA
:1059100014088823B1F1AA89BB8991966D917D9174
:105920008D919C9194978090190590901A05A09064
:105930001B05B0901C05AB5BBF4F2C9123FF07C02C
:1059400090958095709561957F4F8F4F9F4F0E94E6
:10595000B5EA2091DB093091DC094091DD095091D5
:10596000DE090E9414EB9B01AC01C501B4010E9449
:105970006BF16093190570931A0580931B05909342
:105980001C051092B6061092B5061092A8069091CA
:105990005C1680915D16981709F49EC580915D167E
:1059A0008F5F8F7080935D1630EDC32E37E0D32E5E
:1059B000E12CF12C8091B5069091B606892B09F067
:1059C00049C10E94641B9093B6068093B506892B4B
:1059D00009F440C14090B5065090B6065B8A4A8AE9
:1059E000D2018C9183FD5BC5F201E95AFF4F8081A2
:1059F0009181A281B3818093C2059093C305A09346
:105A0000C405B093C50580E13496AEE1B5E00190E0
:105A10000D928A95E1F7EA89FB8985889688A7889F
:105A2000B08C81E081149104A104B10409F480E0F8
:105A3000AA89BB895996CD90DD90ED90FC905C973A
:105A4000C114D104E104F10409F042C5EA89FB89DB
:105A5000458D568D678D70A1411551056105710504
:105A600009F084608093A806109297061092980619
:105A70001092990610929A061092A0061092A10612
:105A80001092A2061092A306EA89FB8985A196A12D
:105A9000A7A1B0A58093A9069093AA06A093AB06F0
:105AA000B093AC06442455243201481A590A6A0AB4
:105AB0007B0A40928706509288066092890670920F
:105AC0008A0640928B0650928C0660928D067092E8
:105AD0008E0640928F0650929006609291067092C8
