:100000000C943E160C947E160C947E160C947E1660
:100010000C947E160C947E160C947E160C947E1610
:100020000C947E160C947E160C947E160C947E1600
:100030000C947E160C94F5C50C947E160C947E16CA
:100040000C947E160C944D200C947E160C947E1607
:100050000C947E160C94581F0C947E160C94ABC511
:100060000C947E160C9419880C940F880C947E16B0
:100070000C947E160C947E160C947E160C947E16B0
:100080000C947E160C947E160C947E160C947E16A0
:100090000C947E160C947E160C947E160C947E1690
:1000A0000C947E160C947E160C947E160C947E1680
:1000B0000C947E160C947E160C947E160C947E1670
:1000C0000C947E160C947E160C947E160C947E1660
:1000D0000C947E160C947E160C94416C0C940B6C54
:1000E0000C947E164E414E494E495459494E46CDC8
:1000F000CCCC3D0AD7233C17B7D13877CC2B3295DF
:1001000095E6241FB14F0A000020410000C84200BC
:10011000401C4620BCBE4CCA1B0E5AAEC59D740086
:10012000407A10F35A00A0724E18090010A5D4E8C6
:100130000000E87648170000E40B54020000CA9A59
:100140003B000000E1F505000080969800000040AB
:10015000420F000000A086010000001027000000F0
:1001600000E803000000006400000000000A000036
:100170000000000100000000002C76D888DC674FEA
:100180000823DFC1DFAE59E1B1B796E5E3E453C61A
:100190003AE651997696E8E6C28426EB898C9B6212
:1001A000ED407C6FFCEFBC9C9F40F2BAA56FA5F4BC
:1001B00090055A2AF75C936B6CF9676DC11BFCE0E4
:1001C000E40D47FEF520E6B500D0ED902E03009437
:1001D0003577050080841E080000204E0A000000CC
:1001E000C80C333333330F986E12831141EF8D21D6
:1001F00014893BE65516CFFEE6DB18D1844B381B3D
:10020000F77C1D901DA4BBE424203284725E228101
:1002100000C9F124ECA1E53D2720204D32303620E5
:100220005800486F6D65206F6666736574004F6691
:100230006673657473204170706C69656400457203
:10024000723A20546F6F206661722100546F6F20E4
:100250006661722066726F6D207265666572656E8A
:10026000636520706F696E740A004361703A002004
:100270003B0020204D3835312058005A2D50726FE8
:100280006265204F666673657400526573756D69AB
:100290006E67205344002569730025696D20256928
:1002A00073002569682025696D202569730025691B
:1002B00064202569682025696D20256973002569FA
:1002C0007920256964202569682025696D202569C4
:1002D00073000A53746174733A2046696C616D65EA
:1002E0006E7420757365643A20002C204C6F6E6725
:1002F000657374206A6F623A2000546F74616C20D9
:1003000074696D653A200053746174733A20002C4F
:10031000204661696C65643A20002C2046696E694C
:10032000736865643A20005072696E74733A2000F5
:1003300053746174733A2000436F6F6C696E672E5B
:100340002E2E0045312025530020573A0042656487
:1003500020436F6F6C696E672E2E2E0042656420FD
:1003600048656174696E672E2E2E00236465666988
:100370006E652044454641554C545F0000626564FB
:10038000004B6420004B6920004B70200050494412
:100390002074756E696E6720646F6E6500206669F3
:1003A0006E697368656421205075742074686520D7
:1003B0006C617374204B702C204B6920616E64203B
:1003C0004B6420636F6E7374616E74732066726F1A
:1003D0006D2062656C6F7720696E746F20436F6E5D
:1003E00066696775726174696F6E2E680A0050499C
:1003F00044204175746F74756E6500206661696C88
:100400006564212074696D656F75740A00504944F4
:10041000204175746F74756E65004175746F7475E5
:100420006E65206661696C6564212054696D656F35
:1004300075742E00206661696C6564212054656DB9
:10044000706572617475726520746F6F206869677A
:10045000680A00504944204175746F74756E6500D8
:10046000504944204379636C657300255320256906
:100470002F256900204B643A2000204B693A200068
:10048000204B703A200020436C61737369632050E5
:100490004944200A00204E6F206F76657273686FA2
:1004A0006F740A002054753A2000204B753A2000E2
:1004B000206D61783A2000206D696E3A200020643A
:1004C0003A200020626961733A20004865617469CE
:1004D0006E672E2E2E002073746172740A005049CC
:1004E00044204175746F74756E65004175746F7446
:1004F000756E65206661696C6564212054656D7058
:100500006572617475726520746F6F2068696768C1
:100510002E00206661696C6564212054656D7065EC
:1005200072617475726520746F6F20686967680AFC
:1005300000504944204175746F74756E65005049D0
:1005400044204175746F74756E6500206661696C36
:100550006564212042616420686561746572206968
:10056000640A00504944204175746F74756E6500CB
:1005700046696C616D656E745F72756E6F7574003F
:10058000454550524F4D5F7665725F77726F6E676B
:1005900000506F7765725F6661696C7572650053B4
:1005A000445F636172645F6572726F720041626E74
:1005B0006F726D616C5F686F74656E645F74656D9A
:1005C000700041626E6F726D616C5F6265645F7432
:1005D000656D7000322E312E322E31004A333320B9
:1005E000004A303200204D0020482000413756207C
:1005F00000413656202D2D2D004136562000205A20
:100600003A200020593A200041355620583A20001F
:1006100041345620004133562000413256200041DB
:100620003156200041305620004D323520500A4DC1
:10063000323400526573756D6500554920506175FF
:10064000736500726573756D65004D3234006361CA
:100650006E63656C005072696E742041626F7274D3
:100660006564004469736D69737300554920416284
:100670006F727465640043616E6E6F7420656E7492
:100680006572207375626469723A20004A323100E3
:100690004A3231004A3230004A3132004739310A99
:1006A000473025730A473930004732385A004732FD
:1006B00038590047323858004132305620004A310C
:1006C00032004D31303030004A3034004D3130305E
:1006D000302043004A3136004D3130303020430065
:1006E0004A3136004A3035004A3236004D35303115
:1006F0000A4D34323020533100413331562000410D
:1007000033315620004133315620004D6573682047
:100710006368616E6765732073617665642E004D52
:10072000353030004D657368206368616E676573AE
:10073000206162616E646F6E65642C2070726576F4
:10074000696F7573206D65736820726573746F725D
:1007500065642E004D3530310A4D3432302053312E
:10076000004A3236004732380A473239004A3236B8
:10077000004A323400473238004132395620004EA8
:100780006577205446542070616E656C20646574F2
:10079000656374656421005374616E6461726420E2
:1007A0005446542070616E656C2064657465637492
:1007B000656421004A3039004A30370042656420C0
:1007C00074656D702061626E6F726D616C21203A8C
:1007D00020004A3130004578747275646572207467
:1007E000656D702061626E6F726D616C21203A20C0
:1007F000004A3130004A31380046696C616D656EDF
:10080000742050757267696E672E2E2E004A31383B
:10081000005265686561742066696E697368656415
:100820002E004A3138004865617465722054696D44
:10083000656F7574004A3138004E6F7A7A6C6520A6
:100840005061726B6564005072696E7420506175FE
:10085000736564002E2E20202020202020202020C0
:1008600020202020202020202E67636F6465004513
:100870004E4400464E20004A313400486F6D696E88
:1008800067204661696C6564006F70656E00545244
:1008900049474745524544003A200066696C616DFE
:1008A000656E74007A5F70726F6265007A325F6D98
:1008B000696E007A5F6D696E00795F6D696E0078B0
:1008C0005F6D696E005265706F7274696E67206546
:1008D0006E6473746F70207374617475730A002092
:1008E000746F6F206C6F6E672065787472757369B2
:1008F0006F6E2070726576656E7465640A002063A1
:100900006F6C6420657874727573696F6E20707295
:100910006576656E7465640A00000084C10000900D
:10092000C0000000005761726E696E673A20486F20
:100930006D696E672042756D702044697669736FCA
:1009400072203C20310A000404040000D24300005D
:10095000CD430080E3430000A0400000A040000021
:1009600000404A3138004A3034000000CD430000D6
:10097000CD430080E343000020C1000000000000E0
:10098000000053657474696E67732053746F7265E9
:100990006400290A002062797465733B20637263E6
:1009A000200053657474696E67732053746F7265A9
:1009B00064202800454550524F4D20496E697469A6
:1009C000616C697A65640A0048617264636F64658A
:1009D000642044656661756C742053657474696E37
:1009E0006773204C6F616465640020286D6D290079
:1009F000203B204C6576656C696E67200020204D99
:100A00003432302053004175746F20426564204CAD
:100A10006576656C696E6700203B2053656E736F69
:100A200072200020440020204D34313220530046F3
:100A3000696C616D656E742072756E6F757420736C
:100A4000656E736F7200204A0020204732392057AC
:100A500020490020204D3134392043203B20556E61
:100A600069747320696E2043656C736975730A003D
:100A700054656D706572617475726520556E697428
:100A800073002020473231203B004C696E65617253
:100A900020556E69747300454550524F4D20646176
:100AA000746173697A65206572726F722E0A0045EF
:100AB00072723A20454550524F4D20435243002018
:100AC0002863616C63756C6174656429210A002078
:100AD000213D2000454550524F4D20435243206D4B
:100AE00069736D61746368202D202873746F72655B
:100AF00064292000454550524F4D20436F72727556
:100B000070740A002053697A653A2000496E646562
:100B1000783A200053746F72656420736574746949
:100B20006E67732072657472696576656400290A60
:100B3000002062797465733B206372632000207328
:100B4000746F7265642073657474696E6773207264
:100B50006574726965766564202800000061430051
:100B60000034430000C841000034420000A04200AD
:100B700000C8420000C8439AD9CF43DC050000DC1E
:100B800005000064000000B80B0000204D61726C8D
:100B9000696E3D563838290A00454550524F4D2060
:100BA00076657273696F6E206D69736D61746368C9
:100BB0002028454550524F4D3D0020436F756E74BF
:100BC00020583A00004265640045310045006265E6
:100BD00064002C2073797374656D2073746F70706A
:100BE000656421204865617465725F49443A20005C
:100BF0004572723A204D415854454D50004D415870
:100C000054454D5020747269676765726564004889
:100C1000656174696E67204661696C65640048654A
:100C20006174696E67206661696C6564004D353278
:100C300034004D3131322053687574646F776E0023
:100C400070012C0190012701B0012201C0011D019A
:100C5000F00118011002130130020E0160020901B7
:100C600090020401C002FF000003FA004003F500F7
:100C70008003F000D003EB002004E6007004E100E4
:100C8000E004DC004005D700C005D2004006CD00DE
:100C9000D006C8008007C3003008BE00F008B900C5
:100CA000C009B400B00AAF00B00BAA00D00CA50078
:100CB000000EA000500F9B00C01096005012910033
:100CC00000148C00C0158700B0178200B0197D0099
:100CD000D01B7800001E730040206E009022690037
:100CE000F024640040275F0090295A00E02B550053
:100CF000102E500020304B0010324600E0334100EF
:100D000090353C001037370070383200A0392D0084
:100D1000B03A2800A03B2300603C1E00103D1900A3
:100D2000903D1400103E0F00703E0A00C03E0500CA
:100D3000003F0000403FFBFF803FF6FFC03FF1FF58
:100D40004572723A204D494E54454D50004D494E22
:100D500054454D5020747269676765726564002060
:100D60002F002042403A0020403A0020573A007CB1
:100D70003C3E5E2B3D3F2F5B5D3B2C2A225C0043BB
:100D80004F4D4D554E49434154494F4E00445259E1
:100D900052554E004552524F525300494E464F0055
:100DA0004543484F004572726F72207772697469CB
:100DB0006E6720746F20454550524F4D210A0053F5
:100DC000544F505045442E20005072696E74657225
:100DD0002073746F707065642064756520746F2073
:100DE0006572726F72732E20466978207468652070
:100DF0006572726F7220616E6420757365204D3963
:100E0000393920746F20726573746172742E2028D2
:100E100054656D70657261747572652069732072B6
:100E2000657365742E20536574206974206166743F
:100E300065722072657374617274696E67290A0045
:100E40004E6F20436865636B73756D2077697468B6
:100E5000206C696E65206E756D6265722C204C6128
:100E60007374204C696E653A20004E6F20436865AC
:100E7000636B73756D2077697468206C696E65208B
:100E80006E756D6265722C204C617374204C696EB6
:100E9000653A2000636865636B73756D206D6973D7
:100EA0006D617463682C204C617374204C696E65AD
:100EB0003A20004C696E65204E756D62657220693E
:100EC00073206E6F74204C617374204C696E6520C2
:100ED0004E756D6265722B312C204C617374204C01
:100EE000696E653A20004D31313000536572696199
:100EF0006C20737461747573206D69736D617463B4
:100F0000680A0053442072656164206572726F72D2
:100F10000A00746F6F206D75636820696E61637479
:100F20006976652074696D65202D20637572726520
:100F30006E7420636F6D6D616E643A200021212014
:100F40004B494C4C206361757365642062792000C5
:100F5000486F74656E642049646C652054696D65E2
:100F60006F757400486F74656E642049646C652009
:100F700054696D656F75740A00627573793A2070F3
:100F8000617573656420666F7220696E7075740A8E
:100F900000627573793A2070617573656420666FBD
:100FA0007220757365720A00627573793A207072E7
:100FB0006F63657373696E670A004A3032004A30A6
:100FC00031004A3030004D313030305300506F77AF
:100FD0006572204F7574616765004A3233004A318B
:100FE00035007061757365004D36303000206669DC
:100FF0006C616D656E745F72756E6F7574200066DE
:10100000696C616D656E745F72756E6F7574205476
:101010000046696C616D656E7452756E6F757420F3
:1010200054004A313100706F7765726F6666005008
:1010300072696E7465722068616C7465642E206BD1
:10104000696C6C28292063616C6C6564210A0065F9
:1010500063686F3A004572726F723A0042696C6958
:101060006E656172204C6576656C696E67204772AB
:1010700069643A0A002F2F616374696F6E3A006EDB
:101080006F74696669636174696F6E200062656779
:10109000696E00656E640073686F770062757474C2
:1010A0006F6E00486F74656E6420746F6F20636F9D
:1010B0006C640A0053656E64204D31303820746FC3
:1010C00020726573756D650A00496E7365727420D0
:1010D00066696C616D656E7420616E642073656E07
:1010E00064204D3130380A005265686561742044CF
:1010F0006F6E6500526568656174696E672E2E2E8D
:1011000000526568656174004865617465722054B9
:10111000696D656F75740053656E64204D313038AC
:1011200020746F2068656174206E6F7A7A6C650A2E
:10113000004E6F7A7A6C65205061726B6564007046
:10114000617573656400486561642063616E6E6FEC
:1011500074206265207061726B6564005061757304
:101160006500726573756D656400526573756D69B0
:101170006E6700426564204C6576656C696E672019
:10118000004661696C656420746F20656E61626CF5
:101190006520426564204C6576656C696E670A005F
:1011A000496E76616C6964206D6573682E0A00472C
:1011B00032370050726F62696E6720506F696E74CB
:1011C0000025532025692F2569002E0A002F005085
:1011D000726F62696E67206D65736820706F696EEB
:1011E000742000202844525952554E290047323964
:1011F000204175746F20426564204C6576656C698A
:101200006E67003F20284C2C522C462C4229206F20
:101210007574206F6620626F756E64732E0A003FCE
:101220002856296572626F7365206C6576656C203F
:10123000696D706C61757369626C652028302D343E
:10124000292E0A00426164205A2076616C75650A75
:10125000004E6F2062696C696E6561722067726909
:10126000640A004163637572616379204465637247
:10127000656173696E6721004465637265617369B6
:101280006E6720416363757261637920446574659C
:10129000637465642E0A004732385A0041636375EF
:1012A000726163793A2000206F66200044696420EF
:1012B000004733342061626F727465642E0A004106
:1012C00063637572616379204163686965766564FB
:1012D000005461726765742061636375726163793C
:1012E0002061636869657665642E0A00313A323D93
:1012F0002573000A5A322D5A313D0050726F6269CF
:101300006E67204661696C65640050726F62696E39
:1013100067206661696C65640A004733342049744C
:1013200065726174696F6E3A202569000A4733342B
:1013300020497465726174696F6E3A20003F2841DC
:10134000296D706C696669636174696F6E206F7571
:1013500074206F6620626F756E64732028302E359E
:101360002D322E30292E0A003F28542961726765DC
:1013700074206163637572616379206F7574206F87
:101380006620626F756E64732028302E30312D31E7
:101390002E30292E0A003F2849297465726174692C
:1013A0006F6E206F7574206F6620626F756E647348
:1013B0002028312D3330292E0A0020204D3432329E
:1013C0002053005A204175746F2D416C69676E007F
:1013D00020204D36363600456E6473746F70206180
:1013E000646A7573746D656E740020440020204D2E
:1013F000323030205300202844697361626C656488
:10140000293A0046696C616D656E74207365747469
:10141000696E67730020204D3230312058004D61D5
:101420007820416363656C65726174696F6E202812
:10143000756E6974732F7332290020204D3230335A
:101440002058004D6178206665656472617465732B
:101450002028756E6974732F732900205200202094
:101460004D323034205000416363656C65726174A5
:10147000696F6E2028756E6974732F733229202866
:10148000503C7072696E742D616363656C3E2052CE
:101490003C726574726163742D616363656C3E2098
:1014A000543C74726176656C2D616363656C3E2992
:1014B0000020540020530020204D323035204200BF
:1014C000416476616E6365642028423C6D696E5F9D
:1014D0007365676D656E745F74696D655F75733E86
:1014E00020533C6D696E5F66656564726174653E2C
:1014F00020543C6D696E5F74726176656C5F6665E1
:101500006564726174653E20583C6D61785F6A6500
:10151000726B3E20593C6D61785F6A65726B3E204C
:101520005A3C6D61785F6A65726B3E20453C6D6127
:10153000785F6A65726B3E290020440020490020D4
:10154000204D333031205000486F74656E64205058
:1015500049440020440020490020204D33303420ED
:1015600050004265642050494400203B0020550053
:1015700020204D363033204C0046696C616D656E1D
:1015800074206C6F61642F756E6C6F6164004D32F6
:101590003453256C6454256C64004739322E394528
:1015A00025730047314625640047315A2573463676
:1015B0003030004731582573592573463330303069
:1015C0000047314633303030452564004D313036E8
:1015D000502569532569004D313039532569004D37
:1015E0003230304425730047315A25734636303047
:1015F000004D3432305325635A2573004731582546
:101600007359257346313030300A473238485A0012
:10161000473238523058590047315A2573463630D0
:1016200030004739322E394530004D31303953259D
:1016300069004D313930532569004D343230533013
:1016400000526573756D696E672066726F6D2070EC
:101650006F776572206F7574616765212073656CA3
:10166000656374207468652073616D652053442040
:1016700066696C65207468656E207072657373208E
:10168000726573756D6500203B200020204D34315C
:1016900033205300506F7765722D6C6F7373207217
:1016A00065636F76657279003B200020496E766134
:1016B0006C69642065787472756465722000536C7F
:1016C0006565702E2E2E004732384C30005A20505F
:1016D000726F626520506173742042656400205A05
:1016E0003A200020593A200042656420583A2000F0
:1016F0004D65736820706F696E74206F7574206F0C
:10170000662072616E67650A0070726F6D70745F3B
:1017100000626567696E004D302053746F70004D34
:10172000312053746F7000436C69636B20746F20B9
:10173000526573756D652E2E2E004E6F204D6F769F
:10174000652E00456E642066696C65206C69737453
:101750000A00426567696E2066696C65206C697372
:10176000740A004E6F206D656469610A00286E6F0F
:101770002066696C65290043757272656E74206617
:10178000696C653A20004E6F742053442070726972
:101790006E74696E670A005344207072696E7469D2
:1017A0006E67206279746520005072696E742074CF
:1017B000696D653A20006F6B006F666600A00D9B37
:1017C0000D940D8D0D7F0D44454255473A004D3126
:1017D0003133205300416E79637562696320436839
:1017E00069726F6E204F46462E00434F4E46494762
:1017F0005F4558504F5254004D4541545041434B62
:1018000000434F4F4C45525F54454D504552415453
:10181000555245004348414D4245525F54454D5055
:101820004552415455524500424142595354455046
:1018300050494E470041524353004D4F54494F4E7B
:101840005F4D4F44455300544845524D414C5F5005
:10185000524F54454354494F4E00455854454E4409
:1018600045445F4D323000435553544F4D5F464918
:10187000524D574152455F55504C4F4144004C46E4
:101880004E5F5752495445004C4F4E475F46494CB6
:10189000454E414D45004155544F5245504F5254CD
:1018A0005F53445F5354415455530053445F575260
:1018B00049544500524550454154004D554C5449FA
:1018C0005F564F4C554D45005344434152440050E0
:1018D000524F4D50545F535550504F525400484F43
:1018E00053545F414354494F4E5F434F4D4D414E1A
:1018F000445300454D455247454E43595F50415270
:1019000053455200434153455F4C494748545F4259
:1019100052494748544E45535300544F47474C454E
:101920005F4C494748545300534F46545741524522
:101930005F504F574552004255494C445F50455205
:1019400043454E54004C4556454C494E475F444133
:101950005441005A5F50524F42450052554E4F5528
:1019600054004155544F4C4556454C005052494E39
:10197000545F4A4F420050524F4752455353004123
:1019800055544F5245504F52545F54454D500041AD
:1019900055544F5245504F52545F504F5300564F7D
:1019A0004C554D455452494300454550524F4D000A
:1019B00042494E4152595F46494C455F5452414E4F
:1019C000534645520053455249414C5F584F4E5F74
:1019D000584F4646004649524D574152455F4E4189
:1019E0004D453A4D61726C696E20322E312E322E89
:1019F00031202844656320323320323032332032A4
:101A0000333A33313A35302920534F555243455FED
:101A1000434F44455F55524C3A6769746875622E6E
:101A2000636F6D2F4D61726C696E4669726D77617F
:101A300072652F4D61726C696E2050524F544F4346
:101A40004F4C5F56455253494F4E3A312E30204D40
:101A5000414348494E455F545950453A416E796378
:101A60007562696320436869726F6E2045585452ED
:101A7000554445525F434F554E543A3120555549D0
:101A8000443A63656465326132662D343161322DCA
:101A9000343734382D396231322D6335356336327F
:101AA000663336376666002F2F005741524E494E37
:101AB0004721204C6F77205A204A65726B206D6158
:101AC00079206C65616420746F20756E77616E7427
:101AD0006564207061757365732E0A0020580020BC
:101AE000204D61783A2000200020204D696E3A2078
:101AF00000203B200020204D323131205300536F15
:101B0000667420656E6473746F707300250A0046F6
:101B1000523A0020466C6F773A2000646973006582
:101B20006E0043290A0061626C656420286D696E4D
:101B30002074656D702000436F6C6420657874724A
:101B4000756465732061726520004F4646004F4EF4
:101B500000203B20486F73742068616E646C696E6E
:101B60006720006D6D00203B2044697374616E63D3
:101B700065200046696C616D656E742072756E6FCC
:101B8000757420004D34323120696E636F72726556
:101B9000637420706172616D657465722075736124
:101BA00067650A004D65736820706F696E74206FF9
:101BB0007574206F662072616E67650A0045455036
:101BC000524F4D204F4B0A00290A0020746F20000D
:101BD0003F5A206F7574206F662072616E676520B2
:101BE0002800290A0020746F20003F59206F757467
:101BF000206F662072616E676520282D00290A001B
:101C000020746F20003F58206F7574206F6620721B
:101C1000616E676520282D003F285929206F757453
:101C2000206F6620626F756E64732E0A003F28581D
:101C300029206F7574206F6620626F756E64732E35
:101C40000A0020696E64657820696E76616C69644B
:101C50002028312E2E32292E0A003F2853292050C9
:101C6000726F62652D706F736974696F6E003F28C3
:101C700053292069732072657175697265642E0A33
:101C8000004D383458594500446F6E6520707269B4
:101C90006E74696E672066696C650A004D3737009F
:101CA0004D333100496E76616C69642065787472D9
:101CB000756465720A004D6564696120496E6974D6
:101CC000204661696C0053442063617264206F6B2D
:101CD0000A006F70656E526F6F74206661696C6583
:101CE000640A00766F6C756D652E696E6974206686
:101CF00061696C65640A004E6F2053442063617211
:101D0000640A00534420636172642072656C6561EB
:101D10007365640A000A4D3234004D323320257356
:101D2000002E0A006F70656E206661696C65642C18
:101D30002046696C653A200046696C652073656CC5
:101D400065637465640A002053697A653A20004629
:101D5000696C65206F70656E65643A2000454E447D
:101D600020535542524F5554494E450A0022207087
:101D70006F73002220706172656E743A22005355B1
:101D800042524F5554494E452043414C4C207461BA
:101D9000726765743A220053756263616C6C204F00
:101DA000766572666C6F7700457863656564656417
:101DB000206D617820535542524F5554494E45206D
:101DC00064657074683A002E0A0044656C65746935
:101DD0006F6E206661696C65642C2046696C653A9B
:101DE000200046696C652064656C657465643A0022
:101DF00057726974696E6720746F2066696C653A02
:101E00002000667265736800646F696E6700206603
:101E1000696C653A20004E6F7720002F6175746FF2
:101E200025632E67004A3230300053495A45004A34
:101E30003132004D3432305356004A31370041754B
:101E4000746F206465746563742070616E656C20C6
:101E5000747970652028617373756D696E67206E83
:101E600065772070616E656C290053657420666F1C
:101E700072207374616E64617264205446542070E1
:101E8000616E656C2E0053657420666F72206E65FE
:101E900077205446542070616E656C2E001000C986
:101EA0000210012C014001220170011801B0010E45
:101EB00001F00104015002FA00B002F0003003E624
:101EC00000D003DC009004D2007005C800A006BE5C
:101ED000000008B400B009AA00D00BA000600E9664
:101EE0000060118C000015820020197800C01D6E62
:101EF00000A0226400B0275A00902C500000314608
:101F000000E0343C0010383200903A2800603C1E5B
:101F100000A03D1400803E0A00203F000020205019
:101F20006C616E6E65724275666665724279746543
:101F3000733A20002046726565204D656D6F727999
:101F40003A200020436F6D70696C65643A204465E7
:101F50006320323320323032330A00204C617374F4
:101F600020557064617465643A20323032332D300C
:101F7000352D3136207C20417574686F723A2028E7
:101F8000526F6D6D756C616E65722C20416E796358
:101F90007562696320436869726F6E20322E312E3C
:101FA000322E31290A004D61726C696E20322E3159
:101FB0002E322E310A0020536F66747761726520CD
:101FC00052657365740A00205761746368646F67B3
:101FD0002052657365740A002042726F776E206F1D
:101FE00075742052657365740A00204578746572B3
:101FF0006E616C2052657365740A00506F7765726C
:1020000055700A0073746172740A00473237004DCC
:1020100031303031006F6B006572726F72207772F1
:102020006974696E6720746F2066696C650A004484
:102030006F6E6520736176696E672066696C652EC8
:102040000A004D323900456E6473746F7073002559
:10205000532025632025632025632025630020501D
:102060003A00205A3A0020593A0020583A00656E4A
:102070006473746F7073206869743A200000000AFA
:102080000B02090C0D0E08070304010000000000FC
:102090000000000000000000000000000000000040
:1020A00000000000000000000012111000000000FD
:1020B0000000000000000000000000000000000020
:1020C00000000024F404D9201BC40C5C0E9804C446
:1020D000095F0265077101F405F900FB04B30048CC
:1020E000048700C10369005803550003034500BE7F
:1020F000023A008402310053022A0029022500041A
:10210000022000E4011C00C8011900AF011700986B
:1021100001140084011300710110006101100051CD
:10212000010E0043010D0036010B002B010B0020B6
:10213000010B00150109000C01090003010800FB57
:10214000000800F3000800EB000700E4000600DED2
:10215000000600D8000600D2000600CC000500C72B
:10216000000500C2000500BD000400B9000400B570
:10217000000400B1000400AD000400A9000400A5A3
:10218000000300A20003009F0004009B00030098CE
:102190000003009500020093000300900003008DEF
:1021A0000002008B00030088000200860002008409
:1021B000000300810002007F0002007D0002007B1E
:1021C000000200790002007700010076000200742E
:1021D00000020072000100710002006F0002006D39
:1021E0000001006C0002006A000100690002006743
:1021F0000001006600010065000100640002006249
:1022000000010061000100600001005F0002005D4C
:102210000001005C0001005B0001005A0001005950
:102220000001005800010057000100560001005550
:10223000000100540001005300000053000100524F
:1022400000010051000100500001004F0001004E4C
:102250000000004E0001004D0001004C0001004B49
:102260000000004B0001004A000100490001004845
:102270000000004800010047000100460000004641
:10228000000100450000004500010044000100433A
:102290000000004300010042000000420001004134
:1022A00000000041000100400001003F0000003F2D
:1022B0000001003E0000003E0001003D0000003D26
:1022C0000001003C0000003C0000003C0001003B1D
:1022D0000000003B0001003A0000003A0001003914
:1022E000000000390001003800000038000000380C
:1022F0000001003700000037000100360000003602
:1023000000000036000100350000003500000035F7
:1023100000010034000000340000003400010033EC
:1023200000000033000000330001003200000032E2
:1023300000000032000100310000003100000031D7
:102340000001003000000030000000300001002FCC
:102350000000002F0000002F0000002F0001002EC1
:102360000000002E0000002E0001002D0000002DB6
:102370000000002D0000002D0001002C0000002CAA
:102380000000002C0000002C0001002B0000002B9E
:102390000000002B0000002B0001002A0000002A92
:1023A0000000002A0000002A000100290000002986
:1023B0000000002900000029000000290001002879
:1023C000000000280000002800000028000000286D
:1023D0000001002700000027000000270000002760
:1023E0000000002700010026000000260000002653
:1023F0000000002600000026000100250000002546
:102400000000002500000025000000250000002538
:10241000000100240000002400000024000000242B
:10242000000000240001002300000023000000231E
:102430000000002300000023000000230000002310
:102440000001002200000022000000220000002203
:1024500000000022000000220001002100000021F5
:1024600000000021000000210000002100000021E8
:1024700000000021000100200000002000000020DA
:1024800000000020000000200000002000000020CC
:10249000000000200001001F0000001F0000001FBE
:1024A0000000001F0000001F0000001F0000001FB0
:1024B0000001001E0000001E0000001E0000001EA3
:1024C00000000024F4D43050C38E20C2A2401782F2
:1024D0008B7011127A910D816CD90AA861E108C73D
:1024E000586607615143061E4B5D05C145A7041A96
:1024F000411104093D9803713931034036DB02650F
:10250000339102D4305402802E1D02632CEE0175EB
:102510002AC501B028A001102781018F2564012B55
:10252000244B01E0223401AC211F018D200D0180DC
:102530001FFC00841EED00971DDF00B81CD200E6D2
:102540001BC600201BBC00641AB200B219A8000A06
:1025500019A0006A189900D117910040178B00B597
:1025600016840031167E00B31579003A157300C742
:10257000146F0058146A00EE136600881363002578
:10258000135E00C7125B006C12570015125400C195
:1025900011510070114F0021114B00D61049008DD0
:1025A0001047004610440002104200C00F40008057
:1025B0000F3E00420F3C00060F3B00CB0E3800934D
:1025C0000E37005C0E3500270E3400F30D3200C1CB
:1025D0000D3100900D3000600D2E00320D2D0005E4
:1025E0000D2C00D90C2B00AE0C2900850C29005CA9
:1025F0000C2700350C27000E0C2600E80B2400C425
:102600000B2400A00B23007D0B23005A0B21003963
:102610000B2100180B2000F80A1F00D90A1E00BB6E
:102620000A1E009D0A1D00800A1D00630A1C004747
:102630000A1B002C0A1B00110A1A00F7091A00DDF8
:10264000091900C4091900AB091900920917007B88
:10265000091800630917004C0916003609160020F6
:102660000916000A091500F5081500E0081400CC49
:10267000081400B8081400A4081400900813007D82
:102680000812006B081300580812004608120034A4
:10269000081100230811001208110001081100F0B0
:1026A000071000E0071000D0071000C0071000B0AE
:1026B000070F00A107100091070E0083070F007499
:1026C000070F0065070E0057070E0049070E003B75
:1026D000070D002E070E0020070D0013070D000642
:1026E000070D00F9060C00ED060D00E0060C00D405
:1026F000060C00C8060C00BC060C00B0060C00A4BA
:10270000060B0099060C008D060B0082060B007765
:10271000060B006C060B0061060A0057060B004C06
:10272000060A0042060A0038060A002E060A00249D
:10273000060A001A060A001006090007060A00FD2C
:10274000050900F4050900EB050900E2050900D9B7
:10275000050900D0050900C7050900BE050900B537
:10276000050800AD050800A50509009C05080094B2
:102770000508008C050800840508007C0508007425
:102780000508006C050700650508005D0507005693
:102790000508004E050700470507004005080038FA
:1027A000050700310507002A050700230507001C5F
:1027B000050600160507000F0507000805060002BC
:1027C000050700FB040600F5040700EE040600E818
:1027D000040600E2040700DB040600D5040600CF6F
:1027E000040600C9040600C3040600BD040600B7C1
:1027F000040600B1040500AC040600A6040600A00F
:102800000405009B04060095040500900406008A58
:1028100004050085040500800406007A040500759F
:10282000040500700405006B0405006604050061E2
:102830000405005C04050057040500520405004D22
:1028400004050048040500430405003E0404003A62
:1028500004050035040500300404002C040500279D
:10286000040400230405001E0404001A04040016D6
:10287000040500110404000D04040009040500040B
:1028800004040000040400FC030400F8030400F442
:10289000030400F0030400EC030400E8030400E474
:1028A000030400E0030400DC030400D8030400D4A4
:1028B000030400D0030400CC030400C8030300C5D4
:1028C0000303005D2E00006E23000013180000AF0C
:1028D0000E00003D080000630400004502000027D0
:1028E000010000454550524F4D2056657273696F87
:1028F0006E204572726F72004A3038004265642063
:1029000048656174696E672E2E2E004A3036004588
:102910002048656174696E672E2E2E004A3136009C
:102920005072696E742041626F72746564004A313E
:1029300038005072696E7420506175736564004A86
:10294000313800526568656174696E672E2E2E00FD
:102950004A3235004731205A353020463530300074
:1029600050726F62696E67204661696C6564004AE7
:102970003235004D3530300A47323700205265611C
:1029800064792E0020746F6F206C6F6E67206578FD
:1029900074727573696F6E2070726576656E74659A
:1029A000640A0020636F6C642065787472757369C3
:1029B0006F6E2070726576656E7465640A00416E94
:1029C00079637562696320436869726F6E2052652E
:1029D0006164792E005072696E74696E672E2E2EB6
:1029E000005072696E742050617573656400486FA1
:1029F0006D652025732046697273740054484552F2
:102A00004D414C2052554E41574159005468657212
:102A10006D616C2052756E61776179005245535536
:102A20004D45204F5054494F4E533A00486561740C
:102A3000696E672E2E2E000000436C69636B207454
:102A40006F2068656174000000526573756D696E72
:102A5000672E2E2E000000436C69636B20746F207C
:102A600066696E6973680000004C6F6164696E6727
:102A70002E2E2E000000496E7365727420616E6404
:102A800020436C69636B000000436C69636B2074C6
:102A90006F20636F6E74696E7565000000456A652E
:102AA0006374696E672E2E2E000000506C65617392
:102AB0006520776169742E2E2E0000005061726BC4
:102AC000696E672E2E2E00000050757267696E6762
:102AD0002E2E2E000000436F6E74696E7565004CDB
:102AE0006F61642046696C616D656E742054004CA2
:102AF0006F61642046696C616D656E7400496E7328
:102B00006572742066696C616D656E7420616E64B7
:102B10002073656E64204D3130380A0050726F6248
:102B2000696E67204661696C65640A0050726F6265
:102B3000696E67204661696C656400205A3A20001E
:102B400020593A200042656420583A2000FFFFFFD8
:102B500043616E6E6F74206F70656E207375626472
:102B600069722000204500205A0020590020204D85
:102B70003932205800537465707320706572207567
:102B80006E697400220A00556E6B6E6F776E20635B
:102B90006F6D6D616E643A20220020453A00205A24
:102BA0003A0020593A00583A006F6B0A0052657398
:102BB000656E643A20000200002200250028002BE8
:102BC000002E003100340002010000050108010B55
:102BD0000100002100240027002A002D00300033CE
:102BE0000001010000040107010A010505050507B0
:102BF0000508080808020202020A0A080804040478
:102C000004010101010101010103030303030303A3
:102C100003040707070C0C0C0C0C0C0C0C02020232
:102C20000206060606060606060B0B0B0B0B0B0B25
:102C30000B010210202008081020401020408002C4
:102C400001020108040201010204081020408080F2
:102C50004020100804020180040201804020100876
:102C6000040201080402010102040810204080014E
:102C700002040810204080004CD62ED611241FBE1E
:102C8000CFEFD1E2DEBFCDBF00E00CBF84B78093B1
:102C9000DB1714BE0FB6F894A89580916000886188
:102CA00080936000109260000FBE13E0A0E0B2E0DD
:102CB000E2E2FBED01E00BBF02C007900D92AC3EDB
:102CC000B107D9F727E1ACEEB3E001C01D92AB3DEF
:102CD000B207E1F716E1CDE3D6E100E006C02197A7
:102CE0000109802FFE010E941CEBCC33D10780E04C
:102CF0000807A9F70E94DFD70C9480ED0C94000020
:102D00000F931F93CF93DF93CDB7DEB760970FB6C6
:102D1000F894DEBF0FBECDBF8C01DC01ED91FC91BC
:102D20000280F381E02DBE016F5F7F4F19958823EC
:102D300009F464C08981807CC9F56F81637070E09B
:102D4000762F6627770F770F8885B4E08B9FC001B9
:102D50001124682B792B89858295869586958370B9
:102D6000682B6F5F7F4F90E080E02A852370220FF1
:102D70003B8537FB332730F9232B3E813F70230FF0
:102D80003327331F2750310904C0660F771F881F70
:102D9000991F2A95D2F760960FB6F894DEBF0FBE42
:102DA000CDBFDF91CF911F910F910895803419F518
:102DB00068856695669570E090E080E0CB017727A6
:102DC00066272A85622B098510E0102F0027012E27
:102DD000000C220B330B602B712B822B932B6F5F1C
:102DE0007F4F8F4F9F4F4AE0660F771F881F991FB5
:102DF0004A95D1F7D0CF8BE0F801848360E070E092
:102E0000CB01C9CF0895FC01828108952F923F9292
:102E10004F925F926F927F928F929F92AF92BF92EA
:102E2000CF92DF92EF92FF920F931F93CF93DF9396
:102E300000D000D0CDB7DEB7DC010D90BC91A02D45
:102E4000BE83AD8318966D917C91072E000C880B84
:102E5000990B0E946EE46B017C0120E030E0A90137
:102E60000E9468E48823E1F0AD81BE8114968D91C3
:102E70009D910D90BC91A02D89839A83AB83BC83D7
:102E80009C01AD01C701B6010E9424EB4B015C011E
:102E900020E030E040E251EC0E9468E487FF08C087
:102EA00081E0ED81FE818387C12CD12C7601DCC0CD
:102EB00020E030E040E251E4C501B4010E9488EC1A
:102EC000181664F481E0AD81BE811B968C93C12CF1
:102ED000D12C8FE7E82E83E4F82EC6C0ED81FE8169
:102EE0008385882349F013861486158616861786EF
:102EF000148E158E168E178EAD81BE8194964D90D0
:102F00005D906D907C9097971C962D913D914D9181
:102F10005C911F97C501B4010E9425EBF62EE72EA8
:102F2000D82EC92E20E030E0A9010E9468E487FD78
:102F3000B6C0A301920160E070E08FE793E40E94C5
:102F40009CEB162F072F382E292E2F2D3E2D4D2D81
:102F50005C2D0E9468E487FF02C0780161018F2D1B
:102F60009E2DAD2DBC2DED81FE8184879587A68792
:102F7000B78720A131A142A153A1C501B4010E948C
:102F8000CDE44B015C01AD81BE8154968D929D9242
:102F9000AD92BC9257972F2D3E2D4D2D5C2DC30128
:102FA000B2010E94CDE42B013C01ED81FE81408EF7
:102FB000518E628E738EC48CD58CE68CF78C2981F1
:102FC0003A814B815C8160897189828993890E94F1
:102FD00024EBAD81BE8198962D913D914D915C91F0
:102FE0009B970E94CDE4A70196010E9424EB20ED5F
:102FF0003CEC4CE45DE30E94CDE4A70196010E9405
:1030000025EB6B017C01ED81FE81C48ED58EE68EB1
:10301000F78E89819A81AB81BC81808B918BA28B49
:10302000B38BA3019201C501B4010E9425EBA70156
:1030300096010E9425EB20E030E0A9010E9425EBDB
:103040006B017C0120E030E0A9010E9468E487FD6B
:103050002BCF20E030E04FE753E4C701B6010E94D8
:1030600088EC18160CF433CFC701B60126960FB6BC
:10307000F894DEBF0FBECDBFDF91CF911F910F91AE
:10308000FF90EF90DF90CF90BF90AF909F908F9088
:103090007F906F905F904F903F902F900895F12C0C
:1030A000E12CD12CC12C5BCFCF93DF93C0911515B0
:1030B000D091161581E0CE31D105E4F020E030E06A
:1030C00040E05FE360911115709112158091131526
:1030D000909114150E9425EB0E9404EC6C1B7D0B53
:1030E00077FF03C071956195710981E063307105C7
:1030F0000CF080E0DF91CF910895CF93DF93C4EC83
:10310000DBE020E030E040EA52E46091111570917C
:10311000121580911315909114150E9488EC87FF69
:1031200013C080E0FE01C49120910B0190E002C029
:1031300095958795CA95E2F780FD0EC02072209381
:103140000901DF91CF910895FE01949181E001C0C2
:10315000880F9A95EAF7E6CF2095F0CFFC0190E131
:10316000AFEBB6E001900D929A95E1F7089580914A
:103170004A1590914B15891B8F7019F490E080E0EF
:10318000089590914715992351F0833030F48FEFD3
:10319000890F19F080934715F1CF10924715809150
:1031A0004B152BE5829FC00111248153964FFC01E2
:1031B000208120FDE3CF20914B152F5F2F702093AE
:1031C000481530914B1520914915321304C02091B8
:1031D000481520934915089590916F0081E091FD65
:1031E00002C080E0089590916F009D7F90936F00E2
:1031F0000895FC017081472F50E0062E02C05595BE
:1032000047950A94E2F740FF14C04091560450E0FD
:10321000062E02C0559547950A94E2F740FF09C073
:1032200021E030E001C0220F6A95EAF720952723BC
:1032300020830895E4E3F6E03AE0632F0E94E9EA90
:10324000292F0E94E9EA905D9683205D27838AE317
:1032500096E00895982F4091A70850E080E0282F2D
:10326000082E000C330B2417350744F42855374F2C
:10327000F9012081291719F08F5FF1CF8FEF0895A1
:10328000CF93DF93C091E914D091EA1481E0CE315D
:10329000D105E4F020E030E040E05FE36091E51428
:1032A0007091E6148091E7149091E8140E9425EB48
:1032B0000E9404EC6C1B7D0B77FF03C07195619538
:1032C000710981E0633071050CF080E0DF91CF91EE
:1032D0000895CF93DF93EC018D810E94258960E0F2
:1032E0008B81DF91CF910C94FDC3DF92EF92FF921F
:1032F0000F931F93CF93DF938C01C62FD22FF32E02
:10330000E42ED52EE6DF0E948BC58C2F80640E94B0
:1033100019898D2D0E9419898E2D0E9419898F2D52
:103320000E9419898D2F0E94198987E8C11101C057
:1033300085E90E941989CC3011F40E941E89C0E0F1
:103340000E941E89F801868387FF04C0CF3F11F0D9
:10335000CF5FF6CFDF91CF911F910F91FF90EF904C
:10336000DF90089561E0FC0183810E94FDC38FEF2F
:103370000C9419890F931F93CF938C01AADF0E949D
:103380008BC5C82F882369F08DEF0E9419890E9490
:103390008BC5C82FC801E6DF8C2FCF911F910F91ED
:1033A000089582E1F8018483F5CF8F929F92AF92C6
:1033B000BF92CF92DF92EF92FF920F931F93CF9322
:1033C000DF93EC016A017B01590120E030E0A901A3
:1033D00067E38BDFA501980167E1CE0186DF8111EC
:1033E00025C08F81833039F089E0CC0CDD1CEE1CC8
:1033F000FF1C8A95D1F7A701960169E1CE0175DF1F
:1034000011E0882319F010E087E08C83CE01AADF59
:10341000812FDF91CF911F910F91FF90EF90DF905F
:10342000CF90BF90AF909F908F90089589E08C834C
:1034300010E0ECCFCF93DF93EC016EBDFA01CA012F
:103440009E5F0DB407FEFDCF20812EBD0DB407FE9B
:10345000FDCF21812EBD3296E817F90791F70DB403
:1034600007FEFDCF8FEF0E9419898FEF0E94198907
:103470000E941E898E838F71853041F083E18C8399
:10348000CE0170DF80E0DF91CF91089581E0FBCF26
:103490000F931F93CF93DF93EC018B011ADF0E94F0
:1034A0008BC581110BC085E18C8310E0CE015ADF02
:1034B000812FDF91CF911F910F910895A8016CEF9B
:1034C000CE01B8DF182F882371F3F0CF0F931F932D
:1034D000CF93DF93EC0189018F81833039F089E04C
:1034E000440F551F661F771F8A95D1F79A01AB01CC
:1034F00068E1CE01FADE811127C0A8016EEFCE018E
:1035000099DF182F8823A9F00E948BC5182F8823D4
:10351000C1F020E030E0A9016DE0CE01E6DE8823B5
:1035200021F086E18C8310E004C00E941E89811185
:10353000F8CFCE0117DF812FDF91CF911F910F912F
:10354000089587E18C83F5CF86E0ECCF1F93CF936E
:10355000DF93EC01BEDE20E030E0A9016CE0CE019B
:10356000C4DE11E0882319F010E083E08C83CE01E3
:10357000F9DE812FDF91CF911F9108951F93CF9393
:10358000DF93EC018F81833039F089E0440F551FC0
:10359000661F771F8A95D1F79A01AB0162E1CE01D0
:1035A000A4DE11E0882319F010E085E08C83CE01C1
:1035B000D9DE812FDF91CF911F9108958F929F9235
:1035C000AF92BF92EF92FF920F931F93CF93DF932F
:1035D0008C01EB017A010E94BCC44B015C012CE21E
:1035E000820E21E0921EA11CB11C0E941E89F801CE
:1035F00086838F3F69F40E94BCC4681979098A09DF
:103600009B0997FDF2CF81E1F8018483C0E021C0DE
:103610008E3F69F5F1E0EF1AF1088FEF8EBDFE01E4
:103620002FEF0DB407FEFDCF8EB581932EBDCF01D8
:103630008C1B9D0B8E159F05A0F30DB407FEFDCFCF
:103640008EB5CE0DDF1D88830E941E890E941E89C3
:10365000C1E0C80187DE8C2FDF91CF911F910F91C0
:10366000FF90EF90BF90AF909F908F9008958FE064
:10367000CBCF0F931F93CF93DF93EC018B0129DE08
:1036800040E052E0B801CE01DF91CF911F910F9140
:1036900095CF0F931F93CF93DF93EC0189018F8117
:1036A000833039F089E0440F551F661F771F8A95D4
:1036B000D1F79A01AB0161E1CE0117DE811109C09A
:1036C00040E052E0B801CE01DF91CF911F910F9100
:1036D00075CF84E08C83CE0145DE80E0DF91CF9111
:1036E0001F910F9108958F929F92AF92BF92CF92A8
:1036F000DF92EF92FF920F931F93CF93DF93EC0132
:10370000162F1F821C824B830E94BCC46B017C015C
:1037100020EDC20E27E0D21EE11CF11CA89561E04D
:103720008B810E94FDC38B810E9416B5209A289A36
:10373000219A2398229A81E00E94258985E08D8331
:103740000E9425890AE08FEF0E9419890150D9F75C
:10375000A89520E030E0A90160E0CE01C6DD8E83AF
:10376000813079F00E94BCC46C197D098E099F09D3
:1037700097FDEFCF81E08C83CE01F4DD1A8280E0EB
:1037800065C0A8952AEA31E040E050E068E0CE014B
:10379000ACDD853031F581E08F83A8958F81812C58
:1037A000912C5401823029F4812C912CA12C80E49D
:1037B000B82E20E030E0A90167E3CE0196DDA50137
:1037C000940169E2CE0191DD8E838823F1F00E949D
:1037D000BCC46C197D098E099F0997FDEACF8AE068
:1037E000CACF04E00E941E898E830150D9F78A3A1D
:1037F00011F482E0D1CF0E94BCC46C197D098E09FE
:103800009F0997FDBFCF82E0B6CF8F818230B9F498
:1038100020E030E0A9016AE3CE0167DD882311F0E2
:1038200088E0A9CF0E941E89807C803C11F483E04F
:103830008F830E941E890E941E890E941E89CE01CC
:1038400091DD81E08A83173070F41D83DF91CF9181
:103850001F910F91FF90EF90DF90CF90BF90AF90AE
:103860009F908F90089588E18C8389CF0F931F9349
:10387000CF93DF93EC018B0120E030E0A90169E0F8
:1038800034DD811109C040E150E0B801CE01DF9183
:10389000CF911F910F9192CE80E18C83CE0162DD9A
:1038A00080E0DF91CF911F910F910895CF93DF9327
:1038B000EDE0F5E1C085D1856481758186819781D0
:1038C0000E9404ECAE018EED95E0DF91CF910C9457
:1038D000A167EF92FF920F931F93CF937B018A0111
:1038E000C2E48F3F09F0C4E580E20E94406D8C2F56
:1038F0000E94406D8AE30E94406DF70160817181F2
:103900008281938142E00E94D5B88FE59DE00E94BC
:10391000476DF801608171818281938142E00E944C
:10392000D5B862E070E080E090E0CF911F910F91F8
:10393000FF90EF900C9489C40F930091130521E040
:10394000022729E636E04CE050E0BC0187E696E02D
:103950000E947C6B0F9108950F930091130521E055
:10396000022729E636E044E050E0BC0187E696E015
:103970000E947C6B0F9108950F930091130521E035
:10398000022729E636E041E050E0BC0187E696E0F8
:103990000E947C6B0F9108950F930091130521E015
:1039A000022729E636E041E050E0BC0187E696E0D8
:1039B0000E947C6B0F9108950F930091130521E0F5
:1039C000022729E636E048E050E0BC0187E696E0B1
:1039D0000E947C6B0F9108950F930091130521E0D5
:1039E000022729E636E04CE050E0BC0187E696E08D
:1039F0000E947C6B0F9108950F9301E029E636E059
:103A000041E050E0BC0187E696E00E947C6B0F919C
:103A100008950F9301E029E636E042E050E0BC0152
:103A200087E696E00E947C6B0F9108950F93AB019F
:103A30000091130521E0022729E636E0BC0187E664
:103A400096E00E947C6B0F91089529E636E04CE0E9
:103A500050E0BC0187E696E00C94CD7429E636E090
:103A600044E050E0BC0187E696E00C94CD7429E672
:103A700036E042E050E0BC0187E696E00C94CD745D
:103A800029E636E041E050E0BC0187E696E00C9480
:103A9000CD7429E636E041E050E0BC0187E696E0CF
:103AA0000C94CD7429E636E04CE050E0BC0187E68A
:103AB00096E00C94CD74CF93C82FCB010E94476D34
:103AC00088E998E00E94476D89E898E0CC2311F0DE
:103AD0008EE898E0CF910C943B75CF93DF93EC0187
:103AE0008991882319F00E94BA6BFACFDF91CF91A8
:103AF0000895CF93DF93EC01FE01849121968823F2
:103B000019F00E94BA6BF8CFDF91CF910895CF934F
:103B1000DF93EC010E9422CB1B82DF91CF910895AD
:103B2000CF93DF93EC01462F41706C857D858E85A8
:103B30009F850E941BC8882351F0888920E2829FBC
:103B4000C001112483559D4EDF91CF91089590E0DF
:103B500080E0FACFCF93DF93EB01FC0123812111A9
:103B600004C080E0DF91CF9108952250223028F4E4
:103B70008FE28883198281E0F5CF60E0D1DF009782
:103B800081F3DC0160E080E09EE22D91203299F02B
:103B9000883031F49E01260F311DF90190836F5F4B
:103BA0009E01260F311DAD0141505109FA0140819E
:103BB000F90140836F5F8F5F8B3039F7FE01E60FAD
:103BC000F11D1082D8CF3F924F925F926F927F92F9
:103BD0008F929F92AF92BF92CF92DF92EF92FF921D
:103BE0000F931F93CF93DF93CDB7DEB72C970FB60C
:103BF000F894DEBF0FBECDBF5C01DC0159968D90FD
:103C00009C90F40181859285A385B4859C01AD01CA
:103C10002F5F3F4F4F4F5F4F29873A874B875C8716
:103C2000D50114964D905D906D907C90179741143E
:103C300051046104710409F459C0BFEF4B1A5B0AC7
:103C40006B0A7B0A312C730162011D821E821F8266
:103C50001886F40181859285A385B4852D813E81E6
:103C60004F815885281739074A075B0708F056C067
:103C700089859A85AB85BC858C159D05AE05BF05EC
:103C800050F482E0C82ED12CE12CF12C92E0492E88
:103C9000512C612C712C9E012F5F3F4FB701A60163
:103CA000C4010E9437CA8823C9F189819A81AB81F6
:103CB000BC81892B8A2B8B2B01F1260137019FEFC9
:103CC000491A590A690A790A2D813E814F8158851E
:103CD0002F5F3F4F4F4F5F4F2D833E834F8358875A
:103CE0003FEFC31AD30AE30AF30AB3CF40805180EF
:103CF0006280738033243394A6CFC414D504E604C1
:103D0000F70411F70FEF1FEF2FEF3FE0B701A60108
:103D1000C4010E94A6C9782E81111AC0712C872D6A
:103D20002C960FB6F894DEBF0FBECDBFDF91CF91BA
:103D30001F910F91FF90EF90DF90CF90BF90AF90C9
:103D40009F908F907F906F905F904F903F900895DD
:103D5000F5014481558166817781411551056105E1
:103D6000710539F097018601C4010E94A6C9882314
:103D7000A9F2D5011496CD92DD92ED92FC9217979F
:103D8000332051F0D701C6010196A11DB11DF401E8
:103D900080839183A283B383F50185899689A7895E
:103DA000B08D892B8A2B8B2B09F0B9CFC58AD68A87
:103DB000E78AF08E818180688183B1CF40E050E056
:103DC000BA010C946FCB682F70E090E080E00C9407
:103DD0006BB81F93CF93DF9300D000D01F921F9238
:103DE000CDB7DEB7182F6091151570911615072EF7
:103DF000000C880B990B0E946EE46D837E838F8389
:103E000098878091111590911215A0911315B0917A
:103E1000141589839A83AB83BC83AE014B5F5F4FDC
:103E2000BE016F5F7F4F80E854DD6091E9147091AF
:103E3000EA14072E000C880B990B0E946EE46D8328
:103E40007E838F8398878091E5149091E614A091EA
:103E5000E714B091E81489839A83AB83BC83AE01E5
:103E60004B5F5F4FBE016F5F7F4F8FEF32DD609121
:103E7000EB141F3F39F08CE21802F0011124E35FCC
:103E8000FA4E628570E087E69DE00E94C36F609104
:103E9000EB1470E082E69DE00E94C36F28960FB697
:103EA000F894DEBF0FBECDBFDF91CF911F91089573
:103EB0000F930FB70F9300916E000D7F00936E006C
:103EC00078940F930BB70F930CB70F921F922F9309
:103ED0003F934F935F936F937F938F939F93AF9392
:103EE000BF93EF93FF9311245CD5FF91EF91BF91A6
:103EF000AF919F918F917F916F915F914F913F9182
:103F00002F911F900F900CBF0F910BBF0F9102606C
:103F1000F89400936E000F910FBF0F911895CF93F7
:103F2000DF931092DD05CDE0D5E119861886BEDC61
:103F30001A862C98C1EED4E1198618860E94D5679E
:103F40001A8680910B01807180930901DF91CF91D6
:103F500008958F929F92AF92BF92CF92DF92EF928D
:103F6000FF920F931F93CF93DF93B0E4A0E06A2FEB
:103F700070E0AB014B0F511D55954795411119C08C
:103F8000E2E4FCE065917491072E000C880B990B1C
:103F90000E946EE4DF91CF911F910F91FF90EF90FF
:103FA000DF90CF90BF90AF909F908F900895B42FE7
:103FB000E0CFA41711F0B41303C0EEE3FDE0E2CFAD
:103FC0009A0121503109220F331F220F331FF901AB
:103FD000E05CF34FE590F490F901EC5BF34FC59191
:103FE000D4918E159F0518F3A42FC817D90708F48C
:103FF000BECFF901EE5BF34F05911491F901EA5B35
:10400000F34FC590D4908E199F09BC0190E080E0D9
:104010000E946CE44B015C01B601601B710B072E22
:10402000000C880B990B0E946EE49B01AC01C5014A
:10403000B4010E94CDE44B015C01CE19DF09BE0141
:1040400090E080E00E946CE49B01AC01C501B401EA
:104050000E949CEB6B017C01B801110F880B990B3E
:104060000E946EE49B01AC01C701B6010E9425EBE2
:1040700091CFBC012091B0063091B1064091B006BD
:104080005091B1062417350731F481E02617370720
:1040900009F080E008959A01F1CF0F930FB70F93C5
:1040A00000916E000F930D7F00936E0000916F00E2
:1040B0000D7F00936F000F930BB70F930CB70F9208
:1040C0001F922F933F934F935F936F937F938F93A1
:1040D0009F93AF93BF93EF93FF931124F5D5FF9177
:1040E000EF91BF91AF919F918F917F916F915F9170
:1040F0004F913F912F911F900F900CBF0F910BBFCD
:104100000F910260F89400936F000F9100936E007E
:104110000F910FBF0F91189500C000C080913F090B
:1041200080FF25C0899A8FEF8093EA0680913F092E
:1041300081FF20C08F9A8FEF8093EB0680913F091B
:1041400082FF1BC0439A80910B01809582708093FF
:1041500009018FEF8093EC0680913F0983FF15C022
:1041600016988FEF8093ED0600C000C008958998DF
:1041700081E0DACF8F9881E0DFCF439880910B0107
:1041800082708093090181E0E5CF169A81E0EACF41
:1041900080911405877F80931405129A81E0089519
:1041A000129880911405886080931405089521E089
:1041B00030E0082E02C0220F331F0A94E2F7209548
:1041C000309590911405292320931405813061F0D6
:1041D00020F0823071F081E008955F9A8091C60FDF
:1041E0008E7F8093C60FF7CF8A9A8091C60F8D7FFE
:1041F000F8CF479A809108018095817080930601DD
:104200008091C60F8B7FEDCF80E0D1DF81E0CFDFE3
:1042100082E0CDDFBDCF813089F070F0823081F057
:1042200021E030E001C0220F8A95EAF78091140561
:10423000822B8093140508955F98F2CF8A98F0CF6F
:10424000479890910801917090930601E9CFCF9320
:10425000DF9300D01F92CDB7DEB780912C09882361
:1042600089F083E390E09C838B831A8219829E01FC
:104270002F5F3F4F40E150E06DE279E0CE010396C1
:104280000E94CD740F900F900F900F90DF91CF91FF
:104290000895CF93DF9300D01F921F92CDB7DEB762
:1042A00081E080932C0980E1EDE2F9E0DF011D92CD
:1042B0008A95E9F7CCDF86E18D8382E390E09C83E9
:1042C0008B831A8219829E012F5F3F4F41E050E09D
:1042D000BE016B5F7F4FCE0103960E94CD740F909D
:1042E0000F900F900F900F90DF91CF910895843031
:1042F00021E0920714F084E091E0909316158093EA
:1043000015150C94C367CF93DF93809177048111C7
:1043100019C0C0911002D0911102219720E030E025
:1043200040E05FE3609111157091121580911315B3
:10433000909114150E9425EB0E9404EC21E06C176B
:104340007D070CF020E0822FDF91CF910895AF928E
:10435000BF92CF92DF92EF92FF920F931F93CF9372
:10436000DF93C7EDDFE008EA19E087EEA82E8FE0C3
:10437000B82EC12CD12C7601C39469917991899181
:1043800099910E946CE4288939894A895B890E9445
:10439000CDE40E9409ECF8016193719381939193AC
:1043A0008F01C616D706E806F90610F46B017C01EA
:1043B000AC16BD0611F76FEF7FEFCB01A701960199
:1043C0000E9492EA2093B8093093B9094093BA0940
:1043D0005093BB09DF91CF911F910F91FF90EF9008
:1043E000DF90CF90BF90AF9008950F931F93CF931E
:1043F000DF930BEE1FE0CDEBD9E0F8012191319175
:10440000419151918F0160E070E080E89FE30E944C
:104410009CEB6993799389939993F9E0CD3CDF07FD
:1044200061F70E9459C0DF91CF911F910F918FCFFB
:1044300090914A1580914B15981306C08091C80F32
:104440009091C90F892B21F080E00E94E378F0CF92
:10445000089590914A1580914B15981307C080914B
:10446000C80F9091C90F892B09F4CECE80E00E942D
:10447000E378EFCFCF93DF9320918404222379F068
:10448000EC010E94E7679B01AC01688579858A850C
:104490009B850E9425EB688779878A879B87DF91B8
:1044A000CF910895CF92DF92EF92FF92809199047D
:1044B000882309F457C0C0909504D0909604E090EA
:1044C0009704F090980420E030E0A901C701B601FC
:1044D0000E9468E4882309F445C020E030E040E011
:1044E0005FE3C701B6010E94CDE49B01AC010E94CD
:1044F000CDE42BED3FE049E450E40E94CDE49B0184
:10450000AC0160E070E080E89FE30E949CEB6B01EF
:104510007C01C0927304D0927404E0927504F0920E
:10452000760460910E0270910F02072E000C880B2A
:10453000990B0E946EE42AE037ED43E25CE30E94AF
:10454000CDE4A70196010E94CDE460934C027093E4
:104550004D0280934E0290934F02FF90EF90DF90B8
:10456000CF900895C12CD12C80E8E82E8FE3F82E4F
:10457000D0CF4F925F926F927F928F929F92AF9225
:10458000BF92CF92DF92EF92FF920F931F93CF9340
:10459000DF93CDB7DEB72E970FB6F894DEBF0FBE10
:1045A000CDBF9E878D875B018A01DC01D6966D9118
:1045B0007D918D919C91D9970E946CE46B017C0157
:1045C000F50120813181428153810E94CDE40E9416
:1045D00089EB4B015C01D8012D913D914D915C918E
:1045E000C701B6010E94CDE40E9489EB2B013C017A
:1045F000C501B4010E9409EC6D837E838F83988787
:10460000683771058105910540F408E710E020E066
:1046100030E00D831E832F833887C301B2010E94CF
:1046200009EC69837A838B839C83683771058105E4
:10463000910540F428E730E040E050E029833A83D8
:104640004B835C83AD85BE8595968D909D90AD9096
:10465000BC909897FD01EE5BFF4F60817181828174
:104660009381611571058105910509F4D7C00E94F8
:104670006EE49B01AC0160E070E080E89FE30E9483
:104680009CEB20E030E040E05FE30E94CDE42B01B2
:104690003C01A7019601C701B6010E94CDE46B0160
:1046A0007C0169817A818B819C810E946CE49B01F1
:1046B000AC010E94CDE49B01AC01C701B6010E9490
:1046C00024EBA30192010E94CDE469877A878B874E
:1046D0009C876D817E818F8198850E946CE49B010F
:1046E000AC010E94CDE49B01AC01C701B6010E9460
:1046F00024EBA30192010E94CDE42B013C010E9416
:1047000089EB0E9409EC6B017C0169857A858B85B8
:104710009C850E9435EC0E9409ECDC01CB01B701BD
:10472000A601480F591F6A1F7B1F95018401041BB6
:10473000150B260B370BB901A80177FF35C0C50152
:10474000B4010E946CE4A30192010E9425EB29852B
:104750003A854B855C850E9424EB20E030E040E008
:104760005FE30E94CDE40E9489EB6B017C0120E0B5
:1047700030E0A9010E9488EC18161CF0C12CD12C45
:104780007601C701B6010E9409EC6B017C018C1413
:104790009D04AE04BF0410F475016401D501C40189
:1047A0008C199D09AE09BF09ED85FE85C1A6D2A66B
:1047B000E3A6F4A695018401081B190B2A0B3B0BF9
:1047C000D901C80185A796A7A7A7B0AB0D811E8107
:1047D0002F81388502AF13AF24AF35AFFE96098124
:1047E0001A812B813C8100831183228333832E968F
:1047F0000FB6F894DEBF0FBECDBFDF91CF911F91F2
:104800000F91FF90EF90DF90CF90BF90AF909F906F
:104810008F907F906F905F904F90089580E090E030
:10482000DC01C12CD12C7601BFCFEFE6F0E0808116
:10483000826080830895CF93C82F0E94EC1894E083
:10484000C99F90011124F901ED54F94F2154394FBA
:10485000D9014D915D916D917C914083518362832B
:10486000738391E09093B206882311F0CF91DDCF4E
:10487000CF910895CF93DF9380913E09811105C0B8
:1048800080914009882309F489C08091EE066599DA
:1048900079C081608093EE06909109018091EE06C7
:1048A00097FD72C082608093EE069091090180911D
:1048B000EE0696FF6BC084608093EE068091EE0654
:1048C0004B9B66C088608093EE068091EE06649BE9
:1048D00061C080618093EE06C091A306C0FF0FC047
:1048E00080913F0980FF0BC08091EE0680FF07C0DA
:1048F0008091C70F81608093C70F80E09CDFC1FF6C
:104900000FC080913F0981FF0BC08091EE0681FFAF
:1049100007C08091C70F82608093C70F81E08BDF53
:10492000C2FF3CC080913F0982FF38C0809140099E
:10493000811117C09091EE0692FB882780F993FFB2
:104940002BC092E0892B69F09091C70F94609093EF
:10495000C70F9091D405992311F0833011F482E0B0
:104960006ADF809140098823C9F08091EE0684FFB8
:1049700015C08091C70F80618093C70F82E0DF91DF
:10498000CF9159CF8E7F86CF8D7F8DCF8B7F94CF68
:10499000877F99CF8F7E9ECF90E0D4CFDF91CF914C
:1049A00008951F93CF93DF9380911D028F3708F4F2
:1049B000E4C08F57909117159093F406992309F44A
:1049C000DAC02C9A2091EB142093F30690910B01FE
:1049D000211190959071909309019091020120917D
:1049E000D8052093F20621119095907190930001C3
:1049F0002091D70530E0359527952093F1069091C9
:104A00000201232B09F090959074909300018F5F21
:104A100080931D028091F00691E089278093F00633
:104A200080911C02980F85300CF090E0823009F4E0
:104A300012C10CF0C2C0882309F4D7C0813009F438
:104A4000FEC090931C02C091D505D091D605209749
:104A500009F481C0F89416B1187082E0DCDB00C064
:104A600000C01C161D060CF425C1439A80910B0151
:104A70001C161D060CF0809582708093090100C001
:104A800000C08091D405882309F416C18091EE06F8
:104A900082FF04C08091EC0687FD05C08091D3059C
:104AA000811101C0419A8091EE0683FF04C080917C
:104AB000EC0687FD0AC08091D205811106C0809165
:104AC0000B01809588708093090100C0000082E08E
:104AD00090E00197F0F78091D405882309F4EEC0A7
:104AE0008091EE0682FF04C08091EC0687FD05C030
:104AF0008091D305811101C041988091EE0683FF1A
:104B000004C08091EC0687FD09C08091D205811117
:104B100005C080910B0188708093090100C000C01E
:104B2000112309F4CDC0439A80910B011111809596
:104B300082708093090100C000C078948091D505EF
:104B40009091D6051C161D060CF0BCC001979093E1
:104B5000D6058093D5058EDE8091C80F9091C90F40
:104B6000009729F001979093C90F8093C80FDF91A8
:104B7000CF911F9108952C9825CF9091F406891715
:104B800008F02C989091F306891728F090910B016A
:104B90009071909309019091F106891728F09091F6
:104BA00002019074909300019091F206891708F425
:104BB0002ECF90910201907128CF843009F463C008
:104BC0000CF45CC0853009F03CCF2091EF06211138
:104BD00002C08093EF068091EF0681508093EF062C
:104BE000882309F42ECF95E02CCF80911B028F5F94
:104BF00080311CF480931B0224CF10921B02809101
:104C0000E906811113C020910D1530910E153093D6
:104C1000101520930F152091E1143091E214309378
:104C2000E4142093E31481E08093E90610920E15BA
:104C300010920D151092E2141092E11402CF88E048
:104C400080937B0085E480937C0080917A0080646F
:104C500080937A00F6CE80917A0086FD27C040913D
:104C600078005091790020910D1530910E15240F88
:104C7000351F30930E1520930D15E3CE88E08093F9
:104C80007B0086E4E0CF80917A0086FD11C04091E0
:104C90007800509179002091E1143091E214240FB2
:104CA000351F3093E2142093E114CBCE92E0C9CEAD
:104CB00094E0C7CE4398DACE419A01CF419829CFEC
:104CC000439832CF019643CF2F923F924F925F92FB
:104CD0006F927F928F929F92AF92BF92CF92DF920C
:104CE000EF92FF920F931F93CF93DF9300D0CDB736
:104CF000DEB78FEF9FEF90938900809388000AE0E2
:104D00000983312C212C78948091AC069091AD06CA
:104D1000A091AE06B091AF06892B8A2B8B2B09F0A0
:104D20000FC28091B2068823D1F08091B006909195
:104D3000B1061092B206892B91F01092B106109232
:104D4000B0061092A30690914A1580914B159817C2
:104D500031F080914B158F5F8F7080934B15809150
:104D6000B0069091B106892B09F4EAC14091A806DA
:104D70005091A9066091AA067091AB068091A40695
:104D80009091A506A091A606B091A70648175907CD
:104D90006A077B0708F0D4C100918F0910E030E06A
:104DA00020E0841B950BA60BB70B081719072A07E1
:104DB0003B0710F4D901C8018A83840F951FA61FF1
:104DC000B71F8093A8069093A906A093AA06B09354
:104DD000AB06E1E0C0906F06D0907006E0907106DF
:104DE000F090720680917F0690918006A0918106D6
:104DF000B0918206C80ED91EEA1EFB1EC0927F0625
:104E0000D0928006E0928106F0928206F7FC18C0EC
:104E100080916B0690916C06A0916D06B0916E0624
:104E2000A7019601281B390B4A0B5B0BDA01C9015C
:104E300080937F0690938006A0938106B0938206AC
:104E400000917306109174062091750630917606D4
:104E50008091830690918406A0918506B091860684
:104E6000080F191F2A1F3B1F009383061093840607
:104E7000209385063093860637FD18C080916B0617
:104E800090916C06A0916D06B0916E06B901A801D3
:104E9000481B590B6A0B7B0BDB01CA01809383060D
:104EA00090938406A0938506B0938606409177067A
:104EB000509178066091790670917A068091870604
:104EC00090918806A0918906B0918A06480F591FD3
:104ED0006A1F7B1F4093870650938806609389065C
:104EE00070938A0677FD18C080916B0690916C06CE
:104EF000A0916D06B0916E062A013B01481A590A2D
:104F00006A0A7B0AD301C2018093870690938806C0
:104F1000A0938906B0938A0680907B0690907C06C9
:104F2000A0907D06B0907E0680918B0690918C06B5
:104F3000A0918D06B0918E06880D991DAA1DBB1DEE
:104F400080938B0690938C06A0938D06B0938E066B
:104F5000B7FD18C080906B0690906C06A0906D060F
:104F6000B0906E062C013D01481859086A087B086C
:104F70005301420180928B0690928C06A0928D067E
:104F8000B0928E06E11104C0E0918400F09185009A
:104F9000F7FC1CC04090EA06042C000C550866087B
:104FA00077088090BF069090C006A090C106B09090
:104FB000C206840C951CA61CB71C8092BF0690925A
:104FC000C006A092C106B092C206889A37FD1CC0E6
:104FD0004090EB06042C000C55086608770880907A
:104FE000C3069090C406A090C506B090C606840C77
:104FF000951CA61CB71C8092C3069092C406A09272
:10500000C506B092C6068E9A77FD3CC0E091EC06CC
:105010004E2E0E2E000C5508660877088090C706A5
:105020009090C806A090C906B090CA06840C951C42
:10503000A61CB71C8092C7069092C806A092C9060B
:10504000B092CA06F091D405FF2309F49DC2F091F5
:10505000EE06F2FF02C0E7FD05C0F091D305F111A5
:1050600001C0419AF091EE06F3FF02C0E7FD0AC0CD
:10507000E091D205E11106C0E0910B01E095E870E6
:10508000E0930901B7FD1CC04090ED06042C000C14
:105090005508660877088090CB069090CC06A090C3
:1050A000CD06B090CE06840C951CA61CB71C809231
:1050B000CB069092CC06A092CD06B092CE06149A62
:1050C000E0918400F0918500E0918400F0918500EA
:1050D000F7FE889837FF8E9877FD23C02091D4057E
:1050E000222309F453C22091EE0622FF04C020912E
:1050F000EC0627FD05C02091D305211101C0419880
:105100002091EE0623FF04C02091EC0627FD09C084
:105110002091D205211105C020910B012870209308
:105120000901B7FF14985A80552021F0809184001E
:10513000909185000A8101500A83E0E001114ACE76
:105140008091AC069091AD06A091AE06B091AF06ED
:10515000892B8A2B8B2B09F0CCC1E091B006F09102
:10516000B106309709F445C38091A8069091A9062D
:10517000A091AA06B091AB064091A4065091A50655
:105180006091A6067091A70684179507A607B70732
:1051900008F4FEC180911602882309F44CC0858969
:1051A0009689A789B08D892B8A2B8B2BA1F4818DB1
:1051B000928DA38DB48D892B8A2B8B2B61F4858DD9
:1051C000968DA78DB0A1892B8A2B8B2B21F48091F2
:1051D0000208882381F161A172A183A194A1C090EA
:1051E0001505D0901605E0901705F090180525A933
:1051F00023FF07C090958095709561957F4F8F4FE5
:105200009F4F0E946EE42091C9093091CA094091D4
:10521000CB095091CC090E94CDE49B01AC01C701A0
:10522000B6010E9424EB60931505709316058093D8
:105230001705909318051092B1061092B0061092BF
:10524000A30690914A1580914B15981709F4D1C285
:1052500080914B158F5F8F7080934B1530EDC32E6F
:1052600037E0D32EE12CF12C8091B0069091B1065D
:10527000892B09F036C10E94B7189093B10680932C
:10528000B006892B09F42DC16090B0067090B1066C
:105290007B826A82D3018C9183FD8EC2F301E95B2C
:1052A000FF4F80819181A281B3818093BE0590934D
:1052B000BF05A093C005B093C10580E13496AAE173
:1052C000B5E001900D928A95E1F7EA81FB8185882E
:1052D0009688A788B08C81E081149104A104B10460
:1052E00009F480E0AA81BB815996CD90DD90ED90C4
:1052F000FC905C97C114D104E104F10409F075C27B
:10530000EA81FB81458D568D678D70A14115510550
:105310006105710509F084608093A30610928F06E1
:1053200010929006109291061092920610929B068F
:1053300010929C0610929D0610929E06EA81FB81B7
:1053400085A196A1A7A1B0A58093A4069093A506D8
:10535000A093A606B093A706442455243201481A08
:10536000590A6A0A7B0A40927F0650928006609230
:105370008106709282064092830650928406609263
:105380008506709286064092870650928806609243
:10539000890670928A0640928B0650928C06609223
:1053A0008D0670928E0641A052A063A074A0440C9A
:1053B000551C661C771C880C991CAA1CBB1C80926F
:1053C0006F0690927006A0927106B0927206CC0C95
:1053D000DD1CEE1CFF1CC0927306D0927406E09296
:1053E0007506F0927606440F551F661F771F40938F
:1053F0007706509378066093790670937A06409208
:105400007B0650927C0660927D0670927E06880F25
:10541000991FAA1FBB1F80936B0690936C06A093E5
:105420006D06B0936E061092A8061092A90610920F
:10543000AA061092AB0681A592A5A3A5B4A5809358
:105440009F069093A006A093A106B093A20685A5FF
:1054500096A5A7A5B0A98093930690939406A093D0
:105460009506B093960685A990913F09891721F07A
:1054700080933F090E948C20FDD944244A94542CE7
:1054800032014092170250921802609219027092F3
:105490001A02AA81BB81DA966D917D918D919C91C2
:1054A000DD97609397067093980680939906909382
:1054B0009A060E9488C36B017C0180919B069091A3
:1054C0009C06A0919D06B0919E068C0D9D1DAE1D63
:1054D000BF1D80939B0690939C06A0939D06B0935E
:1054E0009E06C092AC06D092AD06E092AE06F09257
:1054F000AF068091AC069091AD06A091AE06B0913A
:10550000AF06AC01BD010097E1E0AE07B10520F0A8
:105510004FEF5FEF60E070E0841B950BA60BB70BBD
:105520008093AC069093AD06A093AE06B093AF0601
:10553000F8948091840090918500409609810150F3
:105540000983002309F453C1240E351E2816390699
:1055500008F4D9CB30928900209288000F900F90E8
:105560000F90DF91CF911F910F91FF90EF90DF90FF
:10557000CF90BF90AF909F908F907F906F905F90F3
:105580004F903F902F900895419A76CD4198C4CD89
:1055900040919F065091A0066091A1067091A206CD
:1055A000481759076A077B0708F46FC080919B066C
:1055B00090919C06A0919D06B0919E0641A952A98A
:1055C00063A974A94424859F112D969F9001A69FDD
:1055D000300DA59F200D311D869F100D211D341DFE
:1055E000959F100D211D341DA49F100D211D341DEC
:1055F000949F110D241D341D789F110F201D311D06
:10560000799F300D112482AD93ADA4ADB5AD820F5D
:10561000931FA11DB11D8093970690939806A093A8
:105620009906B0939A0646A957A960AD71AD48177F
:1056300059076A077B0740F44093970650939806F2
:105640006093990670939A066091970670919806F8
:105650008091990690919A060E9488C36B017C0103
:1056600080919B0690919C06A0919D06B0919E060C
:105670008C0D9D1DAE1DBF1D80939B0690939C06B7
:10568000A0939D06B0939E06EFCD40919306509156
:1056900094066091950670919606481759076A0717
:1056A0007B0708F068C080918F0690919006A091CA
:1056B0009106B091920641A952A963A974A95524F3
:1056C000859F112D969F9001A69F300DA59F200DBF
:1056D000311D869F100D211D351D959F100D211D1B
:1056E000351DA49F100D211D351D949F110D251DE5
:1056F000351D789F110F201D311D799F300D11240C
:10570000A90170E060E08091970690919806A091C1
:105710009906B0919A06FE9600811181228133810B
:10572000481759076A077B0758F4841B950BA60B8B
:10573000B70B081719072A073B0710F48C019D01C6
:10574000C901B8010E9488C36B017C0180918F065A
:1057500090919006A0919106B09192068C0D9D1D9E
:10576000AE1DBF1D80938F0690939006A093910667
:10577000B093920679CD8091170290911802A09172
:105780001902B0911A02B7FF0EC066A977A980ADC1
:1057900091AD0E9488C360931702709318028093A2
:1057A000190290931A02C0901702D0901802E0904C
:1057B0001902F0901A0258CD8A819B8145960E9469
:1057C000AE181092B1061092B0061092A3069091F6
:1057D0004A1580914B15981709F44DCD80914B15C2
:1057E0008F5F8F7080934B1546CD826089CD1C01F1
:1057F000B1CE80EDC82E87E0D82EE12CF12C3BCD28
:10580000CF92DF92EF92FF92FC01C080D180E280C4
:10581000F3802091F70F3091F80F4091F90F5091DC
:10582000FA0FC701B6010E94CDE40E948CEC609390
:1058300068157093691580936A1590936B15C092E3
:105840005815D0925915E0925A15F0925B15909127
:105850004A1580914B15981731F0FF90EF90DF902B
:10586000CF900C9484C10E9418220E94EC184091A1
:1058700068155091691560916A1570916B15409388
:10588000CB065093CC066093CD067093CE0688234A
:1058900031F0FF90EF90DF90CF900C941524FF90A3
:1058A000EF90DF90CF9008954F925F926F927F922A
:1058B0008F929F92AF92BF92CF92DF92EF92FF9220
:1058C000CF93DF93EC0180E1FE01ACE4B5E1019000
:1058D0000D928A95E1F72091F70F3091F80F4091E2
:1058E000F90F5091FA0F6C857D858E859F850E94FA
:1058F000CDE40E948CEC6B017C012091F30F309180
:10590000F40F4091F50F5091F60F688579858A85DF
:105910009B850E94CDE40E948CEC4B015C012091A0
:10592000EF0F3091F00F4091F10F5091F20F6C8119
:105930007D818E819F810E94CDE40E948CEC2B01A1
:105940003C012091EB0F3091EC0F4091ED0F509105
:10595000EE0F688179818A819B810E94CDE40E944B
:105960008CEC60935C1570935D1580935E1590933D
:105970005F154092601550926115609262157092A9
:1059800063158092641590926515A0926615B09289
:105990006715C0926815D0926915E0926A15F09269
:1059A0006B1590914A1580914B15981781F0DF91F6
:1059B000CF91FF90EF90DF90CF90BF90AF909F90EE
:1059C0008F907F906F905F904F900C9484C10E9455
:1059D00018220E94EC18C82F8CE595E10E94AE18A1
:1059E000CC2381F0DF91CF91FF90EF90DF90CF90AB
:1059F000BF90AF909F908F907F906F905F904F90EF
:105A00000C941524DF91CF91FF90EF90DF90CF9011
:105A1000BF90AF909F908F907F906F905F904F90CE
:105A20000895CF92DF92EF92FF92CF93DF93C82F2A
:105A30000E94EC1894E0C99FE0011124FE01E1549A
:105A4000F94FC080D180E280F38081110E9415243B
:105A5000C354D64FC701B6010E946EE42881398134
:105A60004A815B810E94CDE4DF91CF91FF90EF905E
:105A7000DF90CF900895CF92DF92EF92FF92CF9375
:105A8000DF93C82F0E94EC1894E0C99FE001112415
:105A9000FE01ED54F94FC080D180E280F380811186
:105AA0000E941524C354D64FC701B6010E946EE46C
:105AB000288139814A815B810E94CDE4DF91CF91B9
:105AC000FF90EF90DF90CF9008950E94EC18909196
:105AD0004B1590934A15909349159093481594E669
